:1000000002C100002EC100002CC100002AC1000066
:1000100028C1000026C1000024C1000022C1000048
:1000200020C100001EC100001CC100001AC1000058
:1000300018C1000016C1000014C1000012C1000068
:1000400010C100000EC100000CC100000AC1000078
:1000500008C1000006C1000004C100000FC4000078
:1000600000C100007EC4000053C40000FAC00000BC
:10007000F8C00000F6C00000F4C00000F2C00000AC
:10008000F0C00000EEC00000ECC00000EAC00000BC
:10009000E8C00000E6C00000E4C00000E2C00000CC
:1000A000E0C00000DEC00000DCC00000DAC00000DC
:1000B000D8C00000D6C00000D4C00000D2C00000EC
:1000C000D0C00000CEC00000CCC00000CAC00000FC
:1000D000C8C00000C6C00000C4C00000C2C000000C
:1000E000C0C0000000002100240027002A002D00CD
:1000F0003000330001010000040107010A01000083
:100100002200250028002B002E00310034000201BF
:100110000000050108010B0100002000230026005B
:1001200029002C002F00320000010000030106010D
:10013000090105050505070508080808020202026D
:100140000A0A080804040404010101010101010173
:100150000303030303030303040707070C0C0C0C3E
:100160000C0C0C0C02020202060606060606060627
:100170000B0B0B0B0B0B0B0B0102102020080810B4
:100180002040102040800201020108040201010207
:1001900004081020408080402010080402018004E0
:1001A000020180402010080402010804020101023B
:1001B0000408102040800102040810204080000044
:1001C0000A0B02090C0D0E080703040100000000D1
:1001D000000000000000000000000000000000001F
:1001E00000000000000000000000121110000000DC
:1001F00000000000000000000000000000000000FF
:10020000000000006E0611241FBECFEFD1E2DEBF5A
:10021000CDBF00E00CBF12E0A0E0B2E0EEEDFDE0EB
:1002200000E00BBF02C007900D92A631B107D9F7CD
:1002300022E0A6E1B2E001C01D92A23CB207E1F7C4
:1002400011E0C3E0D1E000E005C021970109802F53
:10025000FE01BBD5C230D10780E00807B1F7B7D3A4
:10026000BCC5CECEAF92BF92CF92DF92EF92FF92FB
:100270000F931F93CF93DF936C017B018B01040FCE
:10028000151FEB015E01AE18BF08C017D10759F06A
:100290006991D601ED91FC910190F081E02DC601AC
:1002A0001995892B79F7C501DF91CF911F910F9196
:1002B000FF90EF90DF90CF90BF90AF900895FC013A
:1002C000538D448D252F30E0842F90E0821B930BBB
:1002D000541710F0CF96089501970895FC01918D61
:1002E000828D981761F0A28DAE0FBF2FB11D5D9664
:1002F0008C91928D9F5F9F73928F90E008958FEF06
:100300009FEF0895FC01918D828D981731F0828DB9
:10031000E80FF11D858D90E008958FEF9FEF089510
:10032000FC01918D228D892F90E0805C9F4F821B74
:1003300091098F739927089585E292E0F1DF21E01A
:10034000892B09F420E0822F0895FC01A48DA80FC9
:10035000B92FB11DA35ABF4F2C91848D90E0019607
:100360008F739927848FA689B7892C93A089B18927
:100370008C91837080648C93938D848D981306C0C8
:100380000288F389E02D80818F7D80830895EF922C
:10039000FF920F931F93CF93DF93EC0181E0888F3F
:1003A0009B8D8C8D98131AC0E889F989808185FF0F
:1003B00015C09FB7F894EE89FF896083E889F989B1
:1003C00080818370806480839FBF81E090E0DF91B3
:1003D000CF911F910F91FF90EF900895F62E0B8D06
:1003E00010E00F5F1F4F0F731127E02E8C8D8E11C1
:1003F0000BC00FB607FCFACFE889F989808185FF29
:10040000F5CFCE01A2DFF2CFEB8DEC0FFD2FF11D6A
:10041000E35AFF4FF0829FB7F8940B8FEA89FB896C
:1004200080818062D0CFCF93DF93EC01888D8823C9
:10043000B1F0AA89BB89E889F9898C9185FD03C04F
:10044000808186FD0CC00FB607FCF7CF8C9185FF2D
:10045000F2CF808185FFEDCFCE0177DFEACFDF914C
:10046000CF91089580E090E0892B21F065DF811124
:100470000E94000080E090E0892B49F080E090E04D
:10048000892B29F00E94000081110E94000080E069
:1004900090E0892B49F080E090E0892B29F00E94C0
:1004A000000081110E94000080E090E0892B49F05B
:1004B00080E090E0892B29F00E94000081110C94CB
:1004C000000008958150823108F059C0E82FF0E013
:1004D0008827E359FD4F8F4F78C48D0291027F0228
:1004E00085028902BF0294029A029E02A402A80217
:1004F000AC02B202B602BF02BA02C002C4028091CC
:1005000080008F77809380000895809180008F7D98
:10051000F9CF80918000877FF5CF84B58F7784BD38
:10052000089584B58F7DFBCF8091B0008F77809345
:10053000B00008958091B0008F7DF9CF8091900038
:100540008F77809390000895809190008F7DF9CFF0
:1005500080919000877FF5CF8091A0008F77809366
:10056000A00008958091A0008F7DF9CF8091A00018
:10057000877FF5CF809120018F77809320010895A8
:10058000809120018F7DF9CF80912001877FF5CF69
:10059000CF93DF93282F30E0F901E254FE4F84918E
:1005A000F901E858FE4FD491F901EE5CFE4FC49179
:1005B000CC2399F0811186DFEC2FF0E0EE0FFF1FC6
:1005C000E85EFE4FA591B491EC91ED2381E090E0BF
:1005D00009F480E0DF91CF91089580E090E0FACFB8
:1005E0001F93CF93DF93282F30E0F901E254FE4FA1
:1005F0008491F901E858FE4FD491F901EE5CFE4F69
:10060000C491CC23A1F0162F81115CDFEC2FF0E018
:10061000EE0FFF1FE250FF4FA591B4918FB7F894F2
:10062000EC91111108C0D095DE23DC938FBFDF91D0
:10063000CF911F910895DE2BF8CFCF93DF9390E0F9
:10064000FC01E858FE4F24918E5C9E4FFC01849182
:100650008823D1F090E0880F991FFC01EC51FF4FE7
:10066000A591B491FC01E250FF4FC591D491611165
:100670000EC09FB7F8948C91E22FE0958E238C9357
:100680002881E223E8839FBFDF91CF9108958FB740
:10069000F894EC91E22BEC938FBFF6CF4F925F92E0
:1006A0006F927F928F929F92AF92BF92CF92DF9282
:1006B000EF92FF920F931F932B013C0149015A01C6
:1006C0006701780120E030E040E85FE334D361E087
:1006D000882309F45AC020E030E040E85FEBC30112
:1006E000B20129D3811148C060E082E079DF61E086
:1006F00083E076DF20E030E040E85FE3C501B4014D
:100700001AD361E0882309F44DC020E030E040E8CE
:100710005FEBC501B4010FD381113BC060E084E001
:100720005FDF61E085E05CDF20E030E040E85FE330
:10073000C701B60100D361E0882309F440C020E07E
:1007400030E040E85FEBC701B601F5D281112EC061
:1007500060E086E045DF61E087E01F910F91FF9048
:10076000EF90DF90CF90BF90AF909F908F907F9051
:100770006F905F904F9034CF20E030E0A901C3012B
:10078000B201D9D28111B6CF60E082E029DF60E00A
:10079000AFCF20E030E0A901C501B401CCD2811176
:1007A000C3CF60E084E01CDF60E0BCCF20E030E03D
:1007B000A901C701B601BFD2811105C060E086E082
:1007C0000FDF60E0C9CF1F910F91FF90EF90DF9096
:1007D000CF90BF90AF909F908F907F906F905F90E1
:1007E0004F9008958F929F92AF92BF920F931F9355
:1007F000CF93DF93CDB7DEB7A1970FB6F894DEBFE6
:100800000FBECDBF19A2423008F44AE08E010F5D41
:100810001F4F842E912CB12CA12CA5019401B3D291
:10082000E62FB901CA01EA303CF5E05DD801EE934C
:100830008D01232B242B252B81F790E080E010974E
:1008400061F0FD0101900020E9F73197AF014A1BEB
:100850005B0BBD0185E292E005DDA1960FB6F89431
:10086000DEBF0FBECDBFDF91CF911F910F91BF9023
:10087000AF909F908F900895E95CD8CF1F920F9210
:100880000FB60F9211242F933F938F939F93AF93A3
:10089000BF938091210290912202A0912302B091F6
:1008A00024023091200223E0230F2D3758F50196C2
:1008B000A11DB11D2093200280932102909322025A
:1008C000A0932302B093240280911C0290911D02F8
:1008D000A0911E02B0911F020196A11DB11D80932F
:1008E0001C0290931D02A0931E02B0931F02BF91A1
:1008F000AF919F918F913F912F910F900FBE0F90CD
:100900001F90189526E8230F0296A11DB11DD2CF86
:100910001F920F920FB60F9211240BB60F922F93C6
:100920003F934F935F936F937F938F939F93AF9377
:10093000BF93EF93FF9385E292E007DDFF91EF9184
:10094000BF91AF919F918F917F916F915F914F91E7
:100950003F912F910F900BBE0F900FBE0F901F90E5
:1009600018951F920F920FB60F9211240BB60F928B
:100970002F938F939F93EF93FF93E0913502F09124
:1009800036028081E0913B02F0913C0282FD1DC065
:10099000908180913E028F5F8F7320913F0282177A
:1009A00041F0E0913E02F0E0EB5DFD4F958F8093CA
:1009B0003E02FF91EF919F918F912F910F900BBE6F
:1009C0000F900FBE0F901F9018958081F2CF7894F2
:1009D00084B5826084BD84B5816084BD85B5826044
:1009E00085BD85B5816085BD80916E0081608093F5
:1009F0006E0010928100809181008260809381005E
:100A0000809181008160809381008091800081606D
:100A1000809380008091B10084608093B1008091C8
:100A2000B00081608093B0008091910082608093DB
:100A3000910080919100816080939100809190005D
:100A40008160809390008091A10082608093A100DA
:100A50008091A10081608093A1008091A0008160BD
:100A60008093A00080912101826080932101809178
:100A70002101816080932101809120018160809318
:100A8000200180917A00846080937A0080917A00BE
:100A9000826080937A0080917A00816080937A00EE
:100AA00080917A00806880937A001092C100E09172
:100AB0003502F091360282E08083E0913102F091BC
:100AC00032021082E0913302F09134028FEC808385
:100AD00010923D02E0913902F0913A0286E0808363
:100AE000E0913702F0913802808180618083E0914B
:100AF0003702F0913802808188608083E09137026C
:100B0000F0913802808180688083E0913702F09113
:100B1000380280818F7D808361E082E08EDD61E03C
:100B200083E08BDD61E084E088DD61E085E085DDE8
:100B300061E086E082DD61E087E07FDD60E082E108
:100B40007CDD60E083E179DD60E084E176DD60E01A
:100B500082E046DD60E083E043DD60E084E040DD8C
:100B600060E085E03DDD60E086E03ADD60E087E062
:100B700037DD82E10DDD7C0190931B0280931A0228
:100B800083E106DD6C01909319028093180284E1E1
:100B9000FFDC880F991F880F991FCC0CDD1CC82A19
:100BA000D92ACE28DF28D0921702C09216020D2C27
:100BB000000CEE08FF084AE0C701B601F7FE0CC0C2
:100BC0006DE285E292E0E3DB66277727CB016C19C3
:100BD0007D098E099F094AE005DE42E050E062E1AE
:100BE00072E085E292E03EDBC0901602D0901702E0
:100BF000C114D104A1F4E12CF12C8701A8019701C3
:100C0000C801B7014BDD85E0C816D10441F5E12CE0
:100C1000F12C870120E030E040E85FEB58C081E034
:100C2000C816D10461F4E12CF12C00E81FE320E0A8
:100C300030E040E85FEB60E070E0CB01E3CF82E0C2
:100C4000C816D104E1F4E12CF12C870120E030E05A
:100C500040E85FE360E070E080E89FEB1FDD86E046
:100C6000C816D104E1F4E12CF12C00E81FEB20E0E0
:100C700030E040E85FE360E070E0CB012CC083E04F
:100C8000C816D104C1F4E12CF12C00E81FE320E0E8
:100C900030E0A90160E070E080E89FEBFFDC87E0D6
:100CA000C816D104C9F4E12CF12C8701A8019701E1
:100CB000C801B70110C0E12CF12C00E81FEB20E0C7
:100CC00030E0A90184E0C816D10409F09CCF60E0AF
:100CD00070E080E89FE3E2DCC5DB4BCFE5E2F2E0C9
:100CE0001382128288EE93E0A0E0B0E084839583C3
:100CF000A683B78384E092E09183808385EC90E0C3
:100D00009587848784EC90E09787868780EC90E0D5
:100D1000918B808B81EC90E0938B828B82EC90E0C6
:100D2000958B848B86EC90E0978B868B118E128E40
:100D3000138E148E089503D008F481E00895990F5E
:100D40000008550FAA0BE0E8FEEF16161706E80795
:100D5000F907C0F012161306E407F50798F0621BB6
:100D6000730B840B950B39F40A2661F0232B242B8B
:100D7000252B21F408950A2609F4A140A6958FEFAA
:100D8000811D811D0895A1E21A2EAA1BBB1BFD0126
:100D90000DC0AA1FBB1FEE1FFF1FA217B307E4075A
:100DA000F50720F0A21BB30BE40BF50B661F771FB2
:100DB000881F991F1A9469F7609570958095909592
:100DC0009B01AC01BD01CF010895EE0FFF1F881FED
:0E0DD0008BBF0790F691E02D1994F894FFCF99
:100DDE0000000000C70132015F01130290016E0195
:060DEE0082010D0A000065
:00000001FF
