:10000000F4C0000011C100000FC100000DC10000CC
:100010000BC1000009C1000007C1000005C10000BC
:1000200003C1000001C10000FFC00000FDC00000CE
:10003000FBC00000F9C00000F7C00000F5C00000E0
:10004000F3C00000F1C00000EFC00000EDC00000F0
:10005000EBC00000E9C00000E7C0000008C30000DA
:10006000E3C00000E1C00000DFC00000DDC0000010
:10007000DBC00000D9C00000D7C00000D5C0000020
:10008000D3C00000D1C00000CFC00000CDC0000030
:10009000CBC00000C9C00000C7C00000C5C0000040
:1000A000C3C00000C1C00000BFC00000BDC0000050
:1000B000BBC00000B9C00000B7C00000B5C0000060
:1000C000B3C00000B1C00000AFC00000ADC0000070
:1000D000ABC00000A9C00000A7C00000A5C0000080
:1000E000A3C0000000002100240027002A002D00EA
:1000F0003000330001010000040107010A01000083
:100100002200250028002B002E00310034000201BF
:100110000000050108010B01050505050705080894
:100120000808020202020A0A080804040404010181
:100130000101010101010303030303030303040796
:1001400007070C0C0C0C0C0C0C0C0202020206062D
:100150000606060606060B0B0B0B0B0B0B0B010220
:1001600010202008081020401020408002010201C9
:100170000804020101020408102040808040201081
:1001800008040201800402018040201008040201DA
:100190000804020101020408102040800102040842
:1001A0001020408000000A0B02090C0D0E08070306
:1001B000040100000000000000000000000000003A
:1001C000000000000000000000000000000000002F
:1001D00012111000000000000000000000000000EC
:1001E0000000000000000000000011241FBECFEF3F
:1001F000D1E2DEBFCDBF00E00CBF12E0A0E0B2E074
:10020000E8E9F9E000E00BBF02C007900D92A436C8
:10021000B107D9F722E0A4E6B2E001C01D92AD36E5
:10022000B207E1F76ED2B6C3EBCE282F30E0F9016A
:10023000EC55FE4F9491F901E25AFE4F4491285E2D
:100240003E4FF9012491222309F434C0992309F186
:1002500091509231F0F4E92FF0E08827EE5CFE4FE8
:100260008F4F77C36301670144015B015F0149015F
:100270006A01700174017A017E01820188018C019A
:100280004901900196019A01809180008F778093B7
:100290008000E22FF0E0EE0FFF1FE250FF4FA5912C
:1002A000B4918FB7F894EC91611148C040954E23FA
:1002B0004C938FBF0895809180008F7DE8CF80910F
:1002C0008000877FE4CF84B58F7784BDE2CF84B58B
:1002D0008F7DFBCF8091B0008F778093B000D9CF16
:1002E0008091B0008F7DF9CF809190008F778093BF
:1002F0009000CFCF809190008F7DF9CF80919000BA
:10030000877FF5CF8091A0008F778093A000C1CF29
:100310008091A0008F7DF9CF8091A000877FF5CFDD
:10032000809120018F7780932001B3CF80912001AD
:100330008F7DF9CF80912001877FF5CF4E2BB8CFED
:10034000CF93DF9390E0FC01E25AFE4F2491885E48
:100350009E4FFC0184918823D1F090E0880F991F73
:10036000FC01EC51FF4FA591B491FC01E250FF4F0D
:10037000C591D49161110EC09FB7F8948C91E22F72
:10038000E0958E238C932881E223E8839FBFDF9141
:10039000CF9108958FB7F894EC91E22BEC938FBF37
:1003A000F6CFCF92DF92EF92FF920F931F93CF93EE
:1003B0008C016A017B01DB01CA010197A109B10926
:1003C00080389448AE41B10508F045C0AB019601B4
:1003D0006EEF7FEF81E090E08BD29B01AC0160E09B
:1003E00074E284EF90E093D2C0E0EC2FF0E0EE0FE7
:1003F000FF1FE85AFD4F80819181CF5F82179307DD
:10040000A0F3A7019601220F331F441F551FEC2FA5
:10041000F0E0EE0FFF1FE85AFD4FA081B181A1D29D
:100420009B01AC0160E074E284EF90E070D2F801CF
:10043000EA57FF4F3183208335978081887FC770CB
:10044000C82BC08381E0CF911F910F91FF90EF9057
:10045000DF90CF90089580E0F6CF9C01FC01E0583A
:10046000FF4F80818C7F808331969081977E906151
:10047000908344EF51E060E070E0C90192CF8F9229
:100480009F92AF92BF92CF92DF92EF92FF920F9323
:100490001F93CF936B017C01AEEFB1E0AC019B01E8
:1004A00060D29B01AC0160E074E284EF90E02FD257
:1004B000C901C0E0CC0CDD1CEE1CFF1C812C44E209
:1004C000942E44EFA42EB12CCF5FEC2FF0E0EE0F72
:1004D000FF1FE85BFD4F0081118108171907A0F38A
:1004E000D801A70196013DD29B01AC01C501B40121
:1004F0000ED2C8012F3F310509F030F72093B30029
:100500008091B100887FC770C82BC093B10081E093
:10051000CF911F910F91FF90EF90DF90CF90BF9000
:10052000AF909F908F900895E82F880FFF0BEC55A8
:10053000FE4FE4918DEF8E0F823018F490E080E052
:1005400030CFE83069F4DB01CA014F97A109B10946
:1005500082369448AE41B105B8F4CB01BA018FCFD1
:1005600087EF8E0F833018F480E190E0E9CF84EFBD
:100570008E0F833018F480E290E0E2CFE051E33058
:1005800018F480EA90E0DCCF80E008950F931F9389
:10059000CF93DF93C82F61E0D3DEEC2FF0E0EC5572
:1005A000FE4FE49184E0E89FF0011124DF01AF5F8A
:1005B000BD4F8C91869511969C91292F27952227C6
:1005C0002795022F082B91FB112710F90115110512
:1005D000E1F19F012E5F3D4FD9018C918695869563
:1005E00011969C91292F2295220F220F207CA22F59
:1005F000A82B92FBBB27B0F9CF018D5F9D4FEC017B
:100600004881842F8695869586958F7021E030E00D
:1006100001C0220F8A95EAF7E050FE4F8081518198
:10062000952F91703C91232B2C9347FF13C0FC0115
:100630006081718190E080E02FEF30E040E050E099
:1006400066D1D80111963C932E93DF91CF911F91E3
:100650000F910895EC01688170E090E080E02FEF49
:1006600030E040E050E053D1F8012083EECF1F92FC
:100670000F920FB60F9211242F933F938F939F9356
:10068000AF93BF938091690290916A02A0916B022F
:10069000B0916C023091680223E0230F2D3758F59A
:1006A0000196A11DB11D2093680280936902909369
:1006B0006A02A0936B02B0936C02809164029091E5
:1006C0006502A0916602B09167020196A11DB11D5D
:1006D0008093640290936502A0936602B0936702D0
:1006E000BF91AF919F918F913F912F910F900FBE2E
:1006F0000F901F90189526E8230F0296A11DB11D9B
:10070000D2CF789484B5826084BD84B5816084BD85
:1007100085B5826085BD85B5816085BD80916E009F
:10072000816080936E0010928100809181008260D0
:10073000809381008091810081608093810080910D
:1007400080008160809380008091B10084608093FC
:10075000B1008091B00081608093B00080919100E1
:1007600082608093910080919100816080939100DC
:10077000809190008160809390008091A1008260C0
:100780008093A1008091A10081608093A10080915D
:10079000A00081608093A0008091210182608093FD
:1007A00021018091210181608093210180912001AC
:1007B00081608093200180917A00846080937A0028
:1007C00080917A00826080937A0080917A008160C3
:1007D00080937A0080917A00806880937A001092EA
:1007E000C10090E080E039DE8091B0008C7F8160B4
:1007F0008093B0008091B10088608093B10064EF75
:1008000071E080E090E03BDE80E190E026DE80E277
:1008100090E023DE80EA90E020DE40E157E260E0F5
:1008200070E086E081DE40E157E260E070E087E062
:100830007BDE40E157E260E070E088E075DE40E199
:1008400057E260E070E089E06FDE40E157E260E08F
:1008500070E08AE069DE40E157E260E070E08BE042
:1008600063DE40E157E260E070E08CE05DDE40E195
:1008700057E260E070E08DE057DE40E157E260E073
:1008800070E08EE051DE40E157E260E070E08FE022
:100890004BDE40E157E260E070E080E145DE61E080
:1008A00082E04EDD60E084E04BDD61E085E048DD24
:1008B00060E082E0BADC60E085E0B7DCC0E0D0E078
:1008C00060E082E0B2DC86E061DE87E05FDE88E047
:1008D0005DDE89E05BDE8AE059DE8BE057DE8CE08E
:1008E00055DE8DE053DE209759F30E940000E8CFDB
:1008F000DB018F939F9335D0BF91AF91A29F800D65
:10090000911DA39F900DB29F900D11240895A1E217
:100910001A2EAA1BBB1BFD010DC0AA1FBB1FEE1F79
:10092000FF1FA217B307E407F50720F0A21BB30BC4
:10093000E40BF50B661F771F881F991F1A9469F740
:1009400060957095809590959B01AC01BD01CF019C
:100950000895EE0FFF1F881F8BBF0790F691E02DC3
:10096000199409D0A59F900DB49F900DA49F800D60
:10097000911D11240895A29FB001B39FC001A39FB0
:10098000700D811D1124911DB29F700D811D1124C8
:08099000911D0895F894FFCFBA
:10099800000000000000000047901029861001BAEE
:1009A800861401AA0000000000000000B368C12AF4
:1009B800963041BA963441AA9638419AA65081BADF
:1009C800A65481AAA658819A00000000265182BC2C
:1009D800265582AC2659829C0000010008002000A0
:1009E80040008000000100040000010008004000F1
:0409F80000010004F6
:00000001FF
