:1000000002C10000FCC50000CFC50000A2C5000071
:1000100075C5000048C500001BC50000EEC4000007
:10002000C1C4000020C100001EC100001CC10000AE
:100030001AC1000018C1000016C1000014C1000060
:1000400012C1000010C100000EC100000CC1000070
:100050000AC1000008C1000006C1000059C4000028
:1000600002C100001FC40000F4C30000FCC0000077
:10007000FAC00000F8C00000F6C00000F4C00000A4
:10008000F2C00000F0C00000EEC00000ECC00000B4
:10009000EAC00000E8C00000E6C00000E4C00000C4
:1000A000E2C00000E0C00000DEC00000DCC00000D4
:1000B000DAC00000D8C00000D6C00000D4C00000E4
:1000C000D2C00000D0C00000CEC00000CCC00000F4
:1000D000CAC00000C8C00000C6C00000C4C0000004
:1000E000C2C0000000002100240027002A002D00CB
:1000F0003000330001010000040107010A01000083
:100100002200250028002B002E00310034000201BF
:100110000000050108010B0100002000230026005B
:1001200029002C002F00320000010000030106010D
:10013000090105050505070508080808020202026D
:100140000A0A080804040404010101010101010173
:100150000303030303030303040707070C0C0C0C3E
:100160000C0C0C0C02020202060606060606060627
:100170000B0B0B0B0B0B0B0B0102102020080810B4
:100180002040102040800201020108040201010207
:1001900004081020408080402010080402018004E0
:1001A000020180402010080402010804020101023B
:1001B0000408102040800102040810204080000044
:1001C0000A0B02090C0D0E080703040100000000D1
:1001D000000000000000000000000000000000001F
:1001E00000000000000000000000121110000000DC
:1001F00000000000000000000000000000000000FF
:10020000000000002A0611241FBECFEFD1E2DEBF9E
:10021000CDBF00E00CBF12E0A0E0B2E0ECEBF8E1F3
:1002200000E00BBF02C007900D92A233B107D9F7CF
:1002300022E0A2E3B2E001C01D92AC3FB207E1F7B9
:1002400011E0C3E0D1E000E006C021970109802F52
:10025000FE010E94540CC230D10780E00807A9F7C4
:1002600032D50C945C0CCCCEE82FF0E0DF01AA0F65
:10027000BB1FA050BE4F11967C936E93883008F040
:100280004DC08827E95BFE4F8F4F0C94540C6F01D3
:1002900077014F0157015F0167017F01870180915D
:1002A00069008C7F816080936900E89A089580914D
:1002B0006900837F846080936900E99A0895809142
:1002C00069008F7C806180936900EA9A089580912B
:1002D00069008F73806480936900EB9A0895809120
:1002E0006A008C7F816080936A00EC9A0895809107
:1002F0006A00837F846080936A00ED9A08958091FC
:100300006A008F7C806180936A00EE9A08958091E4
:100310006A008F73806480936A00EF9A089581E089
:1003200090E02091590230915A02232B11F090E075
:1003300080E090935A0280935902089581E090E002
:100340002091570230915802232B11F090E080E069
:100350009093580280935702089581E090E0209195
:10036000550230915602232B11F090E080E09093DB
:100370005602809355020895AF92BF92CF92DF92BA
:10038000EF92FF920F931F93CF93DF936C017B014A
:100390008B01040F151FEB015E01AE18BF08C017DB
:1003A000D10759F06991D601ED91FC910190F0814E
:1003B000E02DC6011995892B79F7C501DF91CF9101
:1003C0001F910F91FF90EF90DF90CF90BF90AF9073
:1003D0000895FC01538D448D252F30E0842F90E04B
:1003E000821B930B541710F0CF9608950197089530
:1003F000FC01918D828D981761F0A28DAE0FBF2FF9
:10040000B11D5D968C91928D9F5F9F73928F90E04E
:1004100008958FEF9FEF0895FC01918D828D9817BD
:1004200031F0828DE80FF11D858D90E008958FEFFA
:100430009FEF0895FC01918D228D892F90E0805CC3
:100440009F4F821B91098F73992708958BE592E046
:10045000F1DF21E0892B09F420E0822F0895FC01CF
:10046000A48DA80FB92FB11DA35ABF4F2C91848D15
:1004700090E001968F739927848FA689B7892C9372
:10048000A089B1898C91837080648C93938D848DC5
:10049000981306C00288F389E02D80818F7D8083C8
:1004A0000895EF92FF920F931F93CF93DF93EC0188
:1004B00081E0888F9B8D8C8D98131AC0E889F9890B
:1004C000808185FF15C09FB7F894EE89FF8960830E
:1004D000E889F98980818370806480839FBF81E08F
:1004E00090E0DF91CF911F910F91FF90EF900895D1
:1004F000F62E0B8D10E00F5F1F4F0F731127E02EAC
:100500008C8D8E110BC00FB607FCFACFE889F989E4
:10051000808185FFF5CFCE01A2DFF2CFEB8DEC0F0E
:10052000FD2FF11DE35AFF4FF0829FB7F8940B8F18
:10053000EA89FB8980818062D0CFCF93DF93EC0181
:10054000888D8823B1F0AA89BB89E889F9898C91C3
:1005500085FD03C0808186FD0CC00FB607FCF7CF78
:100560008C9185FFF2CF808185FFEDCFCE0177DFC3
:10057000EACFDF91CF91089580E090E0892B21F0C0
:1005800065DF81110E94000080E090E0892B49F036
:1005900080E090E0892B29F00E94000081110E94E8
:1005A000000080E090E0892B49F080E090E0892B0A
:1005B00029F00E94000081110E94000080E090E07C
:1005C000892B49F080E090E0892B29F00E940000FF
:1005D00081110C94000008958150823108F05AC0B6
:1005E000E82FF0E08827E850FD4F8F4F0C94540C13
:1005F00018031C030A03100314034A031F032503F3
:1006000029032F03330337033D0341034A03450303
:100610004B034F03809180008F7780938000089573
:10062000809180008F7DF9CF80918000877FF5CF0A
:1006300084B58F7784BD089584B58F7DFBCF80917D
:10064000B0008F778093B00008958091B0008F7DC7
:10065000F9CF809190008F778093900008958091DA
:1006600090008F7DF9CF80919000877FF5CF8091AA
:10067000A0008F778093A00008958091A0008F7DC7
:10068000F9CF8091A000877FF5CF809120018F77EF
:10069000809320010895809120018F7DF9CF809172
:1006A0002001877FF5CFCF93DF93282F30E0F9012A
:1006B000E254FE4F8491F901E858FE4FD491F901BC
:1006C000EE5CFE4FC491CC2399F0811185DFEC2FB5
:1006D000F0E0EE0FFF1FE85EFE4FA591B491EC91A4
:1006E000ED2381E090E009F480E0DF91CF9108955F
:1006F00080E090E0FACF1F93CF93DF93282F30E074
:10070000F901E254FE4F8491F901E858FE4FD4916B
:10071000F901EE5CFE4FC491CC23A1F0162F81119C
:100720005BDFEC2FF0E0EE0FFF1FE250FF4FA591D3
:10073000B4918FB7F894EC91111108C0D095DE23D5
:10074000DC938FBFDF91CF911F910895DE2BF8CFFF
:10075000CF93DF9390E0FC01E858FE4F24918E5C2C
:100760009E4FFC0184918823D1F090E0880F991F5F
:10077000FC01EC51FF4FA591B491FC01E250FF4FF9
:10078000C591D49161110EC09FB7F8948C91E22F5E
:10079000E0958E238C932881E223E8839FBFDF912D
:1007A000CF9108958FB7F894EC91E22BEC938FBF23
:1007B000F6CF0895FC0101900020E9F73197AF01D1
:1007C000481B590BBC018BE592E0D6CD8F929F92CE
:1007D000AF92BF920F931F93CF93DF93CDB7DEB746
:1007E000A1970FB6F894DEBF0FBECDBF19A242305D
:1007F00008F44AE08E010F5D1F4F842E912CB12C1E
:10080000A12CA50194010E94320CE62FB901CA0166
:10081000EA30ECF4E05DD801EE938D01232B242B1C
:10082000252B79F790E080E0109711F0CD01C2DF21
:10083000A1960FB6F894DEBF0FBECDBFDF91CF916A
:100840001F910F91BF90AF909F908F900895E95C9A
:10085000E2CF1F920F920FB60F9211240BB60F9298
:100860002F933F934F935F936F937F938F939F93B8
:10087000AF93BF93EF93FF938BE592E0F0DDFF9191
:10088000EF91BF91AF919F918F917F916F915F9108
:100890004F913F912F910F900BBE0F900FBE0F9075
:1008A0001F9018951F920F920FB60F9211240BB63E
:1008B0000F922F938F939F93EF93FF93E0916B028F
:1008C000F0916C028081E0917102F091720282FDE0
:1008D0001DC09081809174028F5F8F73209175028B
:1008E000821741F0E0917402F0E0E55AFD4F958FD8
:1008F00080937402FF91EF919F918F912F910F90B0
:100900000BBE0F900FBE0F901F9018958081F2CFF5
:100910001F920F920FB60F9211242F933F938F9334
:100920009F93AF93BF938091370290913802A0912B
:100930003902B0913A023091360223E0230F2D376D
:1009400058F50196A11DB11D209336028093370200
:1009500090933802A0933902B0933A028091320208
:1009600090913302A0913402B09135020196A11DFD
:10097000B11D8093320290933302A0933402B0935E
:100980003502BF91AF919F918F913F912F910F9021
:100990000FBE0F901F90189526E8230F0296A11DF9
:1009A000B11DD2CF1F920F920FB60F9211240BB62A
:1009B0000F922F933F934F935F936F937F938F93F8
:1009C0009F93AF93BF93EF93FF93E0910E02F0914B
:1009D0000F021995FF91EF91BF91AF919F918F9168
:1009E0007F916F915F914F913F912F910F900BBE2F
:1009F0000F900FBE0F901F9018951F920F920FB679
:100A00000F9211240BB60F922F933F934F935F9346
:100A10006F937F938F939F93AF93BF93EF93FF93C6
:100A2000E0910C02F0910D021995FF91EF91BF91A9
:100A3000AF919F918F917F916F915F914F913F9176
:100A40002F910F900BBE0F900FBE0F901F90189517
:100A50001F920F920FB60F9211240BB60F922F9385
:100A60003F934F935F936F937F938F939F93AF9336
:100A7000BF93EF93FF93E0910202F0910302199567
:100A8000FF91EF91BF91AF919F918F917F916F9166
:100A90005F914F913F912F910F900BBE0F900FBE22
:100AA0000F901F9018951F920F920FB60F9211245E
:100AB0000BB60F922F933F934F935F936F937F9358
:100AC0008F939F93AF93BF93EF93FF93E0910002B7
:100AD000F09101021995FF91EF91BF91AF919F9114
:100AE0008F917F916F915F914F913F912F910F90D7
:100AF0000BBE0F900FBE0F901F9018951F920F9274
:100B00000FB60F9211240BB60F922F933F934F9372
:100B10005F936F937F938F939F93AF93BF93EF9365
:100B2000FF93E0910A02F0910B021995FF91EF916A
:100B3000BF91AF919F918F917F916F915F914F91F5
:100B40003F912F910F900BBE0F900FBE0F901F90F3
:100B500018951F920F920FB60F9211240BB60F9299
:100B60002F933F934F935F936F937F938F939F93B5
:100B7000AF93BF93EF93FF93E0910802F0910902C6
:100B80001995FF91EF91BF91AF919F918F917F91B7
:100B90006F915F914F913F912F910F900BBE0F90EE
:100BA0000FBE0F901F9018951F920F920FB60F92C5
:100BB00011240BB60F922F933F934F935F936F9334
:100BC0007F938F939F93AF93BF93EF93FF93E091A6
:100BD0000602F09107021995FF91EF91BF91AF9135
:100BE0009F918F917F916F915F914F913F912F9145
:100BF0000F900BBE0F900FBE0F901F9018951F9275
:100C00000F920FB60F9211240BB60F922F933F93B2
:100C10004F935F936F937F938F939F93AF93BF9304
:100C2000EF93FF93E0910402F09105021995FF9173
:100C3000EF91BF91AF919F918F917F916F915F9154
:100C40004F913F912F910F900BBE0F900FBE0F90C1
:100C50001F901895EBE5F2E01382128288EE93E084
:100C6000A0E0B0E084839583A683B78384E192E01B
:100C70009183808385EC90E09587848784EC90E075
:100C80009787868780EC90E0918B808B81EC90E059
:100C9000938B828B82EC90E0958B848B86EC90E03A
:100CA000978B868B118E128E138E148E82E99AE0AA
:100CB000A6E0BFE38093F8029093F902A093FA02B2
:100CC000B093FB020895789484B5826084BD84B5A6
:100CD000816084BD85B5826085BD85B5816085BD37
:100CE00080916E00816080936E00109281008091EF
:100CF0008100826080938100809181008160809377
:100D00008100809180008160809380008091B1009B
:100D100084608093B1008091B00081608093B000C6
:100D20008091910082608093910080919100816018
:100D300080939100809190008160809390008091D9
:100D4000A10082608093A1008091A10081608093C6
:100D5000A1008091A00081608093A000809121017A
:100D60008260809321018091210181608093210123
:100D70008091200181608093200180917A008460BD
:100D800080937A0080917A00826080937A008091CB
:100D90007A00816080937A0080917A0080688093E5
:100DA0007A001092C100E0916B02F0916C0282E037
:100DB0008083E0916702F09168021082E0916902FD
:100DC000F0916A028FEC808310927302E0916F02BF
:100DD000F091700286E08083E0916D02F0916E02E6
:100DE000808180618083E0916D02F0916E0280814C
:100DF00088608083E0916D02F0916E02808180684E
:100E00008083E0916D02F0916E0280818F7D8083FE
:100E100061E082E09DDC61E083E09ADC61E084E0F7
:100E200097DC61E085E094DC61E086E091DC61E0E4
:100E300087E08EDC60E082E18BDC60E083E188DCCF
:100E400060E084E185DC82E12EDC83E12CDC84E15E
:100E50002ADC6FE871E085E007DA6EE971E084E092
:100E600003DA6DEA71E083E0FFD960E082E043DC01
:100E700060E083E040DC60E084E03DDC60E085E051
:100E80003ADC60E086E037DC60E087E034DC82E179
:100E90000ADC5C0190935A028093590283E103DCDF
:100EA0006C01909358028093570284E1FCDB7C0133
:100EB00090935602809355026A2D82E01CDC61E01B
:100EC000A114B10409F060E083E015DC6C2D84E02E
:100ED00012DC61E0C114D10409F060E085E00BDCB4
:100EE0006E2D86E008DC61E0E114F10409F060E0B9
:100EF00087E001DC8091530290915402EE0CFF1CBC
:100F0000EE0CFF1CCC0CDD1CCE28DF28AC28BD2845
:100F1000B0925402A09253028A159B0509F446C16F
:100F200080914F0290915002A0915102B0915202D3
:100F300080934B0290934C02A0934D02B0934E02CB
:100F40002FB7F8946091370270913802809139027E
:100F500090913A022FBF69D360934F027093500271
:100F6000809351029093520220914B0230914C0297
:100F700040914D0250914E025BD24B015C01C090FA
:100F8000F802D090F902E090FA02F090FB02209172
:100F90004702309148024091490250914A02C701EC
:100FA000B60147D22B013C012BED3FE049EC50E468
:100FB000EED318160CF446C04092470250924802F5
:100FC0006092490270924A02409047025090480253
:100FD0006090490270904A022BED3FE049EC50E4EA
:100FE000C301B2018AD287FF0FC02BED3FE049EC6D
:100FF00050E4C301B2011DD26093470270934802CE
:101000008093490290934A024090430250904402D8
:101010006090450270904602809153029091540274
:1010200086309105F9F41092430210924402109216
:101030004502109246020497A9F586E39DE8A7EAC7
:10104000B0E428C02BED3FE049EC50E4C301B2010D
:10105000EFD16093470270934802809349029093C6
:101060004A02B2CF8230910569F442E95AE066E85B
:101070007FE3409343025093440260934502709390
:101080004602D9CF8330910509F07FC082E99AE00A
:10109000A6E0B0E48093430290934402A0934502FB
:1010A000B0934602A5019401C701B6012AD26B0193
:1010B0007C01C0923F02D0924002E0924102F09245
:1010C0004202A501940162E97AE086E89FE319D221
:1010D0004B015C0180923B0290923C02A0923D0247
:1010E000B0923E02A30192016091430270914402CA
:1010F00080914502909146029BD12B013C0120E05A
:1011000030E0A901FAD187FD09C022E93AE046E8BA
:1011100050E4C301B2013BD387FD18C0B7FAB094C5
:10112000B7F8B09480923B0290923C02A0923D02AC
:10113000B0923E02F7FAF094F7F8F094C0923F02B2
:10114000D0924002E0924102F092420220EE3EE252
:1011500045E652E460914302709144028091450259
:101160009091460218D36B017C014B015C01AC01EC
:101170009B0174D3882309F4DBC082E292E01ADB7E
:101180008EE292E017DBF8D982CE8130910529F406
:101190008BED9FE0A9E4B0E47DCF8530910509F0A7
:1011A0004ACF82E99AE0A6E8B0E474CF2FB7F8946A
:1011B00060913702709138028091390290913A0221
:1011C0002FBF33D220914F023091500240915102F3
:1011D000509152022DD16B017C0120913F02309140
:1011E00040024091410250914202D5D220914702E3
:1011F000309148024091490250914A021AD14B0164
:101200005C018092470290924802A0924902B092FB
:101210004A0220913B0230913C0240913D025091A4
:101220003E02C701B601B7D2209143023091440279
:101230004091450250914602FCD06B017C01C09266
:101240004302D0924402E0924502F09246022BED16
:101250003FE049EC50E4C501B40199D218167CF482
:101260002BED3FE049EC50E4C501B401E1D06093BF
:101270004702709348028093490290934A028090FB
:10128000470290904802A0904902B0904A022BED8C
:101290003FE049EC50E4C501B4012FD187FF0FC0F6
:1012A0002BED3FE049EC50E4C501B401C2D060939E
:1012B0004702709348028093490290934A022BEDB3
:1012C0003FE049EC50E4C701B60161D218167CF446
:1012D0002BED3FE049EC50E4C701B601A9D0609383
:1012E0004302709344028093450290934602C0905B
:1012F0004302D0904402E0904502F09046022BED6C
:101300003FE049EC50E4C701B601F7D087FF1ECF9C
:101310002BED3FE049EC50E4C701B6018AD0609361
:1013200043027093440280934502909346020ECF8D
:1013300026013701E89477F82FEF3FEF4FE75FE79B
:10134000C301B2018BD281110CC02FEF3FEF4FE7E9
:101350005FE7C301B201D1D018161CF486E292E017
:101360000ECF2FEF3FEF4FE75FE4C701B6010FD27B
:1013700018161CF48AE292E002CF2FEF3FEF4FE7FE
:101380005FECC701B601B9D087FDF4CF20E030E0B3
:10139000A901C701B601B1D087FF0AC06DE28BE594
:1013A00092E07FD846015701B7FAB094B7F8B094ED
:1013B0002AE037ED43EA5BE3C501B4013AD04B01C3
:1013C0005C0107D16B017C0130D19B01AC01C501EF
:1013D000B4012ED04B015C014AE0C701B601F6D939
:1013E0006EE28BE592E05DD820E030E040E251E42F
:1013F000C501B401D0D14B015C01EBD06B01F12CE4
:10140000E12C4AE0C701B601E1D9C701B6010DD10F
:101410009B01AC01C501B4010BD020E030E040E2FB
:1014200051E4B9D1D6D090E080E04AE0CFD9A8CE3F
:101430005058BB27AA270ED070C161D130F066D1B9
:1014400020F031F49F3F11F41EF456C10EF4E095E4
:10145000E7FB4CC1E92F72D180F3BA17620773071B
:101460008407950718F071F49EF58AC10EF4E09593
:101470000B2EBA2FA02D0B01B90190010C01CA014E
:10148000A0011124FF27591B99F0593F50F4503EF9
:1014900068F11A16F040A22F232F342F4427585FEB
:1014A000F3CF469537952795A795F0405395C9F703
:1014B0007EF41F16BA0B620B730B840BBAF09150BB
:1014C000A1F0FF0FBB1F661F771F881FC2F70EC05A
:1014D000BA0F621F731F841F48F48795779567952D
:1014E000B795F7959E3F08F0B3CF9395880F08F016
:1014F0009927EE0F979587950895D4D008F481E049
:1015000008950CD00AC102D140F0F9D030F021F496
:101510005F3F19F0EBC0511134C1EEC00FD198F309
:101520009923C9F35523B1F3951B550BBB27AA2764
:1015300062177307840738F09F5F5F4F220F331FD6
:10154000441FAA1FA9F333D00E2E3AF0E0E830D0A2
:1015500091505040E695001CCAF729D0FE2F27D0A5
:10156000660F771F881FBB1F261737074807AB0773
:10157000B0E809F0BB0B802DBF01FF2793585F4FE8
:101580002AF09E3F510568F0B1C0FBC05F3FECF30D
:10159000983EDCF3869577956795B795F7959F5FAD
:1015A000C9F7880F911D9695879597F90895E1E001
:1015B000660F771F881FBB1F621773078407BA0760
:1015C00020F0621B730B840BBA0BEE1F88F7E095BB
:1015D0000895BCD088F09F5790F0B92F9927B75144
:1015E000A0F0D1F0660F771F881F991F1AF0BA95E7
:1015F000C9F712C0B13081F0C3D0B1E00895C0C0C6
:10160000672F782F8827B85F39F0B93FCCF38695DC
:1016100077956795B395D9F73EF490958095709539
:1016200061957F4F8F4F9F4F0895E89409C097FBB6
:101630003EF490958095709561957F4F8F4F9F4FA9
:101640009923A9F0F92F96E9BB279395F6958795ED
:1016500077956795B795F111F8CFFAF4BB0F11F4B0
:1016600060FF1BC06F5F7F4F8F4F9F4F16C0882357
:1016700011F096E911C0772321F09EE8872F762F8D
:1016800005C0662371F096E8862F70E060E02AF0CE
:101690009A95660F771F881FDAF7880F96958795BA
:1016A00097F90895990F0008550FAA0BE0E8FEEF8F
:1016B00016161706E807F907C0F012161306E40716
:1016C000F50798F0621B730B840B950B39F40A260F
:1016D00061F0232B242B252B21F408950A2609F4ED
:1016E000A140A6958FEF811D811D089597F99F67F1
:1016F00080E870E060E008959FEF80EC089500249A
:101700000A941616170618060906089500240A9466
:1017100012161306140605060895092E0394000CEC
:1017200011F4882352F0BB0F40F4BF2B11F460FF7B
:1017300004C06F5F7F4F8F4F9F4F089557FD9058A4
:10174000440F551F59F05F3F71F04795880F97FB85
:10175000991F61F09F3F79F087950895121613063F
:101760001406551FF2CF4695F1DF08C0161617066E
:101770001806991FF1CF86957105610508940895A3
:10178000E894BB2766277727CB0197F908958ADF6E
:1017900008F48FEF08950BD0C0CFB1DF28F0B6DF8B
:1017A00018F0952309F0A2CFA7CF1124EACFC6DF06
:1017B000A0F3959FD1F3950F50E0551F629FF00164
:1017C000729FBB27F00DB11D639FAA27F00DB11DBD
:1017D000AA1F649F6627B00DA11D661F829F222746
:1017E000B00DA11D621F739FB00DA11D621F839FCD
:1017F000A00D611D221F749F3327A00D611D231FA3
:10180000849F600D211D822F762F6A2F11249F57F0
:1018100050408AF0E1F088234AF0EE0FFF1FBB1F13
:10182000661F771F881F91505040A9F79E3F5105B2
:1018300070F05CCFA6CF5F3FECF3983EDCF386956B
:1018400077956795B795F795E7959F5FC1F7FE2B5D
:10185000880F911D9695879597F9089523DF880B3A
:10186000990B0895A1E21A2EAA1BBB1BFD010DC006
:10187000AA1FBB1FEE1FFF1FA217B307E407F50740
:1018800020F0A21BB30BE40BF50B661F771F881F1C
:10189000991F1A9469F760957095809590959B01B2
:1018A000AC01BD01CF010895EE0FFF1F881F8BBF54
:0C18B0000790F691E02D1994F894FFCFFA
:1018BC00D903D903D903D903D903D903D903D9033C
:1018CC00000000005102BC01E9019D021A02F8015E
:1018DC000C026E616E00696E66006F7666000D0A12
:0218EC000000FA
:00000001FF
