:1000000002C100002EC100002CC100002AC1000066
:1000100028C1000026C1000024C1000022C1000048
:1000200020C100001EC100001CC100001AC1000058
:1000300018C1000016C1000014C1000012C1000068
:1000400010C100000EC100000CC100000AC1000078
:1000500008C1000006C1000004C10000FAC300008E
:1000600000C10000C0C3000095C30000FAC000003A
:10007000F8C00000F6C00000F4C00000F2C00000AC
:10008000F0C00000EEC00000ECC00000EAC00000BC
:10009000E8C00000E6C00000E4C00000E2C00000CC
:1000A000E0C00000DEC00000DCC00000DAC00000DC
:1000B000D8C00000D6C00000D4C00000D2C00000EC
:1000C000D0C00000CEC00000CCC00000CAC00000FC
:1000D000C8C00000C6C00000C4C00000C2C000000C
:1000E000C0C0000000002100240027002A002D00CD
:1000F0003000330001010000040107010A01000083
:100100002200250028002B002E00310034000201BF
:100110000000050108010B0100002000230026005B
:1001200029002C002F00320000010000030106010D
:10013000090105050505070508080808020202026D
:100140000A0A080804040404010101010101010173
:100150000303030303030303040707070C0C0C0C3E
:100160000C0C0C0C02020202060606060606060627
:100170000B0B0B0B0B0B0B0B0102102020080810B4
:100180002040102040800201020108040201010207
:1001900004081020408080402010080402018004E0
:1001A000020180402010080402010804020101023B
:1001B0000408102040800102040810204080000044
:1001C0000A0B02090C0D0E080703040100000000D1
:1001D000000000000000000000000000000000001F
:1001E00000000000000000000000121110000000DC
:1001F00000000000000000000000000000000000FF
:1002000000000000770611241FBECFEFD1E2DEBF51
:10021000CDBF00E00CBF12E0A0E0B2E0E0EAFDE0FC
:1002200000E00BBF02C007900D92A631B107D9F7CD
:1002300022E0A6E1B2E001C01D92AE3CB207E1F7B8
:1002400011E0C3E0D1E000E005C021970109802F53
:10025000FE019CD5C230D10780E00807B1F743D337
:100260009DC5CECEAF92BF92CF92DF92EF92FF921A
:100270000F931F93CF93DF936C017B018B01040FCE
:10028000151FEB015E01AE18BF08C017D10759F06A
:100290006991D601ED91FC910190F081E02DC601AC
:1002A0001995892B79F7C501DF91CF911F910F9196
:1002B000FF90EF90DF90CF90BF90AF900895FC013A
:1002C000538D448D252F30E0842F90E0821B930BBB
:1002D000541710F0CF96089501970895FC01918D61
:1002E000828D981761F0A28DAE0FBF2FB11D5D9664
:1002F0008C91928D9F5F9F73928F90E008958FEF06
:100300009FEF0895FC01918D828D981731F0828DB9
:10031000E80FF11D858D90E008958FEF9FEF089510
:10032000FC01918D228D892F90E0805C9F4F821B74
:1003300091098F739927089581E392E0F1DF21E01D
:10034000892B09F420E0822F0895FC01A48DA80FC9
:10035000B92FB11DA35ABF4F2C91848D90E0019607
:100360008F739927848FA689B7892C93A089B18927
:100370008C91837080648C93938D848D981306C0C8
:100380000288F389E02D80818F7D80830895EF922C
:10039000FF920F931F93CF93DF93EC0181E0888F3F
:1003A0009B8D8C8D98131AC0E889F989808185FF0F
:1003B00015C09FB7F894EE89FF896083E889F989B1
:1003C00080818370806480839FBF81E090E0DF91B3
:1003D000CF911F910F91FF90EF900895F62E0B8D06
:1003E00010E00F5F1F4F0F731127E02E8C8D8E11C1
:1003F0000BC00FB607FCFACFE889F989808185FF29
:10040000F5CFCE01A2DFF2CFEB8DEC0FFD2FF11D6A
:10041000E35AFF4FF0829FB7F8940B8FEA89FB896C
:1004200080818062D0CFCF93DF93EC01888D8823C9
:10043000B1F0AA89BB89E889F9898C9185FD03C04F
:10044000808186FD0CC00FB607FCF7CF8C9185FF2D
:10045000F2CF808185FFEDCFCE0177DFEACFDF914C
:10046000CF91089580E090E0892B21F065DF811124
:100470000E94000080E090E0892B49F080E090E04D
:10048000892B29F00E94000081110E94000080E069
:1004900090E0892B49F080E090E0892B29F00E94C0
:1004A000000081110E94000080E090E0892B49F05B
:1004B00080E090E0892B29F00E94000081110C94CB
:1004C000000008958150823108F059C0E82FF0E013
:1004D0008827E359FD4F8F4F59C48D0291027F0247
:1004E00085028902BF0294029A029E02A402A80217
:1004F000AC02B202B602BF02BA02C002C4028091CC
:1005000080008F77809380000895809180008F7D98
:10051000F9CF80918000877FF5CF84B58F7784BD38
:10052000089584B58F7DFBCF8091B0008F77809345
:10053000B00008958091B0008F7DF9CF8091900038
:100540008F77809390000895809190008F7DF9CFF0
:1005500080919000877FF5CF8091A0008F77809366
:10056000A00008958091A0008F7DF9CF8091A00018
:10057000877FF5CF809120018F77809320010895A8
:10058000809120018F7DF9CF80912001877FF5CF69
:10059000CF93DF93282F30E0F901E254FE4F84918E
:1005A000F901E858FE4FD491F901EE5CFE4FC49179
:1005B000CC2399F0811186DFEC2FF0E0EE0FFF1FC6
:1005C000E85EFE4FA591B491EC91ED2381E090E0BF
:1005D00009F480E0DF91CF91089580E090E0FACFB8
:1005E0001F93CF93DF93282F30E0F901E254FE4FA1
:1005F0008491F901E858FE4FD491F901EE5CFE4F69
:10060000C491CC23A1F0162F81115CDFEC2FF0E018
:10061000EE0FFF1FE250FF4FA591B4918FB7F894F2
:10062000EC91111108C0D095DE23DC938FBFDF91D0
:10063000CF911F910895DE2BF8CFCF93DF9390E0F9
:10064000FC01E858FE4F24918E5C9E4FFC01849182
:100650008823D1F090E0880F991FFC01EC51FF4FE7
:10066000A591B491FC01E250FF4FC591D491611165
:100670000EC09FB7F8948C91E22FE0958E238C9357
:100680002881E223E8839FBFDF91CF9108958FB740
:10069000F894EC91E22BEC938FBFF6CF823091056A
:1006A00038F0880F991F880F991F05970197F1F768
:1006B00008953FB7F89480911B0290911C02A0917D
:1006C0001D02B0911E0226B5A89B05C02F3F19F050
:1006D0000196A11DB11D3FBFBA2FA92F982F8827C2
:1006E000BC01CD01620F711D811D911D42E0660F9D
:1006F000771F881F991F4A95D1F708958F929F926F
:10070000AF92BF920F931F93CF93DF93CDB7DEB716
:10071000A1970FB6F894DEBF0FBECDBF19A242302D
:1007200008F44AE08E010F5D1F4F842E912CB12CEE
:10073000A12CA501940108D3E62FB901CA01EA3022
:100740003CF5E05DD801EE938D01232B242B252B66
:1007500081F790E080E0109761F0FD0101900020AA
:10076000E9F73197AF014A1B5B0BBD0181E392E0D2
:1007700079DDA1960FB6F894DEBF0FBECDBFDF9135
:10078000CF911F910F91BF90AF909F908F90089540
:10079000E95CD8CF1F920F920FB60F9211240BB6BF
:1007A0000F922F933F934F935F936F937F938F930A
:1007B0009F93AF93BF93EF93FF9381E392E0C5DDE7
:1007C000FF91EF91BF91AF919F918F917F916F9129
:1007D0005F914F913F912F910F900BBE0F900FBEE5
:1007E0000F901F9018951F920F920FB60F92112421
:1007F0000BB60F922F938F939F93EF93FF93E091FC
:100800004102F09142028081E0914702F09148025A
:1008100082FD1DC0908180914A028F5F8F7320916D
:100820004B02821741F0E0914A02F0E0EF5CFD4F8D
:10083000958F80934A02FF91EF919F918F912F9115
:100840000F900BBE0F900FBE0F901F9018958081D8
:10085000F2CF1F920F920FB60F9211242F933F9356
:100860008F939F93AF93BF9380911702909118023B
:10087000A0911902B0911A023091160223E0230FC1
:100880002D3758F50196A11DB11D209316028093B6
:10089000170290931802A0931902B0931A02809144
:1008A0001B0290911C02A0911D02B0911E020196A4
:1008B000A11DB11D80931B0290931C02A0931D02E9
:1008C000B0931E02BF91AF919F918F913F912F9155
:1008D0000F900FBE0F901F90189526E8230F0296D9
:1008E000A11DB11DD2CF789484B5826084BD84B53A
:1008F000816084BD85B5826085BD85B5816085BD1B
:1009000080916E00816080936E00109281008091D2
:10091000810082608093810080918100816080935A
:100920008100809180008160809380008091B1007F
:1009300084608093B1008091B00081608093B000AA
:1009400080919100826080939100809191008160FC
:1009500080939100809190008160809390008091BD
:10096000A10082608093A1008091A10081608093AA
:10097000A1008091A00081608093A000809121015E
:100980008260809321018091210181608093210107
:100990008091200181608093200180917A008460A1
:1009A00080937A0080917A00826080937A008091AF
:1009B0007A00816080937A0080917A0080688093C9
:1009C0007A001092C100E0914102F091420282E06F
:1009D0008083E0913D02F0913E021082E0913F025F
:1009E000F09140028FEC808310924902E091450221
:1009F000F091460286E08083E0914302F091440248
:100A0000808180618083E0914302F0914402808183
:100A100088608083E0914302F09144028081806885
:100A20008083E0914302F091440280818F7D808336
:100A300061E082E002DE61E083E0FFDD61E084E00E
:100A4000FCDD61E085E0F9DD61E086E0F6DD61E096
:100A500087E0F3DD60E086E1F0DD60E088E1EDDD78
:100A600060E08AE1EADD86E193DD88E191DD8AE1FB
:100A70008FDD60E082E0B4DD60E083E0B1DD60E066
:100A800084E0AEDD60E085E0ABDD60E086E0A8DD1F
:100A900060E087E0A5DD0DDE6B017C010ADE6C19EC
:100AA0007D098E099F09683E734081059105B0F369
:100AB000C1E0D0E086E16CDD7C0190933002809350
:100AC0002F0288E165DD6C0190932E0280932D0248
:100AD0008AE15EDD880F991F880F991FCC0CDD1C01
:100AE000C82AD92ACE28DF28D0922C02C0922B0205
:100AF0000D2C000CEE08FF084AE0C701B601F7FE16
:100B00000CC06DE281E392E042DC66277727CB01DF
:100B10006C197D098E099F094AE0F0DD42E050E042
:100B200062E172E081E392E09DDB80912B02909183
:100B30002C028130910541F510922A02109229026F
:100B40009093280280932702109226021092250289
:100B50001092240210922302909322028093210289
:100B60001092200210921F02069709F041C0D09304
:100B70002A02C09329021092280210922702109292
:100B80002602109225028DC082309105A9F4D093DF
:100B90002A02C09329021092280210922702109272
:100BA000260210922502D0932402C09323021092B1
:100BB000220210922102D4CF8330910509F062C045
:100BC00010922A02109229021092280210922702F3
:100BD0001092260210922502D0932402C093230281
:100BE000D0932202C09321021092200210921F0281
:100BF000D09029026D2D82E0F3DC60E083E0F0DC30
:100C0000E09025026E2D84E0EBDC60E085E0E8DC1E
:100C1000F09021026F2D86E0E3DC60E087E0E0DC0D
:100C20008AEF90E03BDD6D2D82E0DADC60912702F7
:100C300083E0D6DC6E2D84E0D3DC6091230285E076
:100C4000CFDC6F2D86E0CCDC60911F0287E0C8DC32
:100C500084EF91E023DD6D2D82E0C2DC60E083E073
:100C6000BFDC6E2D84E0BCDC60E085E0B9DC6F2D7C
:100C700086E0B6DC60E087E0B3DC8AEF90E00EDD72
:100C8000F1DB18CF84309105C9F410922A0210923A
:100C900029021092280210922702D0932602C093B4
:100CA0002502109224021092230210922202109226
:100CB0002102D0932002C0931F029ACF8530910564
:100CC00009F052CF10922A0210922902D0932802E2
:100CD000C0932702D0932602C093250210922402CB
:100CE0001092230210922202109221027DCFE1E3A2
:100CF000F2E01382128288EE93E0A0E0B0E08483F9
:100D00009583A683B78384E092E09183808385EC0A
:100D100090E09587848784EC90E09787868780ECC5
:100D200090E0918B808B81EC90E0938B828B82ECB6
:100D300090E0958B848B86EC90E0978B868B118E60
:100D4000128E138E148E0895A1E21A2EAA1BBB1BBD
:100D5000FD010DC0AA1FBB1FEE1FFF1FA217B30787
:100D6000E407F50720F0A21BB30BE40BF50B661F9D
:100D7000771F881F991F1A9469F760957095809561
:100D800090959B01AC01BD01CF010895EE0FFF1FAF
:100D9000881F8BBF0790F691E02D1994F894FFCF30
:100DA00000000000C70132015F01130290016E01D3
:060DB00082010D0A0000A3
:00000001FF
