:1000000002C10000F5C50000C8C500009BC5000086
:100010006EC5000041C5000014C50000E7C4000023
:10002000BAC400001EC100001CC100001AC10000BB
:1000300018C1000016C1000014C1000012C1000068
:1000400010C100000EC100000CC100000AC1000078
:1000500008C1000006C1000004C10000F3C3000095
:1000600000C1000062C4000037C40000FAC00000F4
:10007000F8C00000F6C00000F4C00000F2C00000AC
:10008000F0C00000EEC00000ECC00000EAC00000BC
:10009000E8C00000E6C00000E4C00000E2C00000CC
:1000A000E0C00000DEC00000DCC00000DAC00000DC
:1000B000D8C00000D6C00000D4C00000D2C00000EC
:1000C000D0C00000CEC00000CCC00000CAC00000FC
:1000D000C8C00000C6C00000C4C00000C2C000000C
:1000E000C0C0000000002100240027002A002D00CD
:1000F0003000330001010000040107010A01000083
:100100002200250028002B002E00310034000201BF
:100110000000050108010B0100002000230026005B
:1001200029002C002F00320000010000030106010D
:10013000090105050505070508080808020202026D
:100140000A0A080804040404010101010101010173
:100150000303030303030303040707070C0C0C0C3E
:100160000C0C0C0C02020202060606060606060627
:100170000B0B0B0B0B0B0B0B0102102020080810B4
:100180002040102040800201020108040201010207
:1001900004081020408080402010080402018004E0
:1001A000020180402010080402010804020101023B
:1001B0000408102040800102040810204080000044
:1001C0000A0B02090C0D0E080703040100000000D1
:1001D000000000000000000000000000000000001F
:1001E00000000000000000000000121110000000DC
:1001F00000000000000000000000000000000000FF
:10020000000000008A0711241FBECFEFD1E2DEBF3D
:10021000CDBF00E00CBF12E0A0E0B2E0E6ECFFE0F2
:1002200000E00BBF02C007900D92A632B107D9F7CC
:1002300022E0A6E2B2E001C01D92A23DB207E1F7C2
:1002400011E0C3E0D1E000E005C021970109802F53
:10025000FE01AFD6C230D10780E00807B1F7F3D472
:10026000B0C6CECEE82FF0E0DF01AA0FBB1FA05032
:10027000BE4F11967C936E93883008F04CC088274F
:10028000EC5BFE4F8F4F95C66C0174014C0154011D
:100290005C0164017C018401809169008C7F816034
:1002A00080936900E89A089580916900837F846053
:1002B00080936900E99A0895809169008F7C80613C
:1002C00080936900EA9A0895809169008F73806431
:1002D00080936900EB9A089580916A008C7F816019
:1002E00080936A00EC9A089580916A00837F84600D
:1002F00080936A00ED9A089580916A008F7C8061F6
:1003000080936A00EE9A089580916A008F738064EA
:1003100080936A00EF9A089520912A0230912B026F
:1003200081E090E0232B11F090E080E090932B028D
:1003300080932A020895209128023091290281E0B9
:1003400090E0232B11F090E080E0909329028093BD
:1003500028020895209126023091270281E090E042
:10036000232B11F090E080E09093270280932602E7
:100370000895AF92BF92CF92DF92EF92FF920F93C8
:100380001F93CF93DF936C017B018B01040F151F2B
:10039000EB015E01AE18BF08C017D10759F0699193
:1003A000D601ED91FC910190F081E02DC6011995E7
:1003B000892B79F7C501DF91CF911F910F91FF90A4
:1003C000EF90DF90CF90BF90AF900895FC01538DD8
:1003D000448D252F30E0842F90E0821B930B54171F
:1003E00010F0CF96089501970895FC01918D828DAC
:1003F000981761F0A28DAE0FBF2FB11D5D968C9145
:10040000928D9F5F9F73928F90E008958FEF9FEF83
:100410000895FC01918D828D981731F0828DE80F3F
:10042000F11D858D90E008958FEF9FEF0895FC01F9
:10043000918D228D892F90E0805C9F4F821B9109C6
:100440008F739927089585E392E0F1DF21E0892BEE
:1004500009F420E0822F0895FC01A48DA80FB92F84
:10046000B11DA35ABF4F2C91848D90E001968F73DC
:100470009927848FA689B7892C93A089B1898C91FB
:10048000837080648C93938D848D981306C002884A
:10049000F389E02D80818F7D80830895EF92FF9214
:1004A0000F931F93CF93DF93EC0181E0888F9B8D97
:1004B0008C8D98131AC0E889F989808185FF15C051
:1004C0009FB7F894EE89FF896083E889F989808174
:1004D0008370806480839FBF81E090E0DF91CF9143
:1004E0001F910F91FF90EF900895F62E0B8D10E065
:1004F0000F5F1F4F0F731127E02E8C8D8E110BC0D5
:100500000FB607FCFACFE889F989808185FFF5CF1E
:10051000CE01A2DFF2CFEB8DEC0FFD2FF11DE35AE0
:10052000FF4FF0829FB7F8940B8FEA89FB89808197
:100530008062D0CFCF93DF93EC01888D8823B1F018
:10054000AA89BB89E889F9898C9185FD03C08081DE
:1005500086FD0CC00FB607FCF7CF8C9185FFF2CF5C
:10056000808185FFEDCFCE0177DFEACFDF91CF919C
:10057000089580E090E0892B21F065DF81110E94D1
:10058000000080E090E0892B49F080E090E0892B2A
:1005900029F00E94000081110E94000080E090E09C
:1005A000892B49F080E090E0892B29F00E9400001F
:1005B00081110E94000080E090E0892B49F080E0EA
:1005C00090E0892B29F00E94000081110C9400001A
:1005D00008958150823108F059C0E82FF0E0882753
:1005E000EC50FD4F8F4FE5C41403180306030C03B2
:1005F000100346031B03210325032B032F0333039F
:1006000039033D034603410347034B0380918000B8
:100610008F77809380000895809180008F7DF9CF3F
:1006200080918000877FF5CF84B58F7784BD089552
:1006300084B58F7DFBCF8091B0008F778093B00021
:1006400008958091B0008F7DF9CF809190008F77D1
:10065000809390000895809190008F7DF9CF8091D4
:100660009000877FF5CF8091A0008F778093A000C6
:1006700008958091A0008F7DF9CF8091A000877FA1
:10068000F5CF809120018F7780932001089580918C
:1006900020018F7DF9CF80912001877FF5CFCF9307
:1006A000DF93282F30E0F901E254FE4F8491F901E5
:1006B000E858FE4FD491F901EE5CFE4FC491CC2373
:1006C00099F0811186DFEC2FF0E0EE0FFF1FE85E5E
:1006D000FE4FA591B491EC91ED2381E090E009F4F7
:1006E00080E0DF91CF91089580E090E0FACF1F93F2
:1006F000CF93DF93282F30E0F901E254FE4F84912D
:10070000F901E858FE4FD491F901EE5CFE4FC49117
:10071000CC23A1F0162F81115CDFEC2FF0E0EE0F5F
:10072000FF1FE250FF4FA591B4918FB7F894EC9161
:10073000111108C0D095DE23DC938FBFDF91CF91DC
:100740001F910895DE2BF8CFCF93DF9390E0FC014B
:10075000E858FE4F24918E5C9E4FFC0184918823C3
:10076000D1F090E0880F991FFC01EC51FF4FA5914B
:10077000B491FC01E250FF4FC591D49161110EC0BC
:100780009FB7F8948C91E22FE0958E238C9328816B
:10079000E223E8839FBFDF91CF9108958FB7F8944C
:1007A000EC91E22BEC938FBFF6CF08958F929F923E
:1007B000AF92BF920F931F93CF93DF93CDB7DEB766
:1007C000A1970FB6F894DEBF0FBECDBF19A242307D
:1007D00008F44AE08E010F5D1F4F842E912CB12C3E
:1007E000A12CA5019401C3D3E62FB901CA01EA30B7
:1007F0003CF5E05DD801EE938D01232B242B252BB6
:1008000081F790E080E0109761F0FD0101900020F9
:10081000E9F73197AF014A1B5B0BBD0185E392E01D
:10082000A8DDA1960FB6F894DEBF0FBECDBFDF9155
:10083000CF911F910F91BF90AF909F908F9008958F
:10084000E95CD8CF1F920F920FB60F9211242F930D
:100850003F938F939F93AF93BF9380913102909179
:100860003202A0913302B09134023091300223E081
:10087000230F2D3758F50196A11DB11D209330028D
:100880008093310290933202A0933302B0933402EA
:1008900080912C0290912D02A0912E02B0912F02F6
:1008A0000196A11DB11D80932C0290932D02A0935F
:1008B0002E02B0932F02BF91AF919F918F913F91E4
:1008C0002F910F900FBE0F901F90189526E8230FC1
:1008D0000296A11DB11DD2CF1F920F920FB60F929B
:1008E00011240BB60F922F933F934F935F936F9307
:1008F0007F938F939F93AF93BF93EF93FF9385E382
:1009000092E0AADDFF91EF91BF91AF919F918F91FE
:100910007F916F915F914F913F912F910F900BBEFF
:100920000F900FBE0F901F9018951F920F920FB649
:100930000F9211240BB60F922F938F939F93EF93E7
:10094000FF93E0914502F09146028081E0914B02D5
:10095000F0914C0282FD1DC0908180914E028F5F0C
:100960008F7320914F02821741F0E0914E02F0E028
:10097000EB5CFD4F958F80934E02FF91EF919F911D
:100980008F912F910F900BBE0F900FBE0F901F9065
:1009900018958081F2CF1F920F920FB60F921124FB
:1009A0000BB60F922F933F934F935F936F937F9369
:1009B0008F939F93AF93BF93EF93FF93E0910E02BA
:1009C000F0910F021995FF91EF91BF91AF919F9117
:1009D0008F917F916F915F914F913F912F910F90E8
:1009E0000BBE0F900FBE0F901F9018951F920F9285
:1009F0000FB60F9211240BB60F922F933F934F9384
:100A00005F936F937F938F939F93AF93BF93EF9376
:100A1000FF93E0910C02F0910D021995FF91EF9177
:100A2000BF91AF919F918F917F916F915F914F9106
:100A30003F912F910F900BBE0F900FBE0F901F9004
:100A400018951F920F920FB60F9211240BB60F92AA
:100A50002F933F934F935F936F937F938F939F93C6
:100A6000AF93BF93EF93FF93E0910202F0910302E3
:100A70001995FF91EF91BF91AF919F918F917F91C8
:100A80006F915F914F913F912F910F900BBE0F90FF
:100A90000FBE0F901F9018951F920F920FB60F92D6
:100AA00011240BB60F922F933F934F935F936F9345
:100AB0007F938F939F93AF93BF93EF93FF93E091B7
:100AC0000002F09101021995FF91EF91BF91AF9152
:100AD0009F918F917F916F915F914F913F912F9156
:100AE0000F900BBE0F900FBE0F901F9018951F9286
:100AF0000F920FB60F9211240BB60F922F933F93C4
:100B00004F935F936F937F938F939F93AF93BF9315
:100B1000EF93FF93E0910A02F0910B021995FF9178
:100B2000EF91BF91AF919F918F917F916F915F9165
:100B30004F913F912F910F900BBE0F900FBE0F90D2
:100B40001F9018951F920F920FB60F9211240BB69B
:100B50000F922F933F934F935F936F937F938F9356
:100B60009F93AF93BF93EF93FF93E0910802F091AF
:100B700009021995FF91EF91BF91AF919F918F91CC
:100B80007F916F915F914F913F912F910F900BBE8D
:100B90000F900FBE0F901F9018951F920F920FB6D7
:100BA0000F9211240BB60F922F933F934F935F93A5
:100BB0006F937F938F939F93AF93BF93EF93FF9325
:100BC000E0910602F09107021995FF91EF91BF9114
:100BD000AF919F918F917F916F915F914F913F91D5
:100BE0002F910F900BBE0F900FBE0F901F90189576
:100BF0001F920F920FB60F9211240BB60F922F93E4
:100C00003F934F935F936F937F938F939F93AF9394
:100C1000BF93EF93FF93E0910402F09105021995C1
:100C2000FF91EF91BF91AF919F918F917F916F91C4
:100C30005F914F913F912F910F900BBE0F900FBE80
:100C40000F901F901895789484B5826084BD84B508
:100C5000816084BD85B5826085BD85B5816085BDB7
:100C600080916E00816080936E001092810080916F
:100C700081008260809381008091810081608093F7
:100C80008100809180008160809380008091B1001C
:100C900084608093B1008091B00081608093B00047
:100CA0008091910082608093910080919100816099
:100CB000809391008091900081608093900080915A
:100CC000A10082608093A1008091A1008160809347
:100CD000A1008091A00081608093A00080912101FB
:100CE00082608093210180912101816080932101A4
:100CF0008091200181608093200180917A0084603E
:100D000080937A0080917A00826080937A0080914B
:100D10007A00816080937A0080917A008068809365
:100D20007A001092C100E0914502F091460282E003
:100D30008083E0914102F09142021082E0914302EF
:100D4000F09144028FEC808310924D02E0914902B1
:100D5000F0914A0286E08083E0914702F0914802D8
:100D6000808180618083E0914702F0914802808118
:100D700088608083E0914702F0914802808180681A
:100D80008083E0914702F091480280818F7D8083CB
:100D900061E082E0D9DC61E083E0D6DC61E084E000
:100DA000D3DC61E085E0D0DC61E086E0CDDC61E0B1
:100DB00087E0CADC60E082E1C7DC60E083E1C4DC9C
:100DC00060E084E1C1DC60E082E091DC60E083E02F
:100DD0008EDC60E084E08BDC60E085E088DC60E055
:100DE00086E085DC60E087E082DC82E158DC90937D
:100DF0002B0280932A0283E152DC90932902809394
:100E0000280284E14CDC90932702809326026CE850
:100E100071E085E027DA6BE971E084E023DA6AEAC1
:100E200071E083E01FDA82E13ADC90932B02809339
:100E30002A0283E134DC909329028093280284E122
:100E40002EDC9093270280932602C0902602D09039
:100E50002702809128029091290260912A027091C4
:100E60002B02CC0CDD1CCC0CDD1C880F991FC82A72
:100E7000D92AC62AD72A0D2C000CEE08FF084AE012
:100E8000C701B601F7FE0CC06DE285E392E006DB18
:100E900066277727CB016C197D098E099F094AE0E7
:100EA00085DC42E050E062E272E085E392E061DAE4
:100EB00060912A0270912B0282E019DC80912A0253
:100EC00090912B0261E0892B09F060E083E00FDC58
:100ED000609128027091290284E009DC8091280247
:100EE0009091290261E0892B09F060E085E0FFDB49
:100EF000609126027091270286E0F9DB809126023C
:100F00009091270261E0892B09F060E087E0EFDB38
:100F100030DB89CFE5E3F2E01382128288EE93E0C2
:100F2000A0E0B0E084839583A683B78384E192E058
:100F30009183808385EC90E09587848784EC90E0B2
:100F40009787868780EC90E0918B808B81EC90E096
:100F5000938B828B82EC90E0958B848B86EC90E077
:100F6000978B868B118E128E138E148E0895A1E2AC
:100F70001A2EAA1BBB1BFD010DC0AA1FBB1FEE1F13
:100F8000FF1FA217B307E407F50720F0A21BB30B5E
:100F9000E40BF50B661F771F881F991F1A9469F7DA
:100FA00060957095809590959B01AC01BD01CF0136
:100FB0000895EE0FFF1F881F8BBF0790F691E02D5D
:060FC0001994F894FFCF24
:100FC600D503D503D503D503D503D503D503D5035B
:100FD600000000004E02B901E6019A021702F5016F
:060FE60009020D0A0000E3
:00000001FF
