:1000000001C100001EC100001CC100001AC1000097
:1000100018C1000016C1000014C1000012C1000088
:1000200010C100000EC100000CC100000AC1000098
:1000300008C1000006C1000004C1000002C10000A8
:1000400000C10000FEC00000FCC00000FAC00000BB
:10005000F8C00000F6C00000F4C00000D3C20000E9
:10006000F0C00000EEC00000ECC00000EAC00000DC
:10007000E8C00000E6C00000E4C00000E2C00000EC
:10008000E0C00000DEC00000DCC00000DAC00000FC
:10009000D8C00000D6C00000D4C00000D2C000000C
:1000A000D0C00000CEC00000CCC00000CAC000001C
:1000B000C8C00000C6C00000C4C00000C2C000002C
:1000C000C0C00000BEC00000BCC00000BAC000003C
:1000D000B8C00000B6C00000B4C00000B2C000004C
:1000E000B0C0000000002100240027002A002D00DD
:1000F0003000330001010000040107010A01000083
:100100002200250028002B002E00310034000201BF
:100110000000050108010B0100002000230026005B
:1001200029002C002F00320000010000030106010D
:10013000090105050505070508080808020202026D
:100140000A0A080804040404010101010101010173
:100150000303030303030303040707070C0C0C0C3E
:100160000C0C0C0C02020202060606060606060627
:100170000B0B0B0B0B0B0B0B0102102020080810B4
:100180002040102040800201020108040201010207
:1001900004081020408080402010080402018004E0
:1001A000020180402010080402010804020101023B
:1001B0000408102040800102040810204080000044
:1001C0000A0B02090C0D0E080703040100000000D1
:1001D000000000000000000000000000000000001F
:1001E00000000000000000000000121110000000DC
:1001F00000000000000000000000000000000000FF
:100200000000000011241FBECFEFD1E2DEBFCDBF42
:1002100000E00CBF12E0A0E0B2E0E2E6FAE000E0AD
:100220000BBF02C007900D92A436B107D9F722E0A8
:10023000A4E6B2E001C01D92AD36B207E1F72CD2C0
:100240000EC4DECE8150823108F059C0E82FF0E0B4
:100250008827E35DFE4F8F4FE1C34D0151013F0100
:10026000450149017F0154015A015E0164016801A1
:100270006C01720176017F017A0180018401809115
:1002800080008F77809380000895809180008F7D1B
:10029000F9CF80918000877FF5CF84B58F7784BDBB
:1002A000089584B58F7DFBCF8091B0008F778093C8
:1002B000B00008958091B0008F7DF9CF80919000BB
:1002C0008F77809390000895809190008F7DF9CF73
:1002D00080919000877FF5CF8091A0008F778093E9
:1002E000A00008958091A0008F7DF9CF8091A0009B
:1002F000877FF5CF809120018F778093200108952B
:10030000809120018F7DF9CF80912001877FF5CFEB
:100310001F93CF93DF93282F30E0F901E254FE4F73
:100320008491F901E858FE4FD491F901EE5CFE4F3B
:10033000C491CC23A1F0162F811184DFEC2FF0E0C3
:10034000EE0FFF1FE250FF4FA591B4918FB7F894C5
:10035000EC91111108C0D095DE23DC938FBFDF91A3
:10036000CF911F910895DE2BF8CFCF93DF9390E0CC
:10037000FC01E858FE4F24918E5C9E4FFC01849155
:100380008823D1F090E0880F991FFC01EC51FF4FBA
:10039000A591B491FC01E250FF4FC591D491611138
:1003A0000EC09FB7F8948C91E22FE0958E238C932A
:1003B0002881E223E8839FBFDF91CF9108958FB713
:1003C000F894EC91E22BEC938FBFF6CF3FB7F89403
:1003D0008091690290916A02A0916B02B0916C02C7
:1003E00026B5A89B05C02F3F19F00196A11DB11D90
:1003F0003FBFBA2FA92F982F8827BC01CD01620FCC
:10040000711D811D911D42E0660F771F881F991F86
:100410004A95D1F708958F929F92AF92BF92CF9253
:10042000DF92EF92FF92D2DF4B015C0188EEC82E83
:1004300083E0D82EE12CF12CC9DF681979098A09EB
:100440009B09683E734081059105B0F321E0C21A13
:10045000D108E108F10888EE880E83E0981EA11CFF
:10046000B11CC114D104E104F10431F7FF90EF9005
:10047000DF90CF90BF90AF909F908F900895CF92D4
:10048000DF92EF92FF920F931F93CF938C016A013B
:100490007B01DB01CA010197A109B10980389448A9
:1004A000AE41B10508F045C0AB0196016EEF7FEF9C
:1004B00081E090E082D29B01AC0160E074E284EFC5
:1004C00090E08AD2C0E0EC2FF0E0EE0FFF1FE85A78
:1004D000FD4F80819181CF5F82179307A0F3A70121
:1004E0009601220F331F441F551FEC2FF0E0EE0F33
:1004F000FF1FE85AFD4FA081B181A7D29B01AC013B
:1005000060E074E284EF90E067D2F801EA57FF4FB1
:100510003183208335978081887FC770C82BC08343
:1005200081E0CF911F910F91FF90EF90DF90CF90DE
:10053000089580E0F6CF9C01FC01E058FF4F8081D8
:100540008C7F808331969081977E9061908344EF79
:1005500051E060E070E0C90192CF8F929F92AF921C
:10056000BF92CF92DF92EF92FF920F931F93CF93A0
:100570006B017C01AEEFB1E0AC019B0166D29B0147
:10058000AC0160E074E284EF90E026D2C901C0E0E3
:10059000CC0CDD1CEE1CFF1C812C44E2942E44EF9D
:1005A000A42EB12CCF5FEC2FF0E0EE0FFF1FE85B25
:1005B000FD4F0081118108171907A0F3D801A70189
:1005C000960143D29B01AC01C501B40105D2C8011B
:1005D0002F3F310509F030F72093B3008091B1002F
:1005E000887FC770C82BC093B10081E0CF911F9165
:1005F0000F91FF90EF90DF90CF90BF90AF909F90C2
:100600008F9008951F920F920FB60F9211242F937F
:100610003F938F939F93AF93BF9380916502909187
:100620006602A0916702B09168023091640223E0F3
:10063000230F2D3758F50196A11DB11D209364029B
:100640008093650290936602A0936702B09368025C
:100650008091690290916A02A0916B02B0916C0244
:100660000196A11DB11D8093690290936A02A09327
:100670006B02B0936C02BF91AF919F918F913F91AC
:100680002F910F900FBE0F901F90189526E8230F03
:100690000296A11DB11DD2CFCF93DF9300D0CDB76D
:1006A000DEB7789484B5826084BD84B5816084BDF2
:1006B00085B5826085BD85B5816085BD80916E0000
:1006C000816080936E001092810080918100826031
:1006D000809381008091810081608093810080916E
:1006E00080008160809380008091B100846080935D
:1006F000B1008091B00081608093B0008091910042
:10070000826080939100809191008160809391003C
:10071000809190008160809390008091A100826020
:100720008093A1008091A10081608093A1008091BD
:10073000A00081608093A00080912101826080935D
:10074000210180912101816080932101809120010C
:1007500081608093200180917A00846080937A0088
:1007600080917A00826080937A0080917A00816023
:1007700080937A0080917A00806880937A0010924A
:10078000C10061E086E0F1DD90E080E0D4DE8091A0
:10079000B0008C7F81608093B0008091B100886050
:1007A0008093B10064EF71E080E090E0D6DE80E1FC
:1007B00090E0C1DE80E290E0BEDE80EA90E0BBDE49
:1007C00061ECC62E61E0D62EF60184919DEF980F64
:1007D000923040F442E350E060E070E090E080E06E
:1007E0004EDE08C0883009F0BBC062E370E080E0F4
:1007F00090E0B3DE882319F061E086E089DD61E0F6
:1008000082E0B3DD61E083E0B0DD60E084E0ADDD97
:1008100061E085E0AADD60E082E07ADD60E083E00F
:1008200077DD60E085E074DD92EC292E91E0392ED1
:100830002CE7422E21E0522E36E3632E31E0732E58
:10084000EE24E394F12C812C912C54018A9400E045
:1008500010E061E082E05CDD60E083E059DDDBDD3B
:10086000F1018491F201F491F983F301F491FB8396
:10087000FF2381F08111E6DC8B81E82FF0E0EE0FA1
:10088000FF1FE85EFE4FA591B4918C91998198234A
:1008900060E009F461E085E03BDD60E082E038DDA6
:1008A00061E083E062DDF6019491F4E09F9FB00186
:1008B0001124DB01AF5FBD4F8C91869511969C9101
:1008C000292F279522272795282B298396959170E4
:1008D0009A8389819A81892BD9F1CB018E5F9D4FB3
:1008E000DC012C912695269511968C91982F929546
:1008F000990F990F907CA92FA22B82FBBB27B0F9EF
:10090000CB018D5F9D4FFC014081842F869586959C
:1009100086958F70970101C0220F8A95EAF7FB0137
:10092000E050FE4F80815181952F91703C91232B97
:100930002C93DC0147FF35C02D913C91A8ECB0E031
:1009400075D0A501940148D0E981FA8131832083D3
:1009500062DD0115110509F47CCF0E94000079CFFA
:1009600097EF980F933038F442E350E060E070E086
:1009700080E190E035CF94EF980F933038F442E364
:1009800050E060E070E080E290E02ACF8051833058
:1009900008F035CF42E350E060E070E080EA90E09C
:1009A0001FCF2C9130E0A8ECB0E040D0A50194011D
:1009B00013D0E981FA812083CBCFDB018F939F9302
:1009C00044D0BF91AF91A29F800D911DA39F900D28
:1009D000B29F900D11240895A1E21A2EAA1BBB1BF1
:1009E000FD010DC0AA1FBB1FEE1FFF1FA217B307FB
:1009F000E407F50720F0A21BB30BE40BF50B661F11
:100A0000771F881F991F1A9469F7609570958095D4
:100A100090959B01AC01BD01CF010895EE0FFF1F22
:100A2000881F8BBF0790F691E02D1994A29FB0010B
:100A3000B39FC001A39F700D811D1124911DB29F12
:100A4000700D811D1124911D0895F0DFA59F900D5B
:100A5000B49F900DA49F800D911D11240895F894CA
:020A6000FFCFC6
:100A6200000000000000000047901029861001BA23
:100A7200861401AA0000000000000000B368C12A29
:100A8200963041BA963441AA9638419AA65081BA14
:100A9200A65481AAA658819A00000000265182BC61
:100AA200265582AC2659829C0000010008002000D5
:100AB2004000800000010004000001000800400026
:040AC200000100042B
:00000001FF
