:1000000002C10000A9C600007CC600004FC6000067
:1000100022C60000F5C50000C8C500009BC5000051
:100020006EC5000020C100001EC100001CC1000000
:100030001AC1000018C1000016C1000014C1000060
:1000400012C1000010C100000EC100000CC1000070
:100050000AC1000008C1000006C1000006C500007A
:1000600002C10000CCC40000A1C40000FCC000001C
:10007000FAC00000F8C00000F6C00000F4C00000A4
:10008000F2C00000F0C00000EEC00000ECC00000B4
:10009000EAC00000E8C00000E6C00000E4C00000C4
:1000A000E2C00000E0C00000DEC00000DCC00000D4
:1000B000DAC00000D8C00000D6C00000D4C00000E4
:1000C000D2C00000D0C00000CEC00000CCC00000F4
:1000D000CAC00000C8C00000C6C00000C4C0000004
:1000E000C2C0000000002100240027002A002D00CB
:1000F0003000330001010000040107010A01000083
:100100002200250028002B002E00310034000201BF
:100110000000050108010B0100002000230026005B
:1001200029002C002F00320000010000030106010D
:10013000090105050505070508080808020202026D
:100140000A0A080804040404010101010101010173
:100150000303030303030303040707070C0C0C0C3E
:100160000C0C0C0C02020202060606060606060627
:100170000B0B0B0B0B0B0B0B0102102020080810B4
:100180002040102040800201020108040201010207
:1001900004081020408080402010080402018004E0
:1001A000020180402010080402010804020101023B
:1001B0000408102040800102040810204080000044
:1001C0000A0B02090C0D0E080703040100000000D1
:1001D000000000000000000000000000000000001F
:1001E00000000000000000000000121110000000DC
:1001F00000000000000000000000000000000000FF
:1002000000000000D70611241FBECFEFD1E2DEBFF1
:10021000CDBF00E00CBF12E0A0E0B2E0E8E8F9E1F9
:1002200000E00BBF02C007900D92A834B107D9F7C8
:1002300023E0A8E4B2E001C01D92A231B207E1F7C9
:1002400011E0C3E0D1E000E006C021970109802F52
:10025000FE010E94BA0CC230D10780E00807A9F75E
:10026000DFD50C94C20CCCCEE82FF0E0DF01AA0F52
:10027000BB1FA050BE4F11967C936E93883008F040
:100280004DC08827E95BFE4F8F4F0C94BA0C6F016D
:1002900077014F0157015F0167017F01870180915D
:1002A00069008C7F816080936900E89A089580914D
:1002B0006900837F846080936900E99A0895809142
:1002C00069008F7C806180936900EA9A089580912B
:1002D00069008F73806480936900EB9A0895809120
:1002E0006A008C7F816080936A00EC9A0895809107
:1002F0006A00837F846080936A00ED9A08958091FC
:100300006A008F7C806180936A00EE9A08958091E4
:100310006A008F73806480936A00EF9A0895AF92A9
:10032000BF92CF92DF92EF92FF920F931F93CF93E2
:10033000DF936C017B018B01040F151FEB015E0144
:10034000AE18BF08C017D10759F06991D601ED91D9
:10035000FC910190F081E02DC6011995892B79F768
:10036000C501DF91CF911F910F91FF90EF90DF902A
:10037000CF90BF90AF900895FC01538D448D252FF1
:1003800030E0842F90E0821B930B541710F0CF962F
:10039000089501970895FC01918D828D981761F061
:1003A000A28DAE0FBF2FB11D5D968C91928D9F5F78
:1003B0009F73928F90E008958FEF9FEF0895FC0157
:1003C000918D828D981731F0828DE80FF11D858D0A
:1003D00090E008958FEF9FEF0895FC01918D228D9D
:1003E000892F90E0805C9F4F821B91098F73992722
:1003F000089581E792E0F1DF21E0892B09F420E004
:10040000822F0895FC01A48DA80FB92FB11DA35A06
:10041000BF4F2C91848D90E001968F739927848F24
:10042000A689B7892C93A089B1898C918370806447
:100430008C93938D848D981306C00288F389E02DE8
:1004400080818F7D80830895EF92FF920F931F9399
:10045000CF93DF93EC0181E0888F9B8D8C8D981377
:100460001AC0E889F989808185FF15C09FB7F89483
:10047000EE89FF896083E889F989808183708064CF
:1004800080839FBF81E090E0DF91CF911F910F911A
:10049000FF90EF900895F62E0B8D10E00F5F1F4F29
:1004A0000F731127E02E8C8D8E110BC00FB607FC39
:1004B000FACFE889F989808185FFF5CFCE01A2DFE7
:1004C000F2CFEB8DEC0FFD2FF11DE35AFF4FF082C1
:1004D0009FB7F8940B8FEA89FB8980818062D0CF27
:1004E000CF93DF93EC01888D8823B1F0AA89BB8973
:1004F000E889F9898C9185FD03C0808186FD0CC057
:100500000FB607FCF7CF8C9185FFF2CF808185FF76
:10051000EDCFCE0177DFEACFDF91CF91089580E074
:1005200090E0892B21F065DF81110E94000080E0BE
:1005300090E0892B49F080E090E0892B29F00E941F
:10054000000081110E94000080E090E0892B49F0BA
:1005500080E090E0892B29F00E94000081110E9428
:10056000000080E090E0892B49F080E090E0892B4A
:1005700029F00E94000081110C9400000895815020
:10058000823108F05AC0E82FF0E08827E553FD4F8C
:100590008F4F0C94BA0CEB02EF02DD02E302E7028C
:1005A0001D03F202F802FC02020306030A03100311
:1005B00014031D0318031E032203809180008F770C
:1005C000809380000895809180008F7DF9CF809185
:1005D0008000877FF5CF84B58F7784BD089584B57B
:1005E0008F7DFBCF8091B0008F778093B00008950E
:1005F0008091B0008F7DF9CF809190008F778093AC
:1006000090000895809190008F7DF9CF80919000A7
:10061000877FF5CF8091A0008F778093A000089509
:100620008091A0008F7DF9CF8091A000877FF5CFCA
:10063000809120018F77809320010895809120017F
:100640008F7DF9CF80912001877FF5CFCF93DF9306
:10065000282F30E0F901E254FE4F8491F901E85867
:10066000FE4FD491F901EE5CFE4FC491CC2399F07A
:10067000811185DFEC2FF0E0EE0FFF1FE85EFE4FEB
:10068000A591B491EC91ED2381E090E009F480E034
:10069000DF91CF91089580E090E0FACF82E1D6DF3C
:1006A0009093700280936F02089583E1CFDF90935F
:1006B0006E0280936D02089584E1C8CF1F93CF939B
:1006C000DF93282F30E0F901E254FE4F8491F901C5
:1006D000E858FE4FD491F901EE5CFE4FC491CC2353
:1006E000A1F0162F81114BDFEC2FF0E0EE0FFF1F72
:1006F000E250FF4FA591B4918FB7F894EC9111118E
:1007000008C0D095DE23DC938FBFDF91CF911F917E
:100710000895DE2BF8CFCF93DF9390E0FC01E858EB
:10072000FE4F24918E5C9E4FFC0184918823D1F072
:1007300090E0880F991FFC01EC51FF4FA591B491F7
:10074000FC01E250FF4FC591D49161110EC09FB7DB
:10075000F8948C91E22FE0958E238C932881E223EC
:10076000E8839FBFDF91CF9108958FB7F894EC9104
:10077000E22BEC938FBFF6CF0895FC01019000208F
:10078000E9F73197AF01481B590BBC0181E792E0B3
:10079000C6CD8F929F92AF92BF920F931F93CF932C
:1007A000DF93CDB7DEB7A1970FB6F894DEBF0FBECB
:1007B000CDBF19A2423008F44AE08E010F5D1F4FF1
:1007C000842E912CB12CA12CA50194010E94980C8F
:1007D000E62FB901CA01EA30ECF4E05DD801EE93EE
:1007E0008D01232B242B252B79F790E080E01097A7
:1007F00011F0CD01C2DFA1960FB6F894DEBF0FBE97
:10080000CDBFDF91CF911F910F91BF90AF909F907F
:100810008F900895E95CE2CF4F925F926F927F9242
:100820008F929F92AF92BF92CF92DF92EF92FF9200
:100830000F931F93CF936B017C01742EAC019B012E
:100840000E94940C882391F082E292E0CF911F9154
:100850000F91FF90EF90DF90CF90BF90AF909F905F
:100860008F907F906F905F904F9087CF4601570198
:10087000E894B7F82FEF3FEF4FE75FE7C501B4010A
:100880000E94940C81110CC02FEF3FEF4FE75FE700
:10089000C501B40198D618161CF486E292E0D6CFB2
:1008A0002FEF3FEF4FE75FE4C701B601D6D7181629
:1008B0001CF48AE292E0CACF2FEF3FEF4FE75FECE4
:1008C000C701B60180D687FDF4CF20E030E0A90152
:1008D000C701B60178D610E000E087FF09C06DE2DD
:1008E00081E792E0B1DD8C01F7FAF094F7F8F0942B
:1008F000C0E060E070E080E09FE37C1639F020E02B
:1009000030E040E251E463D6CF5FF7CFA701960114
:10091000F6D52B013C01C3D64B015C014AE039DF1F
:100920007C01E00EF11ECC2381F1C501B401E3D6B8
:100930009B01AC01C301B201E1D54B015C016EE248
:1009400081E792E081DDE80EF91EC150F0F020E071
:1009500030E040E251E4C501B40183D72B013C01F2
:100960009ED64B01B12CA12C4AE0C501B40111DF88
:10097000E80EF91EC501B401BED69B01AC01C3014E
:10098000B201BCD54B015C01E0CFC701CF911F91F3
:100990000F91FF90EF90DF90CF90BF90AF909F901E
:1009A0008F907F906F905F904F9008951F920F925D
:1009B0000FB60F9211240BB60F922F933F934F93C4
:1009C0005F936F937F938F939F93AF93BF93EF93B7
:1009D000FF9381E792E016DDFF91EF91BF91AF9118
:1009E0009F918F917F916F915F914F913F912F9147
:1009F0000F900BBE0F900FBE0F901F9018951F9277
:100A00000F920FB60F9211240BB60F922F938F9364
:100A10009F93EF93FF93E0918102F0918202808196
:100A2000E0918702F091880282FD1DC09081809143
:100A30008A028F5F8F7320918B02821741F0E091C1
:100A40008A02F0E0EF58FD4F958F80938A02FF9164
:100A5000EF919F918F912F910F900BBE0F900FBE32
:100A60000F901F9018958081F2CF1F920F920FB6B2
:100A70000F9211242F933F938F939F93AF93BF9324
:100A800080914D0290914E02A0914F02B091500280
:100A90003091480223E0230F2D3758F50196A11D10
:100AA000B11D2093480280934D0290934E02A09373
:100AB0004F02B09350028091490290914A02A09156
:100AC0004B02B0914C020196A11DB11D80934902C9
:100AD00090934A02A0934B02B0934C02BF91AF9106
:100AE0009F918F913F912F910F900FBE0F901F906C
:100AF000189526E8230F0296A11DB11DD2CF1F9293
:100B00000F920FB60F9211240BB60F922F933F93B3
:100B10004F935F936F937F938F939F93AF93BF9305
:100B2000EF93FF93E0910E02F0910F021995FF9160
:100B3000EF91BF91AF919F918F917F916F915F9155
:100B40004F913F912F910F900BBE0F900FBE0F90C2
:100B50001F9018951F920F920FB60F9211240BB68B
:100B60000F922F933F934F935F936F937F938F9346
:100B70009F93AF93BF93EF93FF93E0910C02F0919B
:100B80000D021995FF91EF91BF91AF919F918F91B8
:100B90007F916F915F914F913F912F910F900BBE7D
:100BA0000F900FBE0F901F9018951F920F920FB6C7
:100BB0000F9211240BB60F922F933F934F935F9395
:100BC0006F937F938F939F93AF93BF93EF93FF9315
:100BD000E0910202F09103021995FF91EF91BF910C
:100BE000AF919F918F917F916F915F914F913F91C5
:100BF0002F910F900BBE0F900FBE0F901F90189566
:100C00001F920F920FB60F9211240BB60F922F93D3
:100C10003F934F935F936F937F938F939F93AF9384
:100C2000BF93EF93FF93E0910002F09101021995B9
:100C3000FF91EF91BF91AF919F918F917F916F91B4
:100C40005F914F913F912F910F900BBE0F900FBE70
:100C50000F901F9018951F920F920FB60F921124AC
:100C60000BB60F922F933F934F935F936F937F93A6
:100C70008F939F93AF93BF93EF93FF93E0910A02FB
:100C8000F0910B021995FF91EF91BF91AF919F9158
:100C90008F917F916F915F914F913F912F910F9025
:100CA0000BBE0F900FBE0F901F9018951F920F92C2
:100CB0000FB60F9211240BB60F922F933F934F93C1
:100CC0005F936F937F938F939F93AF93BF93EF93B4
:100CD000FF93E0910802F09109021995FF91EF91BD
:100CE000BF91AF919F918F917F916F915F914F9144
:100CF0003F912F910F900BBE0F900FBE0F901F9042
:100D000018951F920F920FB60F9211240BB60F92E7
:100D10002F933F934F935F936F937F938F939F9303
:100D2000AF93BF93EF93FF93E0910602F091070218
:100D30001995FF91EF91BF91AF919F918F917F9105
:100D40006F915F914F913F912F910F900BBE0F903C
:100D50000FBE0F901F9018951F920F920FB60F9213
:100D600011240BB60F922F933F934F935F936F9382
:100D70007F938F939F93AF93BF93EF93FF93E091F4
:100D80000402F09105021995FF91EF91BF91AF9187
:100D90009F918F917F916F915F914F913F912F9193
:100DA0000F900BBE0F900FBE0F901F901895E1E7AC
:100DB000F2E01382128288EE93E0A0E0B0E0848338
:100DC0009583A683B78384E192E09183808385EC49
:100DD00090E09587848784EC90E09787868780EC05
:100DE00090E0918B808B81EC90E0938B828B82ECF6
:100DF00090E0958B848B86EC90E0978B868B118EA0
:100E0000128E138E148E82E99AE0A6E0BFE38093DF
:100E10000E0390930F03A0931003B0931103089552
:100E2000789484B5826084BD84B5816084BD85B5C5
:100E3000826085BD85B5816085BD80916E008160D1
:100E400080936E0010928100809181008260809377
:100E50008100809181008160809381008091800079
:100E60008160809380008091B10084608093B100A4
:100E70008091B00081608093B00080919100826089
:100E80008093910080919100816080939100809186
:100E900090008160809390008091A1008260809397
:100EA000A1008091A10081608093A1008091A000A9
:100EB00081608093A0008091210182608093210154
:100EC00080912101816080932101809120018160C6
:100ED0008093200180917A00846080937A008091D1
:100EE0007A00826080937A0080917A00816080939A
:100EF0007A0080917A00806880937A001092C10015
:100F0000E0918102F091820282E08083E0917D0293
:100F1000F0917E021082E0917F02F09180028FECCE
:100F2000808310928902E0918502F091860286E02A
:100F30008083E0918302F0918402808180618083CC
:100F4000E0918302F0918402808188608083E09147
:100F50008302F0918402808180688083E091830223
:100F6000F091840280818F7D808361E082E0D3DB19
:100F700061E083E0D0DB61E084E0CDDB61E085E02F
:100F8000CADB61E086E0C7DB61E087E0C4DB60E0EC
:100F900082E1C1DB60E083E1BEDB60E084E1BBDBDA
:100FA00082E154DB83E152DB84E150DB6EE473E0E9
:100FB00085E05AD965E573E084E056D96CE573E0C5
:100FC00083E052D960E082E079DB60E083E076DBA9
:100FD00060E084E073DB60E085E070DB60E086E089
:100FE0006DDB60E087E06ADB82E130DB4C019093EF
:100FF000700280936F0283E129DB6C0190936E0293
:1010000080936D0284E122DBA0906B02B0906C02B1
:10101000B0926A02A0926902880F991F880F991FE7
:10102000CC0CDD1CC82AD92A8C289D2890926C02F1
:1010300080926B026401E894C2F861E081E0C81616
:10104000D10409F060E082E039DB61E092E0C9168A
:10105000D10409F060E083E031DB61E0C401029774
:10106000029708F060E084E029DB61E0C4010497A6
:10107000029708F060E085E021DB6401E894C1F8A4
:1010800061E0A4E0CA16D10409F060E086E016DB56
:1010900061E0CA94CD2809F060E087E00FDBA81476
:1010A000B90409F469C18091650290916602A0912A
:1010B0006702B09168028093610290936202A093EC
:1010C0006302B09364023FB7F89480914902909113
:1010D0004A02A0914B02B0914C0226B5A89B05C0D4
:1010E0002F3F19F00196A11DB11D3FBFBA2FA92FA7
:1010F000982F8827BC01CD01620F711D811D911DA4
:1011000042E0660F771F881F991F4A95D1F7F3D2E7
:101110006093650270936602809367029093680201
:101120002091610230916202409163025091640209
:10113000E5D14B015C01C0900E03D0900F03E0900D
:101140001003F090110320915D0230915E024091F6
:101150005F0250916002C701B601D1D12B013C0161
:101160002BED3FE049EC50E478D318160CF446C060
:1011700040925D0250925E0260925F027092600245
:1011800040905D0250905E0260905F02709060023D
:101190002BED3FE049EC50E4C301B20114D287FFCC
:1011A0000FC02BED3FE049EC50E4C301B201A7D1E1
:1011B00060935D0270935E0280935F029093600281
:1011C0004090590250905A0260905B0270905C020D
:1011D00080916B0290916C0286309105F9F4109227
:1011E000590210925A0210925B0210925C0204970C
:1011F000A9F586E39DE8A7EAB0E428C02BED3FE01F
:1012000049EC50E4C301B20179D160935D0270935F
:101210005E0280935F0290936002B2CF82309105AC
:1012200069F442E95AE066E87FE34093590250933B
:101230005A0260935B0270935C02D9CF83309105B0
:1012400009F089C082E99AE0A6E0B0E480935902EF
:1012500090935A02A0935B02B0935C02A5019401A3
:10126000C701B601B4D16B017C01C0925502D09286
:101270005602E0925702F0925802A501940162E9E9
:101280007AE086E89FE3A3D14B015C018092510292
:1012900090925202A0925302B0925402A301920182
:1012A0006091590270915A0280915B0290915C02A8
:1012B00025D12B013C0120E030E0A90184D187FD3C
:1012C00009C022E93AE046E850E4C301B201C5D2C0
:1012D00087FD18C0B7FAB094B7F8B0948092510265
:1012E00090925202A0925302B0925402F7FAF094F4
:1012F000F7F8F094C0925502D0925602E09257024D
:10130000F09258028EE292E038DA20EE3EE245E6B4
:1013100052E46091590270915A0280915B0290915F
:101320005C029FD242E078DA86E392E026DA20EF90
:1013300035EB41E15BE4609155027091560280917A
:101340005702909158028DD242E066DA85E492E02D
:1013500014DAE5D849CE8130910529F48BED9FE070
:10136000A9E4B0E473CF8530910509F040CF82E95C
:101370009AE0A6E8B0E46ACF2FB7F89460914D02E6
:1013800070914E0280914F02909150022FBFB3D1C5
:101390002091650230916602409167025091680287
:1013A000ADD06B017C0120915502309156024091E5
:1013B00057025091580255D220915D0230915E0241
:1013C00040915F02509160029AD04B015C01809283
:1013D0005D0290925E02A0925F02B0926002209144
:1013E0005102309152024091530250915402C70170
:1013F000B60137D22091590230915A0240915B02D6
:1014000050915C027CD06B017C01C0925902D09259
:101410005A02E0925B02F0925C022BED3FE049EC55
:1014200050E4C501B40119D218167CF42BED3FE04D
:1014300049EC50E4C501B40161D060935D02709342
:101440005E0280935F029093600280905D029090B4
:101450005E02A0905F02B09060022BED3FE049EC8D
:1014600050E4C501B401AFD087FF0FC02BED3FE0C2
:1014700049EC50E4C501B40142D060935D02709321
:101480005E0280935F02909360022BED3FE049EC97
:1014900050E4C701B601E1D118167CF42BED3FE012
:1014A00049EC50E4C701B60129D06093590270930A
:1014B0005A0280935B0290935C02C0905902D090D4
:1014C0005A02E0905B02F0905C022BED3FE049ECA9
:1014D00050E4C701B60177D087FF14CF2BED3FE072
:1014E00049EC50E4C701B6010AD0609359027093E9
:1014F0005A0280935B0290935C0204CF5058BB2742
:10150000AA270ED070C161D130F066D120F031F43D
:101510009F3F11F41EF456C10EF4E095E7FB4CC159
:10152000E92F72D180F3BA17620773078407950712
:1015300018F071F49EF58AC10EF4E0950B2EBA2FC7
:10154000A02D0B01B90190010C01CA01A0011124C9
:10155000FF27591B99F0593F50F4503E68F11A1675
:10156000F040A22F232F342F4427585FF3CF469506
:1015700037952795A795F0405395C9F77EF41F1628
:10158000BA0B620B730B840BBAF09150A1F0FF0FF2
:10159000BB1F661F771F881FC2F70EC0BA0F621FDE
:1015A000731F841F48F4879577956795B795F795CE
:1015B0009E3F08F0B3CF9395880F08F09927EE0F60
:1015C000979587950895D4D008F481E008950CD0BC
:1015D0000AC102D140F0F9D030F021F45F3F19F098
:1015E000EBC0511134C1EEC00FD198F39923C9F368
:1015F0005523B1F3951B550BBB27AA276217730719
:10160000840738F09F5F5F4F220F331F441FAA1FCC
:10161000A9F333D00E2E3AF0E0E830D0915050408C
:10162000E695001CCAF729D0FE2F27D0660F771F3A
:10163000881FBB1F261737074807AB07B0E809F01C
:10164000BB0B802DBF01FF2793585F4F2AF09E3FB1
:10165000510568F0B1C0FBC05F3FECF3983EDCF38E
:10166000869577956795B795F7959F5FC9F7880F2A
:10167000911D9695879597F90895E1E0660F771F7C
:10168000881FBB1F621773078407BA0720F0621B0D
:10169000730B840BBA0BEE1F88F7E0950895BCD04E
:1016A00088F09F5790F0B92F9927B751A0F0D1F04B
:1016B000660F771F881F991F1AF0BA95C9F712C0D5
:1016C000B13081F0C3D0B1E00895C0C0672F782F4A
:1016D0008827B85F39F0B93FCCF386957795679541
:1016E000B395D9F73EF490958095709561957F4FAD
:1016F0008F4F9F4F0895E89409C097FB3EF4909553
:101700008095709561957F4F8F4F9F4F9923A9F0DA
:10171000F92F96E9BB279395F69587957795679569
:10172000B795F111F8CFFAF4BB0F11F460FF1BC0AD
:101730006F5F7F4F8F4F9F4F16C0882311F096E940
:1017400011C0772321F09EE8872F762F05C06623EE
:1017500071F096E8862F70E060E02AF09A95660FA7
:10176000771F881FDAF7880F9695879597F9089560
:10177000990F0008550FAA0BE0E8FEEF16161706A2
:10178000E807F907C0F012161306E407F50798F00A
:10179000621B730B840B950B39F40A2661F0232B23
:1017A000242B252B21F408950A2609F4A140A6959F
:1017B0008FEF811D811D089597F99F6780E870E084
:1017C00060E008959FEF80EC089500240A941616B7
:1017D000170618060906089500240A94121613061F
:1017E000140605060895092E0394000C11F48823AD
:1017F00052F0BB0F40F4BF2B11F460FF04C06F5FC9
:101800007F4F8F4F9F4F089557FD9058440F551F9E
:1018100059F05F3F71F04795880F97FB991F61F072
:101820009F3F79F087950895121613061406551FE9
:10183000F2CF4695F1DF08C0161617061806991F55
:10184000F1CF86957105610508940895E894BB274A
:1018500066277727CB0197F908958ADF08F48FEF81
:1018600008950BD0C0CFB1DF28F0B6DF18F0952374
:1018700009F0A2CFA7CF1124EACFC6DFA0F3959F2E
:10188000D1F3950F50E0551F629FF001729FBB2767
:10189000F00DB11D639FAA27F00DB11DAA1F649F13
:1018A0006627B00DA11D661F829F2227B00DA11DC6
:1018B000621F739FB00DA11D621F839FA00D611D4C
:1018C000221F749F3327A00D611D231F849F600D6D
:1018D000211D822F762F6A2F11249F5750408AF0A6
:1018E000E1F088234AF0EE0FFF1FBB1F661F771F32
:1018F000881F91505040A9F79E3F510570F05CCF72
:10190000A6CF5F3FECF3983EDCF38695779567951D
:10191000B795F795E7959F5FC1F7FE2B880F911D4F
:101920009695879597F9089523DF880B990B08956D
:10193000A1E21A2EAA1BBB1BFD010DC0AA1FBB1FD3
:10194000EE1FFF1FA217B307E407F50720F0A21B45
:10195000B30BE40BF50B661F771F881F991F1A94B2
:1019600069F760957095809590959B01AC01BD01DC
:10197000CF010895EE0FFF1F881F8BBF0790F691D0
:08198000E02D1994F894FFCF4B
:10198800BC03BC03BC03BC03BC03BC03BC03BC0357
:101998000000000024028F01BC017002ED01CB01A0
:1019A800DF016E616E00696E66006F766600416EDB
:1019B800676C653A20002020537065656428727052
:0819C8006D293A20000D0A0010
:00000001FF
