:1000000002C1000030C100002EC100002CC1000060
:100010002AC1000028C1000026C1000024C1000040
:1000200022C1000020C100001EC100001CC1000050
:100030001AC1000018C1000016C1000014C1000060
:1000400012C1000010C100000EC100000CC1000070
:100050000AC1000008C1000006C100002AC4000057
:1000600002C1000099C400006EC40000FCC0000082
:10007000FAC00000F8C00000F6C00000F4C00000A4
:10008000F2C00000F0C00000EEC00000ECC00000B4
:10009000EAC00000E8C00000E6C00000E4C00000C4
:1000A000E2C00000E0C00000DEC00000DCC00000D4
:1000B000DAC00000D8C00000D6C00000D4C00000E4
:1000C000D2C00000D0C00000CEC00000CCC00000F4
:1000D000CAC00000C8C00000C6C00000C4C0000004
:1000E000C2C0000000002100240027002A002D00CB
:1000F0003000330001010000040107010A01000083
:100100002200250028002B002E00310034000201BF
:100110000000050108010B0100002000230026005B
:1001200029002C002F00320000010000030106010D
:10013000090105050505070508080808020202026D
:100140000A0A080804040404010101010101010173
:100150000303030303030303040707070C0C0C0C3E
:100160000C0C0C0C02020202060606060606060627
:100170000B0B0B0B0B0B0B0B0102102020080810B4
:100180002040102040800201020108040201010207
:1001900004081020408080402010080402018004E0
:1001A000020180402010080402010804020101023B
:1001B0000408102040800102040810204080000044
:1001C0000A0B02090C0D0E080703040100000000D1
:1001D000000000000000000000000000000000001F
:1001E00000000000000000000000121110000000DC
:1001F00000000000000000000000000000000000FF
:1002000000000000100711241FBECFEFD1E2DEBFB7
:10021000CDBF00E00CBF12E0A0E0B2E0E6E0F3E109
:1002200000E00BBF02C007900D92A232B107D9F7D0
:1002300022E0A2E2B2E001C01D92AE3CB207E1F7BB
:1002400011E0C3E0D1E000E006C021970109802F52
:10025000FE010E947909C230D10780E00807A9F7A2
:10026000D1D30C948109CCCEAF92BF92CF92DF92C2
:10027000EF92FF920F931F93CF93DF936C017B015B
:100280008B01040F151FEB015E01AE18BF08C017EC
:10029000D10759F06991D601ED91FC910190F0815F
:1002A000E02DC6011995892B79F7C501DF91CF9112
:1002B0001F910F91FF90EF90DF90CF90BF90AF9084
:1002C0000895FC01538D448D252F30E0842F90E05C
:1002D000821B930B541710F0CF9608950197089541
:1002E000FC01918D828D981761F0A28DAE0FBF2F0A
:1002F000B11D5D968C91928D9F5F9F73928F90E060
:1003000008958FEF9FEF0895FC01918D828D9817CE
:1003100031F0828DE80FF11D858D90E008958FEF0B
:100320009FEF0895FC01918D228D892F90E0805CD4
:100330009F4F821B91098F739927089581E392E063
:10034000F1DF21E0892B09F420E0822F0895FC01E0
:10035000A48DA80FB92FB11DA35ABF4F2C91848D26
:1003600090E001968F739927848FA689B7892C9383
:10037000A089B1898C91837080648C93938D848DD6
:10038000981306C00288F389E02D80818F7D8083D9
:100390000895EF92FF920F931F93CF93DF93EC0199
:1003A00081E0888F9B8D8C8D98131AC0E889F9891C
:1003B000808185FF15C09FB7F894EE89FF8960831F
:1003C000E889F98980818370806480839FBF81E0A0
:1003D00090E0DF91CF911F910F91FF90EF900895E2
:1003E000F62E0B8D10E00F5F1F4F0F731127E02EBD
:1003F0008C8D8E110BC00FB607FCFACFE889F989F6
:10040000808185FFF5CFCE01A2DFF2CFEB8DEC0F1F
:10041000FD2FF11DE35AFF4FF0829FB7F8940B8F29
:10042000EA89FB8980818062D0CFCF93DF93EC0192
:10043000888D8823B1F0AA89BB89E889F9898C91D4
:1004400085FD03C0808186FD0CC00FB607FCF7CF89
:100450008C9185FFF2CF808185FFEDCFCE0177DFD4
:10046000EACFDF91CF91089580E090E0892B21F0D1
:1004700065DF81110E94000080E090E0892B49F047
:1004800080E090E0892B29F00E94000081110E94F9
:10049000000080E090E0892B49F080E090E0892B1B
:1004A00029F00E94000081110E94000080E090E08D
:1004B000892B49F080E090E0892B29F00E94000010
:1004C00081110C94000008958150823108F059C0C8
:1004D000E82FF0E08827E159FD4F8F4F0AC78F02C0
:1004E0009302810287028B02C10296029C02A00243
:1004F000A602AA02AE02B402B802C102BC02C20243
:10050000C602809180008F7780938000089580914B
:1005100080008F7DF9CF80918000877FF5CF84B5F3
:100520008F7784BD089584B58F7DFBCF8091B00017
:100530008F778093B00008958091B0008F7DF9CFC0
:10054000809190008F778093900008958091900023
:100550008F7DF9CF80919000877FF5CF8091A000AB
:100560008F778093A00008958091A0008F7DF9CFB0
:100570008091A000877FF5CF809120018F778093B5
:1005800020010895809120018F7DF9CF8091200175
:10059000877FF5CFCF93DF93282F30E0F901E25426
:1005A000FE4F8491F901E858FE4FD491F901EE5CB9
:1005B000FE4FC491CC2399F0811186DFEC2FF0E03F
:1005C000EE0FFF1FE85EFE4FA591B491EC91ED2375
:1005D00081E090E009F480E0DF91CF91089580E020
:1005E00090E0FACF1F93CF93DF93282F30E0F901EB
:1005F000E254FE4F8491F901E858FE4FD491F9017D
:10060000EE5CFE4FC491CC23A1F0162F81115CDF6C
:10061000EC2FF0E0EE0FFF1FE250FF4FA591B491D9
:100620008FB7F894EC91111108C0D095DE23DC93BC
:100630008FBFDF91CF911F910895DE2BF8CFCF931D
:10064000DF9390E0FC01E858FE4F24918E5C9E4FB2
:10065000FC0184918823D1F090E0880F991FFC0160
:10066000EC51FF4FA591B491FC01E250FF4FC591B1
:10067000D49161110EC09FB7F8948C91E22FE09550
:100680008E238C932881E223E8839FBFDF91CF9153
:1006900008958FB7F894EC91E22BEC938FBFF6CFCF
:1006A00090917B00977F90937B008653806480932A
:1006B0007C0080917A00806480937A0080917A0037
:1006C00086FDFCCF809178009091790008954F923B
:1006D0005F926F927F928F929F92AF92BF92CF92D2
:1006E000DF92EF92FF920F931F932B013C01490180
:1006F0005A016701780120E030E040E85FE322D44E
:1007000061E0882309F45AC020E030E040E85FEB64
:10071000C301B20117D4811148C060E082E062DFFA
:1007200061E083E05FDF20E030E040E85FE3C501A7
:10073000B40108D461E0882309F44DC020E030E022
:1007400040E85FEBC501B401FDD381113BC060E01F
:1007500084E048DF61E085E045DF20E030E040E80C
:100760005FE3C701B601EED361E0882309F440C01E
:1007700020E030E040E85FEBC701B601E3D3811130
:100780002EC060E086E02EDF61E087E01F910F91D0
:10079000FF90EF90DF90CF90BF90AF909F908F90A1
:1007A0007F906F905F904F901DCF20E030E0A901C7
:1007B000C301B201C7D38111B6CF60E082E012DF7E
:1007C00060E0AFCF20E030E0A901C501B401BAD3A9
:1007D0008111C3CF60E084E005DF60E0BCCF20E0A2
:1007E00030E0A901C701B601ADD3811105C060E0B9
:1007F00086E0F8DE60E0C9CF1F910F91FF90EF9087
:10080000DF90CF90BF90AF909F908F907F906F9030
:100810005F904F900895FC0101900020E9F7319717
:10082000AF01481B590BBC0181E392E01DCD8F92B3
:100830009F92AF92BF920F931F93CF93DF93CDB749
:10084000DEB7A1970FB6F894DEBF0FBECDBF19A2D9
:10085000423008F44AE08E010F5D1F4F842E912C28
:10086000B12CA12CA501940122D5E62FB901CA0112
:10087000EA30ECF4E05DD801EE938D01232B242BBC
:10088000252B81F790E080E0109711F0CD01C3DFB8
:10089000A1960FB6F894DEBF0FBECDBFDF91CF910A
:1008A0001F910F91BF90AF909F908F900895E95C3A
:1008B000E2CF1F920F920FB60F9211242F933F9306
:1008C0008F939F93AF93BF9380912D0290912E02AF
:1008D000A0912F02B091300230912C0223E0230F1F
:1008E0002D3758F50196A11DB11D20932C02809340
:1008F0002D0290932E02A0932F02B093300280918C
:10090000280290912902A0912A02B0912B0201960F
:10091000A11DB11D8093280290932902A0932A0261
:10092000B0932B02BF91AF919F918F913F912F91E7
:100930000F900FBE0F901F90189526E8230F029678
:10094000A11DB11DD2CF1F920F920FB60F9211248D
:100950000BB60F922F933F934F935F936F937F93B9
:100960008F939F93AF93BF93EF93FF9381E392E0B5
:10097000EEDCFF91EF91BF91AF919F918F917F91AD
:100980006F915F914F913F912F910F900BBE0F9000
:100990000FBE0F901F9018951F920F920FB60F92D7
:1009A00011240BB60F922F938F939F93EF93FF9386
:1009B000E0914102F09142028081E0914702F09182
:1009C000480282FD1DC0908180914A028F5F8F7323
:1009D00020914B02821741F0E0914A02F0E0EF5C77
:1009E000FD4F958F80934A02FF91EF919F918F91D8
:1009F0002F910F900BBE0F900FBE0F901F90189568
:100A00008081F2CF789484B5826084BD84B58160A2
:100A100084BD85B5826085BD85B5816085BD8091C9
:100A20006E00816080936E00109281008091810041
:100A30008260809381008091810081608093810039
:100A4000809180008160809380008091B1008460FB
:100A50008093B1008091B00081608093B00080915C
:100A600091008260809391008091910081608093D9
:100A70009100809190008160809390008091A1000E
:100A800082608093A1008091A10081608093A10089
:100A90008091A00081608093A000809121018260FC
:100AA00080932101809121018160809321018091B7
:100AB000200181608093200180917A00846080937E
:100AC0007A0080917A00826080937A0080917A0027
:100AD000816080937A0080917A00806880937A00A8
:100AE0001092C100E0914102F091420282E08083C5
:100AF000E0913D02F0913E021082E0913F02F091C0
:100B000040028FEC808310924902E0914502F091FF
:100B1000460286E08083E0914302F09144028081A6
:100B200080618083E0914302F0914402808188607B
:100B30008083E0914302F091440280818068808349
:100B4000E0914302F091440280818F7D808361E0D7
:100B500082E075DD61E083E072DD61E084E06FDDFD
:100B600061E085E06CDD61E086E069DD61E087E001
:100B700066DD60E082E163DD60E083E160DD60E02E
:100B800084E15DDD60E082E02DDD60E083E02ADD70
:100B900060E084E027DD60E085E024DD60E086E061
:100BA00021DD60E087E01EDD82E1F4DC7C019093D2
:100BB00027028093260283E1EDDCEC01909325026D
:100BC0008093240284E1E6DC880F991F880F991F27
:100BD000CC0FDD1F8C2B9D2B8E299F2990932302F8
:100BE0008093220286E35CDDEC0187E359DDBE01E0
:100BF000681B790B072E000C880B990B3DD220E067
:100C000030EC4FE754E4A2D120E030E040EA50E479
:100C1000E7D22FE832EC45EF5CE398D16B017C0121
:100C20004B015C01AC019B013ED3882309F182E1B9
:100C300092E0F1DD8EE192E0EEDDC0912202D091F2
:100C40002302209709F094C0E12CF12C8701A80120
:100C50009701C801B7013BDDC530D10509F0A6C039
:100C6000E12CF12C870120E030E040E85FEBD1C0BF
:100C700026013701E89477F82FEF3FEF4FE75FE762
:100C8000C301B20110D381110CC02FEF3FEF4FE72A
:100C90005FE7C301B20156D118161CF486E192E059
:100CA000C8CF2FEF3FEF4FE75FE4C701B60194D203
:100CB00018161CF48AE192E0BCCF2FEF3FEF4FE70C
:100CC0005FECC701B6013ED187FDF4CF20E030E0F4
:100CD000A901C701B60136D187FF0AC06DE281E3E1
:100CE00092E057DB46015701B7FAB094B7F8B094D9
:100CF0002AE037ED43EA5BE3C501B401BFD04B0105
:100D00005C018CD16B017C01B5D19B01AC01C501AB
:100D1000B401B3D04B015C014AE0C701B60187DDE5
:100D20006EE281E392E035DB20E030E040E251E426
:100D3000C501B40155D24B015C0170D16B01F12C9E
:100D4000E12C4AE0C701B60172DDC701B60192D1BC
:100D50009B01AC01C501B40190D020E030E040E23D
:100D600051E43ED25BD190E080E04AE060DD62CFAA
:100D7000C130D10561F4E12CF12C00E81FE320E043
:100D800030E040E85FEB60E070E0CB0164CFC23060
:100D9000D105D9F4E12CF12C870120E030E040E8C6
:100DA0005FE360E070E080E89FEB91DCE12CF12CE8
:100DB00000E81FEB20E030E040E85FE360E070E037
:100DC000CB01C630D10549F10FC0C330D105B1F414
:100DD000E12CF12C00E81FE320E030E0A90160E005
:100DE00070E080E89FEB73DC2797C1F4E12CF12CD5
:100DF0008701A8019701C801B7010FC0E12CF12CB0
:100E000000E81FEB20E030E0A901C430D10509F073
:100E100023CF60E070E080E89FE359DC25DBC4CE9F
:100E2000E1E3F2E01382128288EE93E0A0E0B0E00A
:100E300084839583A683B78384E092E09183808343
:100E400085EC90E09587848784EC90E0978786878F
:100E500080EC90E0918B808B81EC90E0938B828B87
:100E600082EC90E0958B848B86EC90E0978B868B60
:100E7000118E128E138E148E08955058BB27AA27F8
:100E80000ED070C161D130F066D120F031F49F3FB7
:100E900011F41EF456C10EF4E095E7FB4CC1E92FA6
:100EA00072D180F3BA17620773078407950718F0A9
:100EB00071F49EF58AC10EF4E0950B2EBA2FA02D89
:100EC0000B01B90190010C01CA01A0011124FF27F7
:100ED000591B99F0593F50F4503E68F11A16F040F2
:100EE000A22F232F342F4427585FF3CF46953795F1
:100EF0002795A795F0405395C9F77EF41F16BA0BB6
:100F0000620B730B840BBAF09150A1F0FF0FBB1F63
:100F1000661F771F881FC2F70EC0BA0F621F731FAC
:100F2000841F48F4879577956795B795F7959E3F09
:100F300008F0B3CF9395880F08F09927EE0F979597
:100F400087950895D4D008F481E008950CD00AC1A3
:100F500002D140F0F9D030F021F45F3F19F0EBC03E
:100F6000511134C1EEC00FD198F39923C9F3552321
:100F7000B1F3951B550BBB27AA276217730784078C
:100F800038F09F5F5F4F220F331F441FAA1FA9F342
:100F900033D00E2E3AF0E0E830D091505040E69534
:100FA000001CCAF729D0FE2F27D0660F771F881F95
:100FB000BB1F261737074807AB07B0E809F0BB0B84
:100FC000802DBF01FF2793585F4F2AF09E3F5105A8
:100FD00068F0B1C0FBC05F3FECF3983EDCF3869550
:100FE00077956795B795F7959F5FC9F7880F911D1E
:100FF0009695879597F90895E1E0660F771F881F0A
:10100000BB1F621773078407BA0720F0621B730BBC
:10101000840BBA0BEE1F88F7E0950895BCD088F0DA
:101020009F5790F0B92F9927B751A0F0D1F0660FD4
:10103000771F881F991F1AF0BA95C9F712C0B130EF
:1010400081F0C3D0B1E00895C0C0672F782F882702
:10105000B85F39F0B93FCCF3869577956795B3952E
:10106000D9F73EF490958095709561957F4F8F4F9D
:101070009F4F0895E89409C097FB3EF490958095A2
:10108000709561957F4F8F4F9F4F9923A9F0F92F4E
:1010900096E9BB279395F695879577956795B795CC
:1010A000F111F8CFFAF4BB0F11F460FF1BC06F5FB2
:1010B0007F4F8F4F9F4F16C0882311F096E911C0C4
:1010C000772321F09EE8872F762F05C0662371F0E5
:1010D00096E8862F70E060E02AF09A95660F771FF9
:1010E000881FDAF7880F9695879597F90895990FD5
:1010F0000008550FAA0BE0E8FEEF16161706E807E2
:10110000F907C0F012161306E407F50798F0621B02
:10111000730B840B950B39F40A2661F0232B242BD7
:10112000252B21F408950A2609F4A140A6958FEFF6
:10113000811D811D089597F99F6780E870E060E048
:1011400008959FEF80EC089500240A941616170660
:1011500018060906089500240A94121613061406A8
:1011600005060895092E0394000C11F4882352F00B
:10117000BB0F40F4BF2B11F460FF04C06F5F7F4FC3
:101180008F4F9F4F089557FD9058440F551F59F0AA
:101190005F3F71F04795880F97FB991F61F09F3F64
:1011A00079F087950895121613061406551FF2CF8D
:1011B0004695F1DF08C0161617061806991FF1CFDD
:1011C00086957105610508940895E894BB27662704
:1011D0007727CB0197F908958ADF08F48FEF0895F8
:1011E0000BD0C0CFB1DF28F0B6DF18F0952309F09F
:1011F000A2CFA7CF1124EACFC6DFA0F3959FD1F3EA
:10120000950F50E0551F629FF001729FBB27F00DB4
:10121000B11D639FAA27F00DB11DAA1F649F662709
:10122000B00DA11D661F829F2227B00DA11D621F58
:10123000739FB00DA11D621F839FA00D611D221F12
:10124000749F3327A00D611D231F849F600D211DF6
:10125000822F762F6A2F11249F5750408AF0E1F099
:1012600088234AF0EE0FFF1FBB1F661F771F881FE2
:1012700091505040A9F79E3F510570F05CCFA6CF2A
:101280005F3FECF3983EDCF3869577956795B795CD
:10129000F795E7959F5FC1F7FE2B880F911D9695F7
:1012A000879597F9089523DF880B990B0895A1E29C
:1012B0001A2EAA1BBB1BFD010DC0AA1FBB1FEE1FD0
:1012C000FF1FA217B307E407F50720F0A21BB30B1B
:1012D000E40BF50B661F771F881F991F1A9469F797
:1012E00060957095809590959B01AC01BD01CF01F3
:1012F0000895EE0FFF1F881F8BBF0790F691E02D1A
:061300001994F894FFCFE0
:1013060000000000C901340161011502920170015B
:1013160084016E616E00696E66006F7666000D0A66
:021326000000C5
:00000001FF
