:1000000002C10000C6C6000099C600006CC6000010
:100010003FC6000012C60000E5C50000B8C50000DC
:100020008BC5000020C100001EC100001CC10000E3
:100030001AC1000018C1000016C1000014C1000060
:1000400012C1000010C100000EC100000CC1000070
:100050000AC1000008C1000006C1000023C500005D
:1000600002C10000E9C40000BEC40000FCC00000E2
:10007000FAC00000F8C00000F6C00000F4C00000A4
:10008000F2C00000F0C00000EEC00000ECC00000B4
:10009000EAC00000E8C00000E6C00000E4C00000C4
:1000A000E2C00000E0C00000DEC00000DCC00000D4
:1000B000DAC00000D8C00000D6C00000D4C00000E4
:1000C000D2C00000D0C00000CEC00000CCC00000F4
:1000D000CAC00000C8C00000C6C00000C4C0000004
:1000E000C2C0000000002100240027002A002D00CB
:1000F0003000330001010000040107010A01000083
:100100002200250028002B002E00310034000201BF
:100110000000050108010B0100002000230026005B
:1001200029002C002F00320000010000030106010D
:10013000090105050505070508080808020202026D
:100140000A0A080804040404010101010101010173
:100150000303030303030303040707070C0C0C0C3E
:100160000C0C0C0C02020202060606060606060627
:100170000B0B0B0B0B0B0B0B0102102020080810B4
:100180002040102040800201020108040201010207
:1001900004081020408080402010080402018004E0
:1001A000020180402010080402010804020101023B
:1001B0000408102040800102040810204080000044
:1001C0000A0B02090C0D0E080703040100000000D1
:1001D000000000000000000000000000000000001F
:1001E00000000000000000000000121110000000DC
:1001F00000000000000000000000000000000000FF
:1002000000000000F40611241FBECFEFD1E2DEBFD4
:10021000CDBF00E00CBF12E0A0E0B2E0EAE5F9E1FA
:1002200000E00BBF02C007900D92A434B107D9F7CC
:1002300023E0A4E4B2E001C01D92AE30B207E1F7C2
:1002400011E0C3E0D1E000E006C021970109802F52
:10025000FE010E94A30CC230D10780E00807A9F775
:10026000FCD50C94AB0CCCCEE82FF0E0DF01AA0F4C
:10027000BB1FA050BE4F11967C936E93883008F040
:100280004DC08827E95BFE4F8F4F0C94A30C6F0184
:1002900077014F0157015F0167017F01870180915D
:1002A00069008C7F816080936900E89A089580914D
:1002B0006900837F846080936900E99A0895809142
:1002C00069008F7C806180936900EA9A089580912B
:1002D00069008F73806480936900EB9A0895809120
:1002E0006A008C7F816080936A00EC9A0895809107
:1002F0006A00837F846080936A00ED9A08958091FC
:100300006A008F7C806180936A00EE9A08958091E4
:100310006A008F73806480936A00EF9A089581E089
:1003200090E020916B0230916C02232B11F090E051
:1003300080E090936C0280936B02089581E090E0DE
:100340002091690230916A02232B11F090E080E045
:1003500090936A0280936902089581E090E0209171
:10036000670230916802232B11F090E080E09093B7
:100370006802809367020895AF92BF92CF92DF9296
:10038000EF92FF920F931F93CF93DF936C017B014A
:100390008B01040F151FEB015E01AE18BF08C017DB
:1003A000D10759F06991D601ED91FC910190F0814E
:1003B000E02DC6011995892B79F7C501DF91CF9101
:1003C0001F910F91FF90EF90DF90CF90BF90AF9073
:1003D0000895FC01538D448D252F30E0842F90E04B
:1003E000821B930B541710F0CF9608950197089530
:1003F000FC01918D828D981761F0A28DAE0FBF2FF9
:10040000B11D5D968C91928D9F5F9F73928F90E04E
:1004100008958FEF9FEF0895FC01918D828D9817BD
:1004200031F0828DE80FF11D858D90E008958FEFFA
:100430009FEF0895FC01918D228D892F90E0805CC3
:100440009F4F821B91098F73992708958DE692E043
:10045000F1DF21E0892B09F420E0822F0895FC01CF
:10046000A48DA80FB92FB11DA35ABF4F2C91848D15
:1004700090E001968F739927848FA689B7892C9372
:10048000A089B1898C91837080648C93938D848DC5
:10049000981306C00288F389E02D80818F7D8083C8
:1004A0000895EF92FF920F931F93CF93DF93EC0188
:1004B00081E0888F9B8D8C8D98131AC0E889F9890B
:1004C000808185FF15C09FB7F894EE89FF8960830E
:1004D000E889F98980818370806480839FBF81E08F
:1004E00090E0DF91CF911F910F91FF90EF900895D1
:1004F000F62E0B8D10E00F5F1F4F0F731127E02EAC
:100500008C8D8E110BC00FB607FCFACFE889F989E4
:10051000808185FFF5CFCE01A2DFF2CFEB8DEC0F0E
:10052000FD2FF11DE35AFF4FF0829FB7F8940B8F18
:10053000EA89FB8980818062D0CFCF93DF93EC0181
:10054000888D8823B1F0AA89BB89E889F9898C91C3
:1005500085FD03C0808186FD0CC00FB607FCF7CF78
:100560008C9185FFF2CF808185FFEDCFCE0177DFC3
:10057000EACFDF91CF91089580E090E0892B21F0C0
:1005800065DF81110E94000080E090E0892B49F036
:1005900080E090E0892B29F00E94000081110E94E8
:1005A000000080E090E0892B49F080E090E0892B0A
:1005B00029F00E94000081110E94000080E090E07C
:1005C000892B49F080E090E0892B29F00E940000FF
:1005D00081110C94000008958150823108F05AC0B6
:1005E000E82FF0E08827E850FD4F8F4F0C94A30CC4
:1005F00018031C030A03100314034A031F032503F3
:1006000029032F03330337033D0341034A03450303
:100610004B034F03809180008F7780938000089573
:10062000809180008F7DF9CF80918000877FF5CF0A
:1006300084B58F7784BD089584B58F7DFBCF80917D
:10064000B0008F778093B00008958091B0008F7DC7
:10065000F9CF809190008F778093900008958091DA
:1006600090008F7DF9CF80919000877FF5CF8091AA
:10067000A0008F778093A00008958091A0008F7DC7
:10068000F9CF8091A000877FF5CF809120018F77EF
:10069000809320010895809120018F7DF9CF809172
:1006A0002001877FF5CFCF93DF93282F30E0F9012A
:1006B000E254FE4F8491F901E858FE4FD491F901BC
:1006C000EE5CFE4FC491CC2399F0811185DFEC2FB5
:1006D000F0E0EE0FFF1FE85EFE4FA591B491EC91A4
:1006E000ED2381E090E009F480E0DF91CF9108955F
:1006F00080E090E0FACF1F93CF93DF93282F30E074
:10070000F901E254FE4F8491F901E858FE4FD4916B
:10071000F901EE5CFE4FC491CC23A1F0162F81119C
:100720005BDFEC2FF0E0EE0FFF1FE250FF4FA591D3
:10073000B4918FB7F894EC91111108C0D095DE23D5
:10074000DC938FBFDF91CF911F910895DE2BF8CFFF
:10075000CF93DF9390E0FC01E858FE4F24918E5C2C
:100760009E4FFC0184918823D1F090E0880F991F5F
:10077000FC01EC51FF4FA591B491FC01E250FF4FF9
:10078000C591D49161110EC09FB7F8948C91E22F5E
:10079000E0958E238C932881E223E8839FBFDF912D
:1007A000CF9108958FB7F894EC91E22BEC938FBF23
:1007B000F6CF0895FC0101900020E9F73197AF01D1
:1007C000481B590BBC018DE692E0D6CD8F929F92CB
:1007D000AF92BF920F931F93CF93DF93CDB7DEB746
:1007E000A1970FB6F894DEBF0FBECDBF19A242305D
:1007F00008F44AE08E010F5D1F4F842E912CB12C1E
:10080000A12CA50194010E94810CE62FB901CA0117
:10081000EA30ECF4E05DD801EE938D01232B242B1C
:10082000252B79F790E080E0109711F0CD01C2DF21
:10083000A1960FB6F894DEBF0FBECDBFDF91CF916A
:100840001F910F91BF90AF909F908F900895E95C9A
:10085000E2CF4F925F926F927F928F929F92AF9270
:10086000BF92CF92DF92EF92FF920F931F93CF939D
:100870006B017C01742EAC019B010E947D0C8823CE
:1008800091F082E292E0CF911F910F91FF90EF9053
:10089000DF90CF90BF90AF909F908F907F906F90A0
:1008A0005F904F9087CF46015701E894B7F82FEF3C
:1008B0003FEF4FE75FE7C501B4010E947D0C811156
:1008C0000CC02FEF3FEF4FE75FE7C501B40164D6DF
:1008D00018161CF486E292E0D6CF2FEF3FEF4FE7D9
:1008E0005FE4C701B601A2D718161CF48AE292E0B1
:1008F000CACF2FEF3FEF4FE75FECC701B6014CD6F1
:1009000087FDF4CF20E030E0A901C701B60144D64D
:1009100010E000E087FF09C06DE28DE692E0C1DDE6
:100920008C01F7FAF094F7F8F094C0E060E070E022
:1009300080E09FE37C1639F020E030E040E251E4B3
:100940002FD6CF5FF7CFA7019601C2D52B013C016F
:100950008FD64B015C014AE039DF7C01E00EF11ECD
:10096000CC2381F1C501B401AFD69B01AC01C30119
:10097000B201ADD54B015C016EE28DE692E091DDF6
:10098000E80EF91EC150F0F020E030E040E251E402
:10099000C501B4014FD72B013C016AD64B01B12CE4
:1009A000A12C4AE0C501B40111DFE80EF91EC50112
:1009B000B4018AD69B01AC01C301B20188D54B01B9
:1009C0005C01E0CFC701CF911F910F91FF90EF9095
:1009D000DF90CF90BF90AF909F908F907F906F905F
:1009E0005F904F9008951F920F920FB60F921124AF
:1009F0000BB60F922F933F934F935F936F937F9319
:100A00008F939F93AF93BF93EF93FF938DE692E005
:100A100026DDFF91EF91BF91AF919F918F917F91D3
:100A20006F915F914F913F912F910F900BBE0F905F
:100A30000FBE0F901F9018951F920F920FB60F9236
:100A400011240BB60F922F938F939F93EF93FF93E5
:100A5000E0917D02F0917E028081E0918302F0912D
:100A6000840282FD1DC09081809186028F5F8F730A
:100A700020918702821741F0E0918602F0E0E3596D
:100A8000FD4F958F80938602FF91EF919F918F91FB
:100A90002F910F900BBE0F900FBE0F901F901895C7
:100AA0008081F2CF1F920F920FB60F9211242F93D5
:100AB0003F938F939F93AF93BF93809149029091FF
:100AC0004A02A0914B02B0914C023091480223E0BF
:100AD000230F2D3758F50196A11DB11D2093480213
:100AE0008093490290934A02A0934B02B0934C0228
:100AF0008091440290914502A0914602B091470234
:100B00000196A11DB11D8093440290934502A093CC
:100B10004602B0934702BF91AF919F918F913F9151
:100B20002F910F900FBE0F901F90189526E8230F5E
:100B30000296A11DB11DD2CF1F920F920FB60F9238
:100B400011240BB60F922F933F934F935F936F93A4
:100B50007F938F939F93AF93BF93EF93FF93E09116
:100B60000E02F0910F021995FF91EF91BF91AF9195
:100B70009F918F917F916F915F914F913F912F91B5
:100B80000F900BBE0F900FBE0F901F9018951F92E5
:100B90000F920FB60F9211240BB60F922F933F9323
:100BA0004F935F936F937F938F939F93AF93BF9375
:100BB000EF93FF93E0910C02F0910D021995FF91D4
:100BC000EF91BF91AF919F918F917F916F915F91C5
:100BD0004F913F912F910F900BBE0F900FBE0F9032
:100BE0001F9018951F920F920FB60F9211240BB6FB
:100BF0000F922F933F934F935F936F937F938F93B6
:100C00009F93AF93BF93EF93FF93E0910202F09114
:100C100003021995FF91EF91BF91AF919F918F9131
:100C20007F916F915F914F913F912F910F900BBEEC
:100C30000F900FBE0F901F9018951F920F920FB636
:100C40000F9211240BB60F922F933F934F935F9304
:100C50006F937F938F939F93AF93BF93EF93FF9384
:100C6000E0910002F09101021995FF91EF91BF917F
:100C7000AF919F918F917F916F915F914F913F9134
:100C80002F910F900BBE0F900FBE0F901F901895D5
:100C90001F920F920FB60F9211240BB60F922F9343
:100CA0003F934F935F936F937F938F939F93AF93F4
:100CB000BF93EF93FF93E0910A02F0910B02199515
:100CC000FF91EF91BF91AF919F918F917F916F9124
:100CD0005F914F913F912F910F900BBE0F900FBEE0
:100CE0000F901F9018951F920F920FB60F9211241C
:100CF0000BB60F922F933F934F935F936F937F9316
:100D00008F939F93AF93BF93EF93FF93E09108026C
:100D1000F09109021995FF91EF91BF91AF919F91C9
:100D20008F917F916F915F914F913F912F910F9094
:100D30000BBE0F900FBE0F901F9018951F920F9231
:100D40000FB60F9211240BB60F922F933F934F9330
:100D50005F936F937F938F939F93AF93BF93EF9323
:100D6000FF93E0910602F09107021995FF91EF9130
:100D7000BF91AF919F918F917F916F915F914F91B3
:100D80003F912F910F900BBE0F900FBE0F901F90B1
:100D900018951F920F920FB60F9211240BB60F9257
:100DA0002F933F934F935F936F937F938F939F9373
:100DB000AF93BF93EF93FF93E0910402F09105028C
:100DC0001995FF91EF91BF91AF919F918F917F9175
:100DD0006F915F914F913F912F910F900BBE0F90AC
:100DE0000FBE0F901F901895EDE6F2E0138212826D
:100DF00088EE93E0A0E0B0E084839583A683B78378
:100E000084E192E09183808385EC90E095878487EC
:100E100084EC90E09787868780EC90E0918B808BC4
:100E200081EC90E0938B828B82EC90E0958B848BAD
:100E300086EC90E0978B868B118E128E138E148E1B
:100E400082E99AE0A6E0BFE380930A0390930B0344
:100E5000A0930C03B0930D030895789484B5826039
:100E600084BD84B5816084BD85B5826085BD85B54E
:100E7000816085BD80916E00816080936E001092CC
:100E80008100809181008260809381008091810047
:100E900081608093810080918000816080938000D8
:100EA0008091B10084608093B1008091B000816036
:100EB0008093B00080919100826080939100809136
:100EC0009100816080939100809190008160809377
:100ED00090008091A10082608093A1008091A10088
:100EE00081608093A1008091A00081608093A00028
:100EF0008091210182608093210180912101816094
:100F00008093210180912001816080932001809154
:100F10007A00846080937A0080917A008260809366
:100F20007A0080917A00816080937A0080917A00C3
:100F3000806880937A001092C100E0917D02F09168
:100F40007E0282E08083E0917902F0917A02108241
:100F5000E0917B02F0917C028FEC808310928502FD
:100F6000E0918102F091820286E08083E0917F022D
:100F7000F0918002808180618083E0917F02F09116
:100F80008002808188608083E0917F02F0918002FE
:100F9000808180688083E0917F02F091800280816F
:100FA0008F7D808361E082E0D3DB61E083E0D0DB92
:100FB00061E084E0CDDB61E085E0CADB61E086E0F2
:100FC000C7DB61E087E0C4DB60E082E1C1DB60E0B9
:100FD00083E1BEDB60E084E1BBDB82E164DB83E1D3
:100FE00062DB84E160DB6FE871E085E03DD96EE9AA
:100FF00071E084E039D96DEA71E083E035D960E0D1
:1010000082E079DB60E083E076DB60E084E073DB44
:1010100060E085E070DB60E086E06DDB60E087E04B
:101020006ADB82E140DB5C0190936C0280936B028F
:1010300083E139DB6C0190936A028093690284E159
:1010400032DB7C0190936802809367026A2D82E014
:1010500052DB61E0A114B10409F060E083E04BDBF6
:101060006C2D84E048DB61E0C114D10409F060E03C
:1010700085E041DB6E2D86E03EDB61E0E114F104AA
:1010800009F060E087E037DB8091650290916602AD
:10109000EE0CFF1CEE0CFF1CCC0CDD1CCE28DF2858
:1010A000AC28BD28B0926602A09265028A159B0505
:1010B00009F44BC18091610290916202A091630298
:1010C000B091640280935D0290935E02A0935F02F0
:1010D000B09360022FB7F8946091490270914A0270
:1010E00080914B0290914C022FBFEED2609361022F
:1010F00070936202809363029093640220915D0278
:1011000030915E0240915F0250916002E0D14B014C
:101110005C01C0900A03D0900B03E0900C03F090A8
:101120000D032091590230915A0240915B02509177
:101130005C02C701B601CCD12B013C012BED3FE095
:1011400049EC50E473D318160CF446C0409259028F
:1011500050925A0260925B0270925C024090590277
:1011600050905A0260905B0270905C022BED3FE061
:1011700049EC50E4C301B2010FD287FF0FC02BED41
:101180003FE049EC50E4C301B201A2D1609359029F
:1011900070935A0280935B0290935C0240905502D8
:1011A00050905602609057027090580280916502EC
:1011B0009091660286309105F9F4109255021092D2
:1011C000560210925702109258020497A9F586E32E
:1011D0009DE8A7EAB0E428C02BED3FE049EC50E4DD
:1011E000C301B20174D16093590270935A02809383
:1011F0005B0290935C02B2CF8230910569F442E9C0
:101200005AE066E87FE3409355025093560260939C
:10121000570270935802D9CF8330910509F084C0EA
:1012200082E99AE0A6E0B0E48093550290935602DA
:10123000A0935702B0935802A5019401C701B601CB
:10124000AFD16B017C01C0925102D0925202E09268
:101250005302F0925402A501940162E97AE086E813
:101260009FE39ED14B015C0180924D0290924E0211
:10127000A0924F02B0925002A301920160915502D8
:1012800070915602809157029091580220D12B0103
:101290003C0120E030E0A9017FD187FD09C022E9AF
:1012A0003AE046E850E4C301B201C0D287FD18C05D
:1012B000B7FAB094B7F8B09480924D0290924E0273
:1012C000A0924F02B0925002F7FAF094F7F8F0941F
:1012D000C0925102D0925202E0925302F092540214
:1012E0008EE292E067DA20EE3EE245E652E460915B
:1012F00055027091560280915702909158029AD2ED
:1013000042E0A7DA86E392E055DA609151027091EB
:101310005202809153029091540242E09ADA80E4A2
:1013200092E048DA29D97DCE8130910529F48BED00
:101330009FE0A9E4B0E478CF8530910509F045CF6E
:1013400082E99AE0A6E8B0E46FCF2FB7F8946091F5
:10135000490270914A0280914B0290914C022FBF3A
:10136000B3D12091610230916202409163025091A9
:101370006402ADD06B017C01209151023091520288
:10138000409153025091540255D22091590230910C
:101390005A0240915B0250915C029AD04B015C0171
:1013A0008092590290925A02A0925B02B0925C0223
:1013B00020914D0230914E0240914F0250915002C7
:1013C000C701B60137D220915502309156024091A3
:1013D0005702509158027CD06B017C01C09255029B
:1013E000D0925602E0925702F09258022BED3FE065
:1013F00049EC50E4C501B40119D218167CF42BED68
:101400003FE049EC50E4C501B40161D0609359025A
:1014100070935A0280935B0290935C028090590211
:1014200090905A02A0905B02B0905C022BED3FE0DE
:1014300049EC50E4C501B401AFD087FF0FC02BEDDC
:101440003FE049EC50E4C501B40142D06093590239
:1014500070935A0280935B0290935C022BED3FE005
:1014600049EC50E4C701B601E1D118167CF42BED2C
:101470003FE049EC50E4C701B60129D06093550222
:10148000709356028093570290935802C090550271
:10149000D0905602E0905702F09058022BED3FE0BA
:1014A00049EC50E4C701B60177D087FF19CF2BED87
:1014B0003FE049EC50E4C701B6010AD06093550201
:1014C00070935602809357029093580209CF505858
:1014D000BB27AA270ED070C161D130F066D120F0B1
:1014E00031F49F3F11F41EF456C10EF4E095E7FB72
:1014F0004CC1E92F72D180F3BA17620773078407D2
:10150000950718F071F49EF58AC10EF4E0950B2E44
:10151000BA2FA02D0B01B90190010C01CA01A00145
:101520001124FF27591B99F0593F50F4503E68F1A0
:101530001A16F040A22F232F342F4427585FF3CFE1
:10154000469537952795A795F0405395C9F77EF4B2
:101550001F16BA0B620B730B840BBAF09150A1F0FB
:10156000FF0FBB1F661F771F881FC2F70EC0BA0F81
:10157000621F731F841F48F4879577956795B79509
:10158000F7959E3F08F0B3CF9395880F08F0992701
:10159000EE0F979587950895D4D008F481E00895CB
:1015A0000CD00AC102D140F0F9D030F021F45F3FF5
:1015B00019F0EBC0511134C1EEC00FD198F399234B
:1015C000C9F35523B1F3951B550BBB27AA27621707
:1015D0007307840738F09F5F5F4F220F331F441F4C
:1015E000AA1FA9F333D00E2E3AF0E0E830D0915084
:1015F0005040E695001CCAF729D0FE2F27D0660F71
:10160000771F881FBB1F261737074807AB07B0E8AF
:1016100009F0BB0B802DBF01FF2793585F4F2AF0C5
:101620009E3F510568F0B1C0FBC05F3FECF3983EB0
:10163000DCF3869577956795B795F7959F5FC9F722
:10164000880F911D9695879597F90895E1E0660FAB
:10165000771F881FBB1F621773078407BA0720F024
:10166000621B730B840BBA0BEE1F88F7E09508958D
:10167000BCD088F09F5790F0B92F9927B751A0F0B0
:10168000D1F0660F771F881F991F1AF0BA95C9F716
:1016900012C0B13081F0C3D0B1E00895C0C0672F4F
:1016A000782F8827B85F39F0B93FCCF386957795C6
:1016B0006795B395D9F73EF49095809570956195AF
:1016C0007F4F8F4F9F4F0895E89409C097FB3EF4DA
:1016D00090958095709561957F4F8F4F9F4F99237F
:1016E000A9F0F92F96E9BB279395F69587957795FD
:1016F0006795B795F111F8CFFAF4BB0F11F460FFBD
:101700001BC06F5F7F4F8F4F9F4F16C0882311F014
:1017100096E911C0772321F09EE8872F762F05C028
:10172000662371F096E8862F70E060E02AF09A95C3
:10173000660F771F881FDAF7880F9695879597F9B8
:101740000895990F0008550FAA0BE0E8FEEF161652
:101750001706E807F907C0F012161306E407F507A5
:1017600098F0621B730B840B950B39F40A2661F019
:10177000232B242B252B21F408950A2609F4A140BC
:10178000A6958FEF811D811D089597F99F6780E8C9
:1017900070E060E008959FEF80EC089500240A94C3
:1017A0001616170618060906089500240A9412163C
:1017B0001306140605060895092E0394000C11F46F
:1017C000882352F0BB0F40F4BF2B11F460FF04C01C
:1017D0006F5F7F4F8F4F9F4F089557FD9058440F75
:1017E000551F59F05F3F71F04795880F97FB991F80
:1017F00061F09F3F79F0879508951216130614063D
:10180000551FF2CF4695F1DF08C0161617061806C9
:10181000991FF1CF86957105610508940895E894A4
:10182000BB2766277727CB0197F908958ADF08F44D
:101830008FEF08950BD0C0CFB1DF28F0B6DF18F0DE
:10184000952309F0A2CFA7CF1124EACFC6DFA0F3DA
:10185000959FD1F3950F50E0551F629FF001729F45
:10186000BB27F00DB11D639FAA27F00DB11DAA1F64
:10187000649F6627B00DA11D661F829F2227B00DB1
:10188000A11D621F739FB00DA11D621F839FA00D3C
:10189000611D221F749F3327A00D611D231F849F8C
:1018A000600D211D822F762F6A2F11249F575040E3
:1018B0008AF0E1F088234AF0EE0FFF1FBB1F661F7E
:1018C000771F881F91505040A9F79E3F510570F037
:1018D0005CCFA6CF5F3FECF3983EDCF3869577951F
:1018E0006795B795F795E7959F5FC1F7FE2B880F32
:1018F000911D9695879597F9089523DF880B990B8D
:101900000895A1E21A2EAA1BBB1BFD010DC0AA1F40
:10191000BB1FEE1FFF1FA217B307E407F50720F058
:10192000A21BB30BE40BF50B661F771F881F991FD3
:101930001A9469F760957095809590959B01AC011C
:10194000BD01CF010895EE0FFF1F881F8BBF0790C9
:0A195000F691E02D1994F894FFCFF2
:10195A00D903D903D903D903D903D903D903D9039D
:10196A00000000005102BC01E9019D021A02F801BF
:10197A000C026E616E00696E66006F766600416EDB
:10198A00676C653A2000202053706565643A200030
:04199A000D0A000032
:00000001FF
