:100000000C9403010C94BE0A0C94EF0A0C94200B80
:100010000C94510B0C94820B0C94B30B0C94E40BCA
:100020000C94150C0C9430010C9430010C9430019C
:100030000C9430010C9430010C9430010C9430017C
:100040000C9430010C9430010C9430010C9430016C
:100050000C9430010C9430010C9430010C94551622
:100060000C9430010C9433010C945F020C94300119
:100070000C9430010C9430010C9430010C9430013C
:100080000C9430010C9430010C9430010C9430012C
:100090000C946C010C94AC020C9430010C94300163
:1000A0000C9430010C9430010C9430010C9430010C
:1000B0000C9430010C9430010C9430010C943001FC
:1000C0000C9430010C9430010C9430010C94A50177
:1000D0000C94F9020C9430010C94DE010C9446034C
:1000E0000C94300100002100240027002A002D007C
:1000F0003000330001010000040107010A01000083
:100100002200250028002B002E00310034000201BF
:100110000000050108010B0100002000230026005B
:1001200029002C002F00320000010000030106010D
:10013000090105050505070508080808020202026D
:100140000A0A080804040404010101010101010173
:100150000303030303030303040707070C0C0C0C3E
:100160000C0C0C0C02020202060606060606060627
:100170000B0B0B0B0B0B0B0B0102102020080810B4
:100180002040102040800201020108040201010207
:1001900004081020408080402010080402018004E0
:1001A000020180402010080402010804020101023B
:1001B0000408102040800102040810204080000044
:1001C000090A02080B0C0D070603040100000000D9
:1001D000000000000000000000000000000000001F
:1001E0000000000000000000000011100F000000DF
:1001F00000000000000000000000000000000000FF
:1002000000000000A50511241FBECFEFD1E2DEBF24
:10021000CDBF00E00CBF12E0A0E0B2E0EAEBFAE4F0
:1002200000E00BBF02C007900D92A03EB107D9F7C6
:100230001BBE15E0A0EEB2E001C01D92A63BB107C7
:10024000E1F712E0C6E0D2E004C02297FE010E946E
:100250000525C430D107C9F70E94161A0C945B25F6
:100260000C94000008951F920F920FB60F920BB6D8
:100270000F9211242F933F934F938F939F93EF935C
:10028000FF934091C60020912003309121032F5FFE
:100290003F4F2F73307080912203909123032817D2
:1002A000390759F0E0912003F0912103E052FD4F0E
:1002B00040833093210320932003FF91EF919F917E
:1002C0008F914F913F912F910F900BBE0F900FBECA
:1002D0000F901F90189508951F920F920FB60F92CE
:1002E0000BB60F9211242F933F934F938F939F93AD
:1002F000EF93FF934091CE002091A8033091A90382
:100300002F5F3F4F2F7330708091AA039091AB0302
:100310002817390759F0E091A803F091A903E8598B
:10032000FC4F40833093A9032093A803FF91EF91E2
:100330009F918F914F913F912F910F900BBE0F90F6
:100340000FBE0F901F90189508951F920F920FB631
:100350000F920BB60F9211242F933F934F938F93CD
:100360009F93EF93FF934091D600209130043091FA
:1003700031042F5F3F4F2F73307080913204909182
:1003800033042817390759F0E0913004F091310413
:10039000E051FC4F40833093310420933004FF91AF
:1003A000EF919F918F914F913F912F910F900BBEA5
:1003B0000F900FBE0F901F90189508951F920F92E7
:1003C0000FB60F920BB60F9211242F933F934F93BA
:1003D0008F939F93EF93FF93409136012091B80440
:1003E0003091B9042F5F3F4F2F7330708091BA0462
:1003F0009091BB042817390759F0E091B804F091A7
:10040000B904E858FB4F40833093B9042093B804F3
:10041000FF91EF919F918F914F913F912F910F906D
:100420000BBE0F900FBE0F901F901895E0910C051A
:10043000F0910D05E05CFF4F819191912081318118
:10044000821B930B8F739070892B11F00E943201E5
:10045000E0912B05F0912C05E05CFF4F819191918B
:1004600020813181821B930B8F739070892B11F047
:100470000E946B01E0914A05F0914B05E05CFF4F53
:100480008191919120813181821B930B8F739070A8
:10049000892B11F00E94A401E0916905F0916A0591
:1004A000E05CFF4F8191919120813181821B930B00
:1004B0008F739070892B11F00E94DD0108951F92B7
:1004C0000F920FB60F920BB60F9211242F933F93FA
:1004D0004F935F936F937F938F939F93AF93BF934C
:1004E000EF93FF932091640330916503809166033D
:1004F000909167032817390731F48091C1008F7DEF
:100500008093C10016C0E0916603F0916703EC5D33
:10051000FC4F40818091660390916703019660E4EF
:1005200070E00E949F24909367038093660340933A
:10053000C600FF91EF91BF91AF919F918F917F91F5
:100540006F915F914F913F912F910F900BBE0F9044
:100550000FBE0F901F9018951F920F920FB60F921B
:100560000BB60F9211242F933F934F935F936F938A
:100570007F938F939F93AF93BF93EF93FF932091BC
:10058000EC033091ED038091EE039091EF03281777
:10059000390731F48091C9008F7D8093C90016C05E
:1005A000E091EE03F091EF03E455FC4F4081809120
:1005B000EE039091EF03019660E470E00E949F24A7
:1005C0009093EF038093EE034093CE00FF91EF9161
:1005D000BF91AF919F918F917F916F915F914F915B
:1005E0003F912F910F900BBE0F900FBE0F901F9059
:1005F00018951F920F920FB60F920BB60F921124FF
:100600002F933F934F935F936F937F938F939F931A
:10061000AF93BF93EF93FF932091740430917504CF
:1006200080917604909177042817390731F48091EE
:10063000D1008F7D8093D10016C0E0917604F091B7
:100640007704EC5CFB4F40818091760490917704B5
:10065000019660E470E00E949F2490937704809359
:1006600076044093D600FF91EF91BF91AF919F9197
:100670008F917F916F915F914F913F912F910F904B
:100680000BBE0F900FBE0F901F9018951F920F92E8
:100690000FB60F920BB60F9211242F933F934F93E7
:1006A0005F936F937F938F939F93AF93BF93EF93DA
:1006B000FF932091FC043091FD048091FE04909101
:1006C000FF042817390731F4809131018F7D809321
:1006D000310116C0E091FE04F091FF04E454FB4F99
:1006E00040818091FE049091FF04019660E470E0E7
:1006F0000E949F249093FF048093FE044093360150
:10070000FF91EF91BF91AF919F918F917F916F91E9
:100710005F914F913F912F910F900BBE0F900FBEA5
:100720000F901F9018958F92AF92BF92CF92DF9249
:10073000EF92FF920F931F93DF93CF93CDB7DEB766
:10074000FC011382128288EE93E0A0E0B0E0848383
:100750009583A683B78384E092E091838083758735
:10076000648757874687318B208B138B028BF58AE2
:10077000E48AD78AC68AB18EA08E828E8F85838FB7
:100780008889848F8989858F8A89868FCF91DF9127
:100790001F910F91FF90EF90DF90CF90BF90AF909F
:1007A0008F9008958F92AF92BF92CF92DF92EF9287
:1007B000FF920F931F93DF93CF93CDB7DEB7FC016A
:1007C0001382128288EE93E0A0E0B0E084839583E8
:1007D000A683B78384E092E09183808375876487E2
:1007E00057874687318B208B138B028BF58AE48ADF
:1007F000D78AC68AB18EA08E828E8F85838F888994
:10080000848F8989858F8A89868FCF91DF911F9107
:100810000F91FF90EF90DF90CF90BF90AF908F90AF
:100820000895AF92BF92DF92EF92FF920F931F93C2
:10083000CF93DF93EC017A018B01DD24403081EE10
:10084000580780E0680780E0780711F0DD24D39432
:1008500091E0A92EB12CEC89FD89DD2069F0C5015C
:100860000E8C02C0880F991F0A94E2F7808360E023
:1008700079E08DE390E005C0108260E874E88EE1D5
:1008800090E0A80197010E94B224215030404040DE
:100890005040569547953795279580E12030380789
:1008A00020F0DD2011F0DD24D6CFE889F9893083EE
:1008B000EA89FB892083EE89FF89408121E030E0CD
:1008C000C9010A8C02C0880F991F0A94E2F7482BCD
:1008D0004083EE89FF894081C9010B8C02C0880FDB
:1008E000991F0A94E2F7482B4083EE89FF894081E3
:1008F000C9010C8C02C0880F991F0A94E2F7482B9B
:100900004083EE89FF8980810D8C02C0220F331F46
:100910000A94E2F7209528232083DF91CF911F913D
:100920000F91FF90EF90DF90BF90AF900895CF931D
:10093000DF93DC011E968D919C911F97EC01C05CAA
:10094000DF4FFC01EE5BFF4F28813981808191816F
:1009500028173907C9F75696ED91FC9157974081B2
:1009600021E030E0C9015A960C905A9702C0880FD6
:10097000991F0A94E2F78095842380835696ED911F
:10098000FC9157974081C9015B960C905B9702C020
:10099000880F991F0A94E2F78095842380835696E6
:1009A000ED91FC9157974081C9015C960C905C9742
:1009B00002C0880F991F0A94E2F7809584238083F0
:1009C0005696ED91FC91579780815D960C905D97BE
:1009D00002C0220F331F0A94E2F7209528232083B8
:1009E0001C96ED91FC911D97EE5BFF4F80819181EC
:1009F00092938293DF91CF910895DC011C96ED9143
:100A0000FC911D97E05CFF4F219131918081918194
:100A1000281B390B2F733070C9010895DC011C9617
:100A2000ED91FC911D97E05CFF4F20813181E054F6
:100A3000F040DF01AE5BBF4F8D919C91119728175D
:100A4000390719F42FEF3FEF07C08D919C91E80F04
:100A5000F91F8081282F30E0C9010895DC011C9620
:100A6000ED91FC911D97E05CFF4F20813181E054B6
:100A7000F040DF01AE5BBF4F8D919C91119728171D
:100A8000390719F42FEF3FEF10C08D919C9111970A
:100A9000E80FF91F20818D919C91119701968F731A
:100AA000907011969C938E9330E0C9010895FC01DB
:100AB00086859785DC01A05CBF4FFC01EE5BFF4F94
:100AC0002D913C9111978081918128173907C1F7A9
:100AD0000895CF93DF93EC01462FEE85FF85E05C10
:100AE000FF4F80819181E054F040019660E470E016
:100AF0000E949F249C01DF01AE5BBF4F8D919C91B2
:100B0000119728173907D1F3E05CFF4F808191815D
:100B1000E054F040E80FF91F4083EE85FF85E05C6C
:100B2000FF4F31832083EE89FF89208181E090E0AF
:100B30000D8C02C0880F991F0A94E2F7282B20839E
:100B400081E090E0DF91CF9108951F93109203050B
:100B50001092020528EE33E040E050E020930405B7
:100B600030930505409306055093070564E072E055
:100B7000709301056093000580EE92E090930D055F
:100B800080930C0584E293E090930F0580930E050B
:100B900085EC90E0909311058093100584EC90E033
:100BA000909313058093120580EC90E090931505C7
:100BB0008093140581EC90E09093170580931605BF
:100BC00086EC90E0909319058093180514E010933B
:100BD0001A05B3E0B0931B05A7E0A0931C05F5E050
:100BE000F0931D05E1E0E0931E051092220510929E
:100BF0002105209323053093240540932505509328
:100C000026057093200560931F0588E693E0909376
:100C10002C0580932B058CEA93E090932E0580930E
:100C20002D058DEC90E09093300580932F058CEC92
:100C300090E0909332058093310588EC90E090939A
:100C400034058093330589EC90E0909336058093CA
:100C500035058EEC90E0909338058093370510931E
:100C60003905B0933A05A0933B05F0933C05E0931A
:100C70003D051092410510924005209342053093A6
:100C80004305409344055093450570933F05609399
:100C90003E0580EF93E090934B0580934A0584E3F3
:100CA00094E090934D0580934C0585ED90E09093F2
:100CB0004F0580934E0584ED90E09093510580930D
:100CC000500580ED90E0909353058093520581ED9F
:100CD00090E0909355058093540586ED90E09093B5
:100CE00057058093560510935805B0935905A09366
:100CF0005A05F0935B05E0935C0510926005109235
:100D00005F0520936105309362054093630550931E
:100D1000640570935E0560935D0588E794E09093A9
:100D20006A05809369058CEB94E090936C05809341
:100D30006B0585E391E090936E0580936D0584E3E8
:100D400091E09093700580936F0580E391E090931C
:100D500072058093710581E391E09093740580930F
:100D6000730586E391E09093760580937505109363
:100D70007705B0937805A0937905F0937A05E09311
:100D80007B051F910895CF92DF92EF92FF920F9310
:100D90001F93CF93DF937C016B018A01C0E0D0E009
:100DA0000FC0D6016D916D01D701ED91FC910190BD
:100DB000F081E02DC7011995C80FD91F01501040CF
:100DC0000115110571F7CE01DF91CF911F910F91A0
:100DD000FF90EF90DF90CF900895EF92FF920F93E6
:100DE0001F93CF93DF937C018B01C0E0D0E0F8012B
:100DF0000F5F1F4F6491662359F0D701ED91FC916D
:100E00000190F081E02DC7011995C80FD91FEFCFD0
:100E1000CE01DF91CF911F910F91FF90EF90089538
:100E2000DC01ED91FC910190F081E02D1995089580
:100E30009C01DB01ED91FC910190F081E02DCB0153
:100E4000B90119950895EF92FF920F931F938C01AA
:100E5000DC01ED91FC910190F081E02D6DE01995A0
:100E60007C01D801ED91FC910190F081E02DC80149
:100E70006AE019959C012E0D3F1DC9011F910F912C
:100E8000FF90EF900895EF92FF920F931F937C01D4
:100E90000E94ED068C01C7010E9423079C01200FD0
:100EA000311FC9011F910F91FF90EF900895EF92AC
:100EB000FF920F931F937C01DC01ED91FC91019057
:100EC000F081E02D19958C01C7010E942307080FBE
:100ED000191FC8011F910F91FF90EF900895EF9295
:100EE000FF920F931F937C01DB01ED91FC91019028
:100EF000F081E02DCB01B70119958C01C7010E944B
:100F00002307080F191FC8011F910F91FF90EF9041
:100F10000895CF93DF93DB010D900020E9F711973F
:100F2000A61BB70BEC01E881F9810280F381E02D6B
:100F3000AD011995DF91CF9108954F925F927F9205
:100F40008F929F92AF92BF92CF92DF92EF92FF92D9
:100F50000F931F93DF93CF93CDB7DEB7A1970FB653
:100F6000F894DEBF0FBECDBF2C01742ECB01223012
:100F700008F42AE019A231E2C32ED12CCC0EDD1EDA
:100F8000822E9924AA24BB24672D752FA5019401D4
:100F90000E94B22479018A01C801B701A501940118
:100FA0000E948024472D461B0894C108D1084A306E
:100FB00014F4405D01C0495CF6014083E114F10482
:100FC0000105110521F07E2C5F2DC801DDCFC20186
:100FD000B6010E948907A1960FB6F894DEBF0FBE36
:100FE000CDBFCF91DF911F910F91FF90EF90DF90D8
:100FF000CF90BF90AF909F908F907F905F904F90D9
:101000000895DC012115310541F4ED91FC91019029
:10101000F081E02D642F199508950E949D07089591
:10102000EF92FF920F931F937C010E9401088C01A5
:10103000C7010E9423079C01200F311FC9011F9186
:101040000F91FF90EF900895EF92FF920F931F93EF
:101050009A017B0100E010E0B801A7010E9401089D
:101060001F910F91FF90EF900895CF92DF92EF9232
:10107000FF920F931F936C017B019A0100E010E037
:10108000B801A7010E9401088C01C6010E94230734
:10109000080F191FC8011F910F91FF90EF90DF906B
:1010A000CF900895EF92FF920F931F939A01E62E2F
:1010B000FF2400E010E0B801A7010E9401081F9181
:1010C0000F91FF90EF900895CF92DF92EF92FF92F1
:1010D0000F931F936C01E62E9A01FF2400E010E0AD
:1010E000B801A7010E9401088C01C6010E942307D4
:1010F000080F191FC8011F910F91FF90EF90DF900B
:10110000CF900895CF92DF92EF92FF920F931F93AB
:10111000CF93DF93EC016A017B012115310541F486
:10112000E881F9810190F081E02D642F19951FC0AD
:101130002A303105D1F477FF17C0E881F981019099
:10114000F081E02D6DE219958C0144275527BA01F5
:101150004C195D096E097F09CE012AE00E949D07A6
:101160009801280F391F04C02AE00E949D079C01A6
:10117000C901DF91CF911F910F91FF90EF90DF9008
:10118000CF900895EF92FF920F931F937C010E94DE
:1011900082088C01C7010E9423079C01200F311F88
:1011A000C9011F910F91FF90EF900895EF92FF9268
:1011B0000F931F937B019A010027F7FC0095102FD6
:1011C000B801A7010E9482081F910F91FF90EF9034
:1011D0000895CF92DF92EF92FF920F931F936C01CD
:1011E0007B019A010027F7FC0095102FB801A70199
:1011F0000E9482088C01C6010E942307080F191F54
:10120000C8011F910F91FF90EF90DF90CF9008954C
:101210000E94890708957F928F929F92AF92BF920A
:10122000CF92DF92EF92FF920F931F93CF93DF93B2
:101230004C017A018B01722ECB01BA0120E030E023
:1012400040E050E00E94CA2287FD03C0C0E0D0E029
:101250000EC0D401ED91FC910190F081E02DC4010C
:101260006DE21995EC0117FB109517F9109520E028
:1012700030E040E05FE3AA240BC0CA01B90120E0DE
:1012800030E040E251E40E94CE229B01AC01A394E5
:10129000A71498F3C801B7010E9466225B016C0194
:1012A0000E943B237B018C01C401B801A7012AE005
:1012B00030E00E940108C80FD91F772039F0C4011F
:1012C00060E272E00E948907C80FD91FC801B70108
:1012D0000E9467239B01AC01C601B5010E946522F3
:1012E00024C020E030E040E251E40E941D247B0154
:1012F0008C010E9436235B016C01CC24B7FCC094A6
:10130000DC2CC401B601A5012AE030E00E9482086D
:10131000C80FD91FC601B5010E9469239B01AC010A
:10132000C801B7010E9465227A947720D1F6CE01D8
:10133000DF91CF911F910F91FF90EF90DF90CF90B1
:10134000BF90AF909F908F907F9008950E940B095F
:101350000895EF92FF920F931F937C010E940B0957
:101360008C01C7010E942307080F191FC8011F9194
:101370000F91FF90EF900895EF92FF920F931F93BC
:101380007C010E9489078C01C7010E942307080F76
:10139000191FC8011F910F91FF90EF900895AF9210
:1013A000BF92CF92DF92EF92FF920F931F93CF9352
:1013B000DF935C016B01EE24FF24C0E0D0E010C09D
:1013C000D501ED91FC9100811181C601BE010E9401
:1013D000120D682FC501F8011995E80EF91E219626
:1013E000F60184819581C817D90750F3C701DF91B1
:1013F000CF911F910F91FF90EF90DF90CF90BF9012
:10140000AF900895EF92FF920F931F937C010E947B
:10141000CF098C01C7010E9423079C01200F311FB7
:10142000C9011F910F91FF90EF900895883008F047
:1014300078C0E82FF0E0EE0FFF1FE458FA4F7183F9
:1014400060838330D9F0843030F4813009F444C0B3
:10145000823060F439C0853051F18530D8F0863063
:1014600009F446C0873009F05CC04FC08091690024
:101470008C7F842B80936900E89A0895809169009D
:10148000440F551F440F551F837F842B80936900A1
:10149000E99A08958091690074E0440F551F7A9588
:1014A000E1F78F7C842B80936900EA9A08958091FC
:1014B000690066E0440F551F6A95E1F78F73842B2E
:1014C00080936900EB9A089580916A008C7F842B49
:1014D00080936A00EC9A089580916A00440F551F2A
:1014E000440F551F837F842B80936A00ED9A0895E3
:1014F00080916A0024E0440F551F2A95E1F78F7C04
:10150000842B80936A00EE9A089580916A0096E099
:10151000440F551F9A95E1F78F73842B80936A00CF
:10152000EF9A0895883048F5833091F0843028F49C
:101530008130B1F0823050F411C0853069F08530CF
:1015400048F0863079F0873081F40EC0E8980DC0FD
:10155000E9980BC0EA9809C0EB9807C0EC9805C061
:10156000ED9803C0EE9801C0EF98E82FF0E0EE0F81
:10157000FF1FE458FA4F1182108208951F920F92B4
:101580000FB60F920BB60F9211242F933F934F93E8
:101590005F936F937F938F939F93AF93BF93EF93DB
:1015A000FF938091800590918105892B29F0E0912E
:1015B0008005F09181051995FF91EF91BF91AF9151
:1015C0009F918F917F916F915F914F913F912F915B
:1015D0000F900BBE0F900FBE0F901F9018951F928B
:1015E0000F920FB60F920BB60F9211242F933F93C9
:1015F0004F935F936F937F938F939F93AF93BF931B
:10160000EF93FF938091820590918305892B29F0B8
:10161000E0918205F09183051995FF91EF91BF91BB
:10162000AF919F918F917F916F915F914F913F917A
:101630002F910F900BBE0F900FBE0F901F9018951B
:101640001F920F920FB60F920BB60F9211242F9389
:101650003F934F935F936F937F938F939F93AF933A
:10166000BF93EF93FF938091840590918505892B1B
:1016700029F0E0918405F09185051995FF91EF918E
:10168000BF91AF919F918F917F916F915F914F919A
:101690003F912F910F900BBE0F900FBE0F901F9098
:1016A00018951F920F920FB60F920BB60F9211243E
:1016B0002F933F934F935F936F937F938F939F935A
:1016C000AF93BF93EF93FF93809186059091870529
:1016D000892B29F0E0918605F09187051995FF91F6
:1016E000EF91BF91AF919F918F917F916F915F919A
:1016F0004F913F912F910F900BBE0F900FBE0F9007
:101700001F9018951F920F920FB60F920BB60F9263
:1017100011242F933F934F935F936F937F938F93F6
:101720009F93AF93BF93EF93FF9380917C0590912C
:101730007D05892B29F0E0917C05F0917D051995B7
:10174000FF91EF91BF91AF919F918F917F916F9199
:101750005F914F913F912F910F900BBE0F900FBE55
:101760000F901F9018951F920F920FB60F920BB605
:101770000F9211242F933F934F935F936F937F9317
:101780008F939F93AF93BF93EF93FF9380917E05C9
:1017900090917F05892B29F0E0917E05F0917F05DE
:1017A0001995FF91EF91BF91AF919F918F917F918B
:1017B0006F915F914F913F912F910F900BBE0F90C2
:1017C0000FBE0F901F9018951F920F920FB60F9299
:1017D0000BB60F9211242F933F934F935F936F9308
:1017E0007F938F939F93AF93BF93EF93FF938091DA
:1017F000880590918905892B29F0E0918805F09161
:1018000089051995FF91EF91BF91AF919F918F91AC
:101810007F916F915F914F913F912F910F900BBEF0
:101820000F900FBE0F901F9018951F920F920FB63A
:101830000F920BB60F9211242F933F934F935F9308
:101840006F937F938F939F93AF93BF93EF93FF9388
:1018500080918A0590918B05892B29F0E0918A056A
:10186000F0918B051995FF91EF91BF91AF919F91E9
:101870008F917F916F915F914F913F912F910F9039
:101880000BBE0F900FBE0F901F9018952F923F9296
:101890004F925F926F927F928F929F92AF92BF9280
:1018A000CF92DF92EF92FF920F931F93DF93CF932C
:1018B000CDB7DEB73B014C0119012A016E897F8942
:1018C000888D998D6A197B098C099D09621A730AA2
:1018D000840A950AA40193010E948024E218F30867
:1018E00004091509A80197010E94D4242A0D3B1D63
:1018F0004C1D5D1DB901CA01CF91DF911F910F9160
:10190000FF90EF90DF90CF90BF90AF909F908F901F
:101910007F906F905F904F903F902F900895089523
:1019200070E0382F20E0622B732BCB010895EF92EB
:10193000FF920F931F937B018C0161157105810547
:10194000910529F420E030E040E050E00BC00E9417
:101950002E20A80197010E94D424AC01CB01DA010A
:101960009C01AD01B901CA011F910F91FF90EF9049
:101970000895EF92FF920F931F937B018C016217E2
:1019800073078407950764F4261B370B480B590B24
:10199000CA01B9010E94970CE60EF71E081F191F15
:1019A000B701C8011F910F91FF90EF900895009724
:1019B00029F0BC0180E090E00E9433200895FC01F2
:1019C000848195816817790748F40190F081E02DB2
:1019D000309721F0E60FF71F8081089580E0089589
:1019E000FC01848195816817790730F40190F081BA
:1019F000E02DE60FF71F40830895FC019B018481D1
:101A000095816817790728F46081718161157105E6
:101A100029F410928C056CE875E002C0620F731F08
:101A2000CB010895FC01848195816817790748F4FA
:101A30000190F081E02D309721F0E60FF71F8081B3
:101A4000089580E00895FC010190F081E02D309729
:101A500029F40895861709F44083319680818823FC
:101A6000C9F70895FC0180819181009729F420E055
:101A700030E040E050E004C00E9411219B01AC0125
:101A8000B901CA010895CF92DF92EF92FF920F93AE
:101A90001F93CF93DF936C01DC01ED90FC901197C5
:101AA000E114F10409F441C01496CD91DC9115972D
:101AB0002097D9F1870102C00F5F1F4FF801808185
:101AC000992787FD90950E940925892BA9F72197D1
:101AD000CE0DDF1D01C021978881992787FD909544
:101AE0000E940925892B19F0C017D107A0F7FE0124
:101AF0003196E01BF10BD6011596FC93EE931497EB
:101B00002D913C912017310728F4C901B801AF018C
:101B10000E943821D601ED91FC91119714968D9178
:101B20009C911597E80FF91F1082DF91CF911F91BB
:101B30000F91FF90EF90DF90CF900895CF93DF93B8
:101B4000FC01C081D181209739F409C0992787FD14
:101B500090950E941925899388818823B9F7DF9190
:101B6000CF910895CF93DF93FC01C081D18120975D
:101B700039F409C0992787FD90950E941125899312
:101B800088818823B9F7DF91CF910895EF92FF9272
:101B90000F931F93CF93DF93FC01DB018617970709
:101BA00039F12481358114968D919C9115972817D0
:101BB000390701F5232BE1F0E080F180CD91DC9134
:101BC00013C0992787FD90950E9411258C0188816B
:101BD000992787FD90950E9411250817190751F440
:101BE0000894E11CF11C2196F7018081882349F7B4
:101BF00081E001C080E0DF91CF911F910F91FF90B4
:101C0000EF900895AF92BF92CF92DF92EF92FF9242
:101C10000F931F93CF93DF93FC015B017A01DB01EC
:101C200014962D913C9115972115310559F1848118
:101C30009581009739F18217930720F148175907CA
:101C400020F07C010894E108F10800811181C801AD
:101C5000CFEFDFEF6801CE0CDF1C10C0F501608113
:101C600071810E9496219C01009771F0801B910B5D
:101C7000E816F90608F0EC01C9010196C816D90664
:101C800068F702C0CFEFDFEFCE01DF91CF911F9158
:101C90000F91FF90EF90DF90CF90BF90AF9008959D
:101CA000FC01DB014481558114968D919C9115971F
:101CB000481B590BCF010E94020E0895CF93DF936A
:101CC000FC01DB01848195814817590760F4C081CC
:101CD000D1816D917C91CE01840F951F0E94962138
:101CE0009C01009719F42FEF3FEF02C02C1B3D0B16
:101CF000C901DF91CF91089540E050E00E945E0E4F
:101D00000895DF92EF92FF920F931F93CF93DF938B
:101D1000EC018C819D8148175907C8F47A01089419
:101D2000E11CF11CE881F981EE0DFF1DD0801082CD
:101D300008811981772767FD7095C8010E948B2162
:101D40009C010E0D1F1DF801D082009719F4EFEFD2
:101D5000FFEF05C088819981F901E81BF90BCF01DC
:101D6000DF91CF911F910F91FF90EF90DF90089539
:101D7000FC0144815581415050400E94810E0895DC
:101D8000CF93DF93FC01848195814817590768F44C
:101D9000C081D181772767FD7095CE01840F951F93
:101DA0000E9453219C01009719F42FEF3FEF02C0CE
:101DB0002C1B3D0BC901DF91CF91089540E050E00D
:101DC0000E94C00E08950F931F93CF93DF93FC01E1
:101DD0008B0141155105F9F061157105E1F0848120
:101DE00095812817390718F0FB01108214C0415063
:101DF0005040EC01C21BD30B4C175D0708F4EA01FD
:101E000060817181620F731FC801AE010E947C2145
:101E1000C00FD11F1882DF91CF911F910F910895AC
:101E2000FC01DB012481358114964D915C9115975D
:101E300024173507A8F080819181009789F06D9172
:101E40007C916115710561F0241B350B820F931F86
:101E50000E945E219C0180E0232B19F481E008950B
:101E600080E00895DC01FB0114968D919C911597FB
:101E7000892B31F461157105A9F090E0808108C0CB
:101E80000D90BC91A02D6115710529F490E08C9105
:101E9000882349F407C0CD010E945E219C0190E097
:101EA000232B09F491E0892F0895CF93DF939C01B0
:101EB000FB01EC01A881B981109729F06081718143
:101EC00061157105D1F4C081D181209759F08481C9
:101ED0009581892B39F0888190E022273327281BB0
:101EE000390B12C0109771F0F90184819581892B0B
:101EF00049F08C91282F30E007C0CD010E945E216F
:101F00009C0102C020E030E0C901DF91CF9108952B
:101F10000E94550F892F8095881F8827881F089554
:101F20000E94550F20E0181619060CF021E0822FB0
:101F300008950E94550F20E0181619060CF421E0B0
:101F4000822F08950E94550F892F881F8827881F88
:101F50000895FC01DB012481358114968D919C91BB
:101F600015972817390711F020E007C0CF010E940C
:101F7000550F20E0892B09F421E0822F0895FC0100
:101F8000DB0114962D913C91159784819581821BDC
:101F9000930B84179507A0F080819181009781F0C1
:101FA0006D917C916115710559F0840F951FA90100
:101FB0000E946E219C0180E0232B19F481E008959A
:101FC00080E00895FC01DB012481358114968D9118
:101FD0009C9115972817390710F480E00895CF01D8
:101FE00040E050E00E94BF0F08950F931F93CF93DE
:101FF000DF93EC018B016F5F7F4F888199810E9495
:102000003C20009711F480E005C0998388831B83EE
:102010000A8381E0DF91CF911F910F9108952F9254
:102020003F924F925F926F927F928F929F92AF9268
:10203000BF92CF92DF92EF92FF920F931F93CF93B5
:10204000DF935C012B014A01DC0114960D911C9178
:1020500015970115110509F4D4C0FB01C480D58082
:10206000C114D10409F4CDC0DA0114966D907C90AE
:1020700015976C187D08FC01E080F18061147104F3
:1020800091F01BC0D4016C9111967C91119714961C
:102090004D915C9115978C2F0E943821F401E480BA
:1020A000F580EC0EFD1ED2016D917C91C7010E945E
:1020B0009621EC01009731F7A4C077FE02C06701BA
:1020C0002EC0FB0120803180E8013CC08E010E193A
:1020D0001F09C601B701A8010E9438210C0D1D1D62
:1020E000D4016C9111967C91119714964D915C914D
:1020F0001597C8010E943821F401C480D580C00E14
:10210000D11ED2011496ED90FC901597EC0EFD1E99
:10211000F50184819581860D971D95838483D20175
:102120006D917C91C7010E949621EC01009771F698
:10213000C601B7010E94672164C07B01EC0CFD1C45
:10214000C60DD71DC701B1010E949621BC010097A1
:10215000A1F7C017D10709F454C0F501828193811A
:102160008C179D0708F044C0C501BE010E94F50F01
:102170008823F1F546C0C501B201A9010E94020EF3
:10218000EC0197FD3EC0D5016D917C911197F20154
:10219000848195818C0F9D1F680F791F14964D9136
:1021A0005C911597481B590BCB01860D971D0E941A
:1021B0004121D50114968D919C911597860D971DFF
:1021C00015969C938E931497ED91FC911197E80FBF
:1021D000F91F10822D913C912C0F3D1FF40160815D
:1021E000718144815581C9010E9438219E0105C039
:1021F000D50114962D913C9115972150304037FF11
:10220000BACFDF91CF911F910F91FF90EF90DF90A8
:10221000CF90BF90AF909F908F907F906F905F9086
:102220004F903F902F900895CF93DF93EC018881DA
:102230009981892B29F08A819B818617970760F401
:10224000CE010E94F50F882341F08C819D81892B5E
:1022500019F4E881F981108281E0DF91CF9108952E
:10226000EF92FF920F931F93CF93DF93EC017B01CB
:102270006C817D81E114F104C1F04115510599F0A3
:102280008A01060F171FB8010E941411882369F0F4
:10229000888199812C813D81820F931FB7010E9413
:1022A00067211D830C8381E001C080E0DF91CF9125
:1022B0001F910F91FF90EF900895EF92FF920F936F
:1022C0001F93DF93CF93CDB7DEB72B970FB6F8945C
:1022D000DEBF0FBECDBF7C01CB01BA018E010F5F07
:1022E0001F4FA8012AE030E00E941A22F801019055
:1022F0000020E9F73197E01BF10BC701B801AF01EE
:102300000E9430112B960FB6F894DEBF0FBECDBFE2
:10231000CF91DF911F910F91FF90EF900895EF9271
:10232000FF920F931F93DF93CF93CDB7DEB72C9718
:102330000FB6F894DEBF0FBECDBF7C01CB01BA0152
:102340008E010F5F1F4FA8012AE030E00E94D121CB
:10235000F80101900020E9F73197E01BF10BC7016C
:10236000B801AF010E9430112C960FB6F894DEBF71
:102370000FBECDBFCF91DF911F910F91FF90EF90D6
:102380000895EF92FF920F931F93DF93CF9300D0A6
:1023900000D0CDB7DEB77C01CB018E010F5F1F4FA0
:1023A000B8014AE050E00E943F22F801019000206D
:1023B000E9F73197E01BF10BC701B801AF010E94AB
:1023C000301126960FB6F894DEBF0FBECDBFCF9169
:1023D000DF911F910F91FF90EF900895EF92FF9280
:1023E0000F931F93DF93CF93CDB7DEB727970FB629
:1023F000F894DEBF0FBECDBF7C01CB018E010F5F15
:102400001F4FB8014AE050E00E94B021F80101904E
:102410000020E9F73197E01BF10BC701B801AF01CC
:102420000E94301127960FB6F894DEBF0FBECDBFC5
:10243000CF91DF911F910F91FF90EF900895EF9250
:10244000FF920F931F93DF93CF9300D00F92CDB7DE
:10245000DEB77C01862F90E08E010F5F1F4FB80121
:102460004AE050E00E94B021F80101900020E9F715
:102470003197E01BF10BC701B801AF010E94301189
:102480000F900F900F900F90CF91DF911F910F91B0
:10249000FF90EF900895DF93CF930F920F92CDB7F7
:1024A000DEB769831A82BE016F5F7F4F41E050E063
:1024B0000E9430110F900F90CF91DF910895611518
:1024C000710511F480E00895DB010D900020E9F71B
:1024D0001197A61BB70BAD010E9430110895FB01A7
:1024E00060817181448155810E9430110895CF939C
:1024F000DF93EC0188819981009711F00E94831F7E
:10250000198218821D821C821B821A82DF91CF9150
:1025100008950F931F93182F092F0E945D11882390
:1025200021F4812F902F0E947712812F902F1F91DD
:102530000F9108950F931F93182F092F0E948F1149
:10254000882321F4812F902F0E947712812F902FC2
:102550001F910F9108950F931F93182F092F0E9419
:10256000C111882321F4812F902F0E947712812F8F
:10257000902F1F910F9108950F931F93182F092FDC
:102580000E94EE11882321F4812F902F0E94771250
:10259000812F902F1F910F9108950F931F93182F44
:1025A000092F0E941F12882321F4812F902F0E944F
:1025B0007712812F902F1F910F9108950F931F93E2
:1025C000182F092F0E944B12882321F4812F902F5E
:1025D0000E947712812F902F1F910F9108950F93D2
:1025E0001F93182F092F6115710561F0DB010D9004
:1025F0000020E9F71197A61BB70BAD010E9430111F
:10260000882321F4812F902F0E947712812F902F01
:102610001F910F9108950F931F93182F092FFB01FE
:1026200060817181448155810E943011882321F499
:10263000812F902F0E947712812F902F1F910F9141
:102640000895EF92FF920F931F93CF93DF93EC01C6
:102650007B018A01BA010E941411882321F4CE0162
:102660000E94771207C01D830C8388819981B7016E
:102670000E946721CE01DF91CF911F910F91FF90B2
:10268000EF900895CF93DF93EC01198218821B829B
:102690001A821D821C821E826115710551F0DB01B8
:1026A0000D900020E9F71197A61BB70BAD010E9412
:1026B0002113DF91CF910895CF93DF93EC0119821D
:1026C00018821B821A821D821C821E82611571056E
:1026D00051F0DB010D900020E9F71197A61BB70B15
:1026E000AD010E942113DF91CF9108950F931F93A5
:1026F000182F092F6115710559F0DB010D9000208D
:10270000E9F71197A61BB70BAD010E94211302C078
:102710000E947712812F902F1F910F910895EF92B1
:10272000FF920F931F93DF93CF93CDB7DEB7A1979F
:102730000FB6F894DEBF0FBECDBF8C01FC01118235
:10274000108213821282158214821682CB01BA0182
:102750007E010894E11CF11CA70130E00E941A22BE
:10276000C801B7010E947613A1960FB6F894DEBF98
:102770000FBECDBFCF91DF911F910F91FF90EF90D2
:102780000895EF92FF920F931F93DF93CF93CDB7EE
:10279000DEB7A1970FB6F894DEBF0FBECDBF8C0198
:1027A000FC01118210821382128215821482168219
:1027B000CB01BA017E010894E11CF11CA70130E0B5
:1027C0000E941A22C801B7010E947613A1960FB683
:1027D000F894DEBF0FBECDBFCF91DF911F910F9157
:1027E000FF90EF900895EF92FF920F931F93DF9366
:1027F000CF93CDB7DEB7A2970FB6F894DEBF0FBE6A
:10280000CDBF8C01FC0111821082138212821582CD
:1028100014821682CB01BA017E010894E11CF11CDE
:10282000A70130E00E94D121C801B7010E947613B0
:10283000A2960FB6F894DEBF0FBECDBFCF91DF9149
:102840001F910F91FF90EF900895EF92FF920F93D9
:102850001F93DF93CF93CDB7DEB7A2970FB6F8944F
:10286000DEBF0FBECDBF8C01FC011182108213822E
:102870001282158214821682CB01BA017E0108945D
:10288000E11CF11CA70130E00E94D121C801B70171
:102890000E947613A2960FB6F894DEBF0FBECDBF8E
:1028A000CF91DF911F910F91FF90EF900895EF92DC
:1028B000FF920F931F93DF93CF93CDB7DEB761974E
:1028C0000FB6F894DEBF0FBECDBF8C01CB01F8016F
:1028D00011821082138212821582148216827E0166
:1028E0000894E11CF11CB70150E00E943F22C8018E
:1028F000B7010E94761361960FB6F894DEBF0FBE43
:10290000CDBFCF91DF911F910F91FF90EF90089570
:10291000EF92FF920F931F93DF93CF93CDB7DEB764
:1029200061970FB6F894DEBF0FBECDBF8C01CB010F
:10293000F80111821082138212821582148216828B
:102940007E010894E11CF11CB70150E00E943F2277
:10295000C801B7010E94761361960FB6F894DEBFE6
:102960000FBECDBFCF91DF911F910F91FF90EF90E0
:102970000895EF92FF920F931F93DF93CF93CDB7FC
:10298000DEB762970FB6F894DEBF0FBECDBF8C01E5
:10299000CB01F801118210821382128215821482F7
:1029A00016827E010894E11CF11CB70150E00E94E0
:1029B000B021C801B7010E94761362960FB6F89451
:1029C000DEBF0FBECDBFCF91DF911F910F91FF9062
:1029D000EF900895EF92FF920F931F93DF93CF93A1
:1029E000CDB7DEB762970FB6F894DEBF0FBECDBF8E
:1029F0008C01CB01F80111821082138212821582A0
:102A0000148216827E010894E11CF11CB70150E08B
:102A10000E94B021C801B7010E94761362960FB6DA
:102A2000F894DEBF0FBECDBFCF91DF911F910F9104
:102A3000FF90EF900895EF92FF920F931F93DF9313
:102A4000CF93CDB7DEB729970FB6F894DEBF0FBE90
:102A5000CDBF8C01862FF801118210821382128261
:102A600015821482168290E07E010894E11CF11C0C
:102A7000B70150E00E943F22C801B7010E947613BF
:102A800029960FB6F894DEBF0FBECDBFCF91DF9170
:102A90001F910F91FF90EF900895EF92FF920F9387
:102AA0001F93DF93CF93CDB7DEB729970FB6F89476
:102AB000DEBF0FBECDBF8C01862FF80111821082C0
:102AC0001382128215821482168290E07E0108948D
:102AD000E11CF11CB70150E00E943F22C801B70180
:102AE0000E94761329960FB6F894DEBF0FBECDBFB5
:102AF000CF91DF911F910F91FF90EF900895DF9399
:102B0000CF930F920F92CDB7DEB7FC0111821082E6
:102B10001382128215821482168269831A82BE0180
:102B20006F5F7F4F0E9476130F900F90CF91DF91D0
:102B30000895DF93CF930F920F92CDB7DEB7FC01CC
:102B40001182108213821282158214821682698386
:102B50001A82BE016F5F7F4F0E9476130F900F9015
:102B6000CF91DF910895BF92CF92DF92EF92FF92C3
:102B70000F931F93CF93DF93082FB92E6B017A0128
:102B8000E9012417350710F4EA017901802F9B2D04
:102B90006AE272E00E944213D60114968D919C91D4
:102BA00015978E159F05D0F08C179D0708F4EC0142
:102BB000D601ED91FC911197EC0FFD1F1081108251
:102BC0006D917C916E0D7F1D802F9B2D0E94761341
:102BD000D601ED91FC91EC0FFD1F1083802F9B2DF2
:102BE000DF91CF911F910F91FF90EF90DF90CF90E9
:102BF000BF9008950F931F938C01FB0124813581B1
:102C00000E94B315C8011F910F910895CF93DF93D0
:102C1000EC01FB018617970761F0608171816115F6
:102C2000710529F0448155810E94211302C00E9440
:102C30007712CE01DF91CF910895FC0111821082AD
:102C4000138212821582148216820E94061608953B
:102C5000FC01118210821382128215821482168264
:102C60000E9406160895FC01808191810E94831FB5
:102C70000895FC01808191810E94831F0895FC01C9
:102C800020E030E08081882311F421E030E0C901A8
:102C90000895FC0181E080830895089508950E94BD
:102CA000831F08950E94D91E08951F920F920FB698
:102CB0000F9211242F933F938F939F93AF93BF93C2
:102CC0008091910590919205A0919305B091940502
:102CD000309195050196A11DB11D232F2D5F2D3734
:102CE00020F02D570196A11DB11D209395058093CD
:102CF000910590939205A0939305B09394058091CC
:102D00008D0590918E05A0918F05B091900501964B
:102D1000A11DB11D80938D0590938E05A0938F0505
:102D2000B0939005BF91AF919F918F913F912F915B
:102D30000F900FBE0F901F9018958FB7F8942091A9
:102D400091053091920540919305509194058FBF64
:102D5000B901CA0108959FB7F89420918D0530916B
:102D60008E0540918F055091900586B5A89B06C0B1
:102D70008F3F21F02F5F3F4F4F4F5F4F9FBF542F2B
:102D8000432F322F2227280F311D411D511D82E074
:102D9000220F331F441F551F8A95D1F7B901CA016D
:102DA00008959B01AC017FB7F89480918D059091B7
:102DB0008E05A0918F05B091900566B5A89B05C0C2
:102DC0006F3F19F00196A11DB11D7FBFBA2FA92F2A
:102DD000982F8827860F911DA11DB11D62E0880FD5
:102DE000991FAA1FBB1F6A95D1F7BC012DC0FFB761
:102DF000F89480918D0590918E05A0918F05B091EA
:102E00009005E6B5A89B05C0EF3F19F00196A11DFE
:102E1000B11DFFBFBA2FA92F982F88278E0F911DA4
:102E2000A11DB11DE2E0880F991FAA1FBB1FEA95E3
:102E3000D1F7861B970B885E9340C8F22150304033
:102E40004040504068517C4F2115310541055105E6
:102E500071F60895019739F0880F991F880F991F0F
:102E600002970197F1F70895789484B5826084BD44
:102E700084B5816084BD85B5826085BD85B581607E
:102E800085BDEEE6F0E0808181608083E1E8F0E0DE
:102E90001082808182608083808181608083E0E80D
:102EA000F0E0808181608083E1EBF0E080818460EC
:102EB0008083E0EBF0E0808181608083E1E9F0E0F5
:102EC000808182608083808181608083E0E9F0E09E
:102ED000808181608083E1EAF0E08081826080838C
:102EE000808181608083E0EAF0E08081816080837E
:102EF000E1E2F1E080818260808380818160808373
:102F0000E0E2F1E0808181608083EAE7F0E08081A7
:102F100084608083808182608083808181608083FF
:102F20008081806880831092C100089580932B0275
:102F30000895382F863308F0365320917B00832F75
:102F400086958695869590E08170907043E0880F15
:102F5000991F4A95E1F7277F282B20937B00377034
:102F600080912B028295880F880F807C832B809321
:102F70007C0080917A00806480937A0080917A004E
:102F800086FDFCCF2091780040917900942F80E05D
:102F900030E0282B392BC90108951F93CF93DF937D
:102FA000182FEB0161E00E94A818209709F4C5C012
:102FB000CF3FD10509F4C4C0E12FF0E0E254FE4F49
:102FC0008491893009F466C08A30B0F48430F1F11C
:102FD000853040F4823059F1833070F5813009F04A
:102FE000A9C020C0873009F443C0883008F048C029
:102FF000863009F09FC034C08D3009F473C08E3024
:1030000038F48B3009F45AC08C3008F061C04CC0E1
:10301000803109F47BC0813109F482C08F3009F01E
:1030200089C06AC084B5806884BDC7BD8DC084B5C1
:10303000806284BDC8BD88C0809180008068809314
:103040008000D0938900C09388007EC0809180006A
:10305000806280938000D0938B00C0938A0074C0FC
:103060008091B00080688093B000C093B3006CC0C2
:103070008091B00080628093B000C093B40064C0BF
:1030800080919000806880939000D0939900C093C5
:1030900098005AC080919000806280939000D093F5
:1030A0009B00C0939A0050C08091900088608093EC
:1030B0009000D0939D00C0939C0046C08091A000DA
:1030C00080688093A000D093A900C093A8003CC062
:1030D0008091A00080628093A000D093AB00C09349
:1030E000AA0032C08091A00088608093A000D09395
:1030F000AD00C093AC0028C080912001806880930F
:103100002001D0932901C09328011EC08091200185
:10311000806280932001D0932B01C0932A0114C0B8
:1031200080912001886080932001D0932D01C0936D
:103130002C010AC0C038D1051CF4812F60E002C008
:10314000812F61E00E944219DF91CF911F91089574
:10315000482F50E0CA0188589E4FFC0124914E5CD4
:103160005E4FFA0184918823C1F0E82FF0E0EE0F62
:10317000FF1FEC51FF4FA591B491662341F49FB717
:10318000F8948C91209582238C939FBF08959FB7CC
:10319000F8948C91822B8C939FBF0895893009F409
:1031A00049C08A30A0F4843051F1853040F4823037
:1031B00079F1833000F5813009F063C026C0873093
:1031C00079F1883098F5863009F05BC025C08D30E4
:1031D00009F442C08E3028F48B30B1F18C30C0F548
:1031E0002DC0803109F442C0813109F445C08F30CF
:1031F00009F047C037C0809180008F7703C080916D
:1032000080008F7D80938000089584B58F7702C001
:1032100084B58F7D84BD08958091B0008F7703C001
:103220008091B0008F7D8093B000089580919000D0
:103230008F7707C0809190008F7D03C080919000B0
:10324000877F8093900008958091A0008F7707C0BA
:103250008091A0008F7D03C08091A000877F809324
:10326000A0000895809120018F7703C080912001F4
:103270008F7D80932001089580912001877F809326
:1032800020010895FF920F931F93F62E482F50E0D0
:10329000CA0182549E4FFC012491CA0188589E4F56
:1032A000FC0114914E5C5E4FFA0104910023C9F0B9
:1032B000222319F0822F0E94CE18E02FF0E0EE0FAB
:1032C000FF1FE250FF4FA591B4919FB7F894FF20E4
:1032D00021F48C911095812302C08C91812B8C93C9
:1032E0009FBF1F910F91FF9008950F931F93482F39
:1032F00050E0CA0182549E4FFC012491CA018858B3
:103300009E4FFC0104914E5C5E4FFA011491112313
:1033100019F420E030E015C0222319F0822F0E941A
:10332000CE18812F90E0880F991F885E9E4FFC0178
:10333000A591B4918C9120E030E0802311F021E040
:1033400030E0C9011F910F9108958130910579F006
:10335000823091051CF4892B39F008958230910553
:1033600049F0039781F40BC080E095E005C08FE140
:1033700095E002C08EE395E00E94C30608958DE5B6
:1033800095E00E94C30608950F931F93CF93DF9398
:103390008A01E9018130910581F0823091051CF4A8
:1033A000009741F014C08230910551F083309105AF
:1033B00071F409C080E095E008C08FE195E005C098
:1033C0008EE395E002C08DE595E00E942E05F801A0
:1033D0008083198218828F5F9F4F21F081E090E0F7
:1033E00099838883DF91CF911F910F910895813048
:1033F000910579F0823091051CF4892B39F00895FC
:103400008230910549F0039781F40BC080E095E08C
:1034100005C08FE195E002C08EE395E00E941104A3
:1034200008958DE595E00E9411040895AF92BF9232
:10343000CF92DF92EF92FF920F931F93CF93DF9380
:103440000E9434170E94591AC0912C02D0912D026B
:10345000AA24BB2465010FC00E94AB167B018C011E
:103460006A157B058C059D0531F00E94E91A0E94C2
:103470004E1A5701680188819981892B69F30E944E
:10348000581A80E090E0DF91CF911F910F91FF904B
:10349000EF90DF90CF90BF90AF9008958091990505
:1034A0008F5F80939905833010F0109299050895ED
:1034B0000895109296051092970510929805109213
:1034C000990588E1EAE9F5E0DF011D928A95E9F7BF
:1034D0008091A60261E00E94A8188091AA0261E092
:1034E0000E94A8188091AE0261E00E94A818809105
:1034F000B20261E00E94A8188091B60261E00E94C9
:10350000A8188091BA0261E00E94A8188EEF9FEF80
:10351000AFEFBFEF80939A0590939B05A0939C0516
:10352000B0939D058091BE0261E00E94A8188BEFC8
:103530009FEFAFEFBFEF80939E0590939F05A09301
:10354000A005B093A1058091C20261E00E94A81875
:103550008DEF9FEFAFEFBFEF8093A2059093A30590
:10356000A093A405B093A5058091C60261E00E94D6
:10357000A8181092A6051092A7051092A8051092FF
:10358000A9058091CA0261E00E94A8188FEF9FEF01
:10359000AFEFBFEF8093AA059093AB05A093AC0566
:1035A000B093AD058091CE0261E00E94A81889EF2A
:1035B0009FEFAFEFBFEF8093AE059093AF05A09361
:1035C000B005B093B1058091D20261E00E94A818C5
:1035D00008956F927F928F929F92AF92BF92CF92F7
:1035E000DF92EF92FF920F931F93E0902E02F090E4
:1035F0002F020091300210913102C801B70120E082
:1036000030E040E853E40E94CA2287FD02C06FEF19
:1036100010C0C801B70120E030E040E050E00E9457
:10362000192487FF02C060E004C0C801B7010E94EE
:103630003B238091A6020E944219E0903202F09052
:1036400033020091340210913502C801B70120E025
:1036500030E040E853E40E94CA2287FD02C06FEFC9
:1036600010C0C801B70120E030E040E050E00E9407
:10367000192487FF02C060E004C0C801B7010E949E
:103680003B238091AA020E944219E0903602F090FA
:1036900037020091380210913902C801B70120E0C9
:1036A00030E040E853E40E94CA2287FD02C06FEF79
:1036B00010C0C801B70120E030E040E050E00E94B7
:1036C000192487FF02C060E004C0C801B7010E944E
:1036D0003B238091AE020E944219E0903A02F090A2
:1036E0003B0200913C0210913D02C801B70120E06D
:1036F00030E040E853E40E94CA2287FD02C06FEF29
:1037000010C0C801B70120E030E040E050E00E9466
:10371000192487FF02C060E004C0C801B7010E94FD
:103720003B238091B2020E944219E0903E02F09049
:103730003F020091400210914102C801B70120E010
:1037400030E040E853E40E94CA2287FD02C06FEFD8
:1037500010C0C801B70120E030E040E050E00E9416
:10376000192487FF02C060E004C0C801B7010E94AD
:103770003B238091B6020E944219E0904202F090F1
:1037800043020091440210914502C801B70120E0B4
:1037900030E040E853E40E94CA2287FD02C06FEF88
:1037A00010C0C801B70120E030E040E050E00E94C6
:1037B000192487FF02C060E004C0C801B7010E945D
:1037C0003B238091BA020E944219E0909A05F09042
:1037D0009B0500919C0510919D05C801B7010E94B1
:1037E00069233B014C0120914E0230914F024091E0
:1037F0005002509151020E94CA2288235CF417FDA6
:1038000009C0A0904602B0904702C0904802D090F4
:1038100049020AC00F2EF0E0AF2EF0E0BF2EF0E01C
:10382000CF2EF0E0DF2EF02D60914A0270914B0216
:1038300080914C0290914D0220E030E040E85FE33F
:103840000E9465229B01AC01C401B3010E941924AE
:1038500088234CF010929A0510929B0510929C05BB
:1038600010929D050DC00894E11CF11C011D111D55
:10387000E0929A05F0929B0500939C0510939D059C
:10388000C601B50120E030E040E853E40E94CA22BE
:1038900087FD02C06FEF10C0C601B50120E030E027
:1038A00040E050E00E94192487FF02C060E004C09D
:1038B000C601B5010E943B238091BE020E944219BD
:1038C000E0909E05F0909F050091A0051091A10544
:1038D000C801B7010E9469233B014C0120915E029F
:1038E00030915F0240916002509161020E94CA22B1
:1038F00088235CF417FD09C0A0905602B0905702CF
:10390000C0905802D09059020AC00F2EF0E0AF2E9E
:10391000F0E0BF2EF0E0CF2EF0E0DF2EF02D609132
:103920005A0270915B0280915C0290915D0220E0EE
:1039300030E040E85FE30E9465229B01AC01C401D6
:10394000B3010E94192488234CF010929E05109216
:103950009F051092A0051092A1050DC00894E11CCE
:10396000F11C011D111DE0929E05F0929F05009330
:10397000A0051093A105C601B50120E030E040E8A4
:1039800053E40E94CA2287FD02C06FEF10C0C60137
:10399000B50120E030E040E050E00E94192487FFAC
:1039A00002C060E004C0C601B5010E943B238091C3
:1039B000C2020E944219E090A205F090A305009176
:1039C000A4051091A505C801B7010E9469233B0118
:1039D0004C0120916E0230916F0240917002509123
:1039E00071020E94CA2288235CF417FD09C0A090CE
:1039F0006602B0906702C0906802D09069020AC067
:103A00000F2EF0E0AF2EF0E0BF2EF0E0CF2EF0E072
:103A1000DF2EF02D60916A0270916B0280916C0232
:103A200090916D0220E030E040E85FE30E94652263
:103A30009B01AC01C401B3010E94192488234CF0FE
:103A40001092A2051092A3051092A4051092A5054C
:103A50000DC00894E11CF11C011D111DE092A2058E
:103A6000F092A3050093A4051093A505C601B50126
:103A700020E030E040E853E40E94CA2287FD02C003
:103A80006FEF10C0C601B50120E030E040E050E02B
:103A90000E94192487FF02C060E004C0C601B5017E
:103AA0000E943B238091C6020E9442198091990591
:103AB000882309F0F6C0E090A605F090A7050091D4
:103AC000A8051091A905C801B7010E9469233B010F
:103AD0004C0120917E0230917F02409180025091F2
:103AE00081020E94CA2288235CF417FD09C0A090BD
:103AF0007602B0907702C0907802D09079020AC026
:103B00000F2EF0E0AF2EF0E0BF2EF0E0CF2EF0E071
:103B1000DF2EF02D60917A0270917B0280917C0201
:103B200090917D0220E030E040E85FE30E94652252
:103B30009B01AC01C401B3010E94192488234CF0FD
:103B40001092A6051092A7051092A8051092A9053B
:103B50000DC00894E11CF11C011D111DE092A60589
:103B6000F092A7050093A8051093A905C601B50119
:103B700020E030E040E853E40E94CA2287FD02C002
:103B80006FEF10C0C601B50120E030E040E050E02A
:103B90000E94192487FF02C060E004C0C601B5017D
:103BA0000E943B238091CA020E944219E090AA051C
:103BB000F090AB050091AC051091AD05C801B701BF
:103BC0000E9469233B014C0120918E0230918F02AB
:103BD00040919002509191020E94CA2288235CF485
:103BE00017FD09C0A0908602B0908702C09088029D
:103BF000D09089020AC00F2EF0E0AF2EF0E0BF2E69
:103C0000F0E0CF2EF0E0DF2EF02D60918A0270916F
:103C10008B0280918C0290918D0220E030E040E890
:103C20005FE30E9465229B01AC01C401B3010E94C5
:103C3000192488234CF01092AA051092AB0510921B
:103C4000AC051092AD050DC00894E11CF11C011DDE
:103C5000111DE092AA05F092AB050093AC051093FC
:103C6000AD05C601B50120E030E040E853E40E9414
:103C7000CA2287FD02C06FEF10C0C601B50120E067
:103C800030E040E050E00E94192487FF02C060E06D
:103C900004C0C601B5010E943B238091CE020E9460
:103CA0004219E090AE05F090AF050091B00510917B
:103CB000B105C801B7010E9469233B014C01209165
:103CC0009E0230919F024091A0025091A1020E9459
:103CD000CA2288235CF417FD09C0A0909602B09018
:103CE0009702C0909802D09099020AC00F2EF0E07F
:103CF000AF2EF0E0BF2EF0E0CF2EF0E0DF2EF02D63
:103D000060919A0270919B0280919C0290919D0219
:103D100020E030E040E85FE30E9465229B01AC01B7
:103D2000C401B3010E94192488234CF01092AE05FF
:103D30001092AF051092B0051092B1050DC0089415
:103D4000E11CF11C011D111DE092AE05F092AF05C2
:103D50000093B0051093B105C601B50120E030E035
:103D600040E853E40E94CA2287FD02C06FEF10C0F2
:103D7000C601B50120E030E040E050E00E94192487
:103D800087FF02C060E004C0C601B5010E943B236A
:103D90008091D2020E9442191F910F91FF90EF90E3
:103DA000DF90CF90BF90AF909F908F907F906F905B
:103DB0000895CF93DF93BC018230910510F462E047
:103DC00070E0A091B405B091B505ED01E0E0F0E040
:103DD00040E050E021C0888199818617970769F4F7
:103DE0008A819B81309719F09383828304C09093DA
:103DF000B5058093B405FE0134C06817790738F41F
:103E00004115510519F08417950708F4AC01FE011E
:103E10008A819B819C01E9012097E9F641155105B2
:103E2000A9F1CA01861B970B049708F4BA01E0E0D8
:103E3000F0E02AC08D919C91119784179507F9F4B1
:103E40006417750781F412968D919C9113973097A2
:103E500019F09383828304C09093B5058093B405D1
:103E6000FD0132964CC0CA01861B970BFD01E80F7D
:103E7000F91F6193719302978D939C9340C0FD014C
:103E8000828193819C01D9011097A1F68091B2059E
:103E90009091B305892B41F48091D8029091D90279
:103EA0009093B3058093B2054091DA025091DB0202
:103EB0004115510541F44DB75EB78091D6029091FE
:103EC000D702481B590B2091B2053091B305CA01A6
:103ED000821B930B8617970780F0AB014E5F5F4FF5
:103EE0008417950750F0420F531F5093B30540932A
:103EF000B205F9016193719302C0E0E0F0E0CF01F7
:103F0000DF91CF910895CF93DF93009709F450C0CC
:103F1000EC0122971B821A82A091B405B091B505DD
:103F2000109709F140E050E0AC17BD0708F1BB83E2
:103F3000AA83FE0121913191E20FF31FAE17BF0753
:103F400079F48D919C911197280F391F2E5F3F4F67
:103F50003983288312968D919C9113979B838A8332
:103F60004115510571F4D093B505C093B40520C037
:103F700012968D919C911397AD01009711F0DC0181
:103F8000D3CFFA01D383C28321913191E20FF31F82
:103F9000CE17DF0769F488819981280F391F2E5FBA
:103FA0003F4FFA01318320838A819B8193838283EF
:103FB000DF91CF910895A0E0B0E0E1EEFFE10C9435
:103FC0002C25EC01A880B980CA80DB80A114B10443
:103FD000C104D10441F484E2A82E89EDB82E8BE50A
:103FE000C82E87E0D82EC601B5012DE133EF41E0A0
:103FF00050E00E94D42427EA31E440E050E00E94DF
:1040000080247B018C01C601B5012DE133EF41E035
:1040100050E00E94D424CA01B9012CEE34EF4FEFD6
:104020005FEF0E9480246E0D7F1D801F911F97FF00
:1040300004C06150704080409048688379838A83CF
:104040009B839B01AC015F77B901CA01CDB7DEB795
:10405000EAE00C9448250E94DB1F08958CED92E065
:104060000E94DB1F08956093DC027093DD02809351
:10407000DE029093DF020895A0E0B0E0E2E4F0E217
:104080000C9426256C01009729F4CB010E94D91EBF
:104090006C01C1C08EEF882E8FEF982E8C0C9D1C6A
:1040A0008601060F171F0815190508F4B2C0F401A0
:1040B000A081B181A617B707B8F0A530B10508F403
:1040C000AAC0CD0104978617970708F4A4C01297D9
:1040D000A61BB70BF801A193B193D4016D937C9308
:1040E000CF010E94831F97C07B01EA1AFB0AEEEF03
:1040F000FFEFEE0EFF1E36016A0E7B1EC091B40567
:10410000D091B50544245524AA24BB244AC0C61521
:10411000D705E1F5488159814E155F05B8F1CA010F
:1041200004978E159F05B0F41296A40FB51FF401E5
:10413000B183A0832A813B814114510431F0D20123
:1041400013963C932E93129766C03093B505209337
:10415000B40561C08A819B81F801938382834250B8
:1041600050404E195F09518340834114510431F08E
:10417000D20113961C930E93129704C01093B505A9
:104180000093B405F4017183608345C088819981EF
:10419000A816B90608F45C012E018A819B819C0156
:1041A000E901209709F0B3CF8091B2059091B30552
:1041B00086159705E9F4A616B706D0F42091DA0221
:1041C0003091DB022115310541F42DB73EB78091C6
:1041D000D6029091D702281B390B02171307C8F497
:1041E0001093B3050093B205D4016D937C9313C073
:1041F000CB010E94D91EEC01009759F0F4014081D7
:104200005181B6010E943821C6010E94831F6E01B0
:1042100002C0CC24DD24C601CDB7DEB7E0E10C94AA
:1042200042251F93FC0199278827BC01E89411912E
:104230001032E9F3193010F01E30C8F31B3251F080
:104240001D3249F4689406C00E940522610F711D59
:10425000811D911D119110531A30B0F33EF49095C9
:104260008095709561957F4F8F4F9F4F1F91089557
:10427000FB01DC0102C001900D9241505040D8F783
:1042800008956817790768F4FB01DC01E40FF51F56
:10429000A40FB51F02C002900E9241505040D8F7B3
:1042A00008950C943821FC018191861721F0882310
:1042B000D9F7992708953197CF010895FB01DC01C3
:1042C0008D91019080190110D9F3990B0895FB018C
:1042D000DC0101900D920020E1F70895FB01DC0163
:1042E0004150504030F08D910190801919F4002018
:1042F000B9F7881B990B0895FB01DC014150504030
:1043000048F001900D920020C9F701C01D92415064
:104310005040E0F70895FC0181E090E0019006161E
:1043200009F4CF010020D1F701970895FB015191C5
:104330005523A9F0BF01DC014D9145174111E1F76B
:1043400059F4CD010190002049F04D9140154111E3
:10435000C9F3FB014111EFCF81E090E0019708958F
:10436000FB019F01E8944230C4F04532B4F44A3076
:1043700029F497FB1EF4909581959F4F642F772722
:104380000E94EF24805D8A330CF0895D8193CB011C
:104390000097A1F716F45DE251931082C9010C94C5
:1043A0005522FA01CF93FF93EF93223044F1253247
:1043B00034F5C22FE894CA3049F497FB3EF4909547
:1043C0008095709561957F4F8F4F9F4F2C2F33278E
:1043D00044275527FF93EF930E94B224EF91FF915A
:1043E000605D6A330CF0695D6193B901CA01605088
:1043F00070408040904051F716F4CDE2C193108296
:104400008F919F91CF910C945522592F482F372F80
:10441000262F660F771F881F991F660F771F881F2B
:10442000991F620F731F841F951F660F771F881FC8
:10443000991F0895FA01CF93FF93EF932230CCF0A8
:104440002532BCF4C22F2C2F332744275527FF9346
:10445000EF930E94B224EF91FF91605D6A330CF0FC
:10446000695D6193B901CA0160507040804090401D
:1044700051F710828F919F91CF910C945522FB019F
:104480009F01423074F0453264F4642F77270E9414
:10449000EF24805D8A330CF0895D8193CB01009716
:1044A000A1F71082C9010C945522DC01FC01672F91
:1044B00071917723E1F7329704C07C916D937083FB
:1044C0006291AE17BF07C8F308955058BB27AA27BB
:1044D0000ED075C166D130F06BD120F031F49F3F22
:1044E00011F41EF45BC10EF4E095E7FB51C1E92F16
:1044F00077D180F3BA17620773078407950718F01E
:1045000071F49EF58FC10EF4E0950B2EBA2FA02DFD
:104510000B01B90190010C01CA01A0011124FF2770
:10452000591B99F0593F50F4503E68F11A16F0406B
:10453000A22F232F342F4427585FF3CF469537956A
:104540002795A795F0405395C9F77EF41F16BA0B2F
:10455000620B730B840BBAF09150A1F0FF0FBB1FDD
:10456000661F771F881FC2F70EC0BA0F621F731F26
:10457000841F48F4879577956795B795F7959E3F83
:1045800008F0B3CF9395880F08F09927EE0F979511
:1045900087950895D9D008F481E008950CD00FC113
:1045A00007D140F0FED030F021F45F3F19F0F0C0A9
:1045B000511139C1F3C014D198F39923C9F355238C
:1045C000B1F3951B550BBB27AA2762177307840706
:1045D00038F09F5F5F4F220F331F441FAA1FA9F3BC
:1045E00033D00E2E3AF0E0E830D091505040E695AE
:1045F000001CCAF729D0FE2F27D0660F771F881F0F
:10460000BB1F261737074807AB07B0E809F0BB0BFD
:10461000802DBF01FF2793585F4F2AF09E3F510521
:1046200068F0B6C000C15F3FECF3983EDCF38695BE
:1046300077956795B795F7959F5FC9F7880F911D97
:104640009695879597F90895E1E0660F771F881F83
:10465000BB1F621773078407BA0720F0621B730B36
:10466000840BBA0BEE1F88F7E095089504D0689488
:10467000B111D9C00895BCD088F09F5790F0B92FE0
:104680009927B751A0F0D1F0660F771F881F991FA7
:104690001AF0BA95C9F712C0B13081F0C3D0B1E0B9
:1046A0000895C0C0672F782F8827B85F39F0B93FC9
:1046B000CCF3869577956795B395D9F73EF49095A9
:1046C0008095709561957F4F8F4F9F4F0895E89427
:1046D00009C097FB3EF490958095709561957F4F4A
:1046E0008F4F9F4F9923A9F0F92F96E9BB279395F8
:1046F000F695879577956795B795F111F8CFFAF408
:10470000BB0F11F460FF1BC06F5F7F4F8F4F9F4F38
:1047100016C0882311F096E911C0772321F09EE896
:10472000872F762F05C0662371F096E8862F70E0FC
:1047300060E02AF09A95660F771F881FDAF7880FD6
:104740009695879597F90895990F0008550FAA0B2C
:10475000E0E8FEEF16161706E807F907C0F0121694
:104760001306E407F50798F0621B730B840B950B97
:1047700039F40A2661F0232B242B252B21F40895EC
:104780000A2609F4A140A6958FEF811D811D089589
:1047900097F99F6780E870E060E008959FEF80ECF4
:1047A000089500240A941616170618060906089597
:1047B00000240A9412161306140605060895092EFD
:1047C0000394000C11F4882352F0BB0F40F4BF2B6C
:1047D00011F460FF04C06F5F7F4F8F4F9F4F0895AC
:1047E00057FD9058440F551F59F05F3F71F04795A2
:1047F000880F97FB991F61F09F3F79F08795089587
:10480000121613061406551FF2CF4695F1DF08C0A5
:10481000161617061806991FF1CF869571056105C2
:1048200008940895E894BB2766277727CB0197F96A
:1048300008958ADF08F48FEF08950BD0C0CFB1DF61
:1048400028F0B6DF18F0952309F0A2CFA7CF1124E6
:10485000EACFC6DFA0F3959FD1F3950F50E0551F27
:10486000629FF001729FBB27F00DB11D639FAA27C5
:10487000F00DB11DAA1F649F6627B00DA11D661F14
:10488000829F2227B00DA11D621F739FB00DA11D35
:10489000621F839FA00D611D221F749F3327A00DEF
:1048A000611D231F849F600D211D822F762F6A2F8B
:1048B00011249F5750408AF0E1F088234AF0EE0F10
:1048C000FF1FBB1F661F771F881F91505040A9F71D
:1048D0009E3F510570F05CCFA6CF5F3FECF3983E52
:1048E000DCF3869577956795B795F795E7959F5F84
:1048F000C1F7FE2B880F911D9695879597F908951E
:10490000629FD001739FF001829FE00DF11D649FB3
:10491000E00DF11D929FF00D839FF00D749FF00D3F
:10492000659FF00D9927729FB00DE11DF91F639FE0
:10493000B00DE11DF91FBD01CF011124089597FBB2
:10494000092E07260AD077FD04D049D006D00020D2
:104950001AF4709561957F4F0895F6F790958195BB
:104960009F4F0895A1E21A2EAA1BBB1BFD010DC08B
:10497000AA1FBB1FEE1FFF1FA217B307E407F5070F
:1049800020F0A21BB30BE40BF50B661F771F881FEB
:10499000991F1A9469F760957095809590959B0181
:1049A000AC01BD01CF01089597FB092E05260ED05D
:1049B00057FD04D0D7DF0AD0001C38F4509540953D
:1049C000309521953F4F4F4F5F4F0895F6F79095E3
:1049D0008095709561957F4F8F4F9F4F0895AA1BCB
:1049E000BB1B51E107C0AA1FBB1FA617B70710F0DA
:1049F000A61BB70B881F991F5A95A9F7809590950C
:104A0000BC01CD010895EE0FFF1F0590F491E02D3C
:104A10001994911116C0803219F089508550D0F741
:104A200008959111089581548A5108F4805E855A41
:104A300008959111089581568A5108F4805285583D
:104A400008959927882708952F923F924F925F9259
:104A50006F927F928F929F92AF92BF92CF92DF928E
:104A6000EF92FF920F931F93CF93DF93CDB7DEB7F3
:104A7000CA1BDB0B0FB6F894DEBF0FBECDBF199477
:104A80002A88398848885F846E847D848C849B84DE
:104A9000AA84B984C884DF80EE80FD800C811B81EC
:104AA000AA81B981CE0FD11D0FB6F894DEBF0FBE1B
:0A4AB000CDBFED010895F894FFCF8B
:104ABA00000000006905C306FD042E050E05570512
:104ACA00000000004E16C3064E164E164E164E161F
:104ADA002E00000000004E16C306000196050000D5
:104AEA00803F0000803F0000803F0000803F0000C0
:104AFA00803F0000803F0000803F0000C04000006F
:104B0A0040403BB25F360000803F0000C0400000DA
:104B1A00404065CF0B370000803F0000C0400000D6
:104B2A0040403BB2DF360000803F000000400000FA
:104B3A00803F000000000000803F000000400000AD
:104B4A00803FACC5A7360000803F0000C04000008F
:104B5A004040F4BB4337080000000A0000000C0084
:104B6A000000090000000B0000000D000000040016
:104B7A00000005000000060000000200000003001B
:104B8A000000070000002000B60500000100000038
:00000001FF
